{
  "contractName": "AssetContract",
  "abi": [
    {
      "constant": false,
      "inputs": [],
      "name": "renounceOwnership",
      "outputs": [],
      "payable": false,
      "stateMutability": "nonpayable",
      "type": "function",
      "signature": "0x715018a6"
    },
    {
      "constant": true,
      "inputs": [],
      "name": "owner",
      "outputs": [
        {
          "name": "",
          "type": "address"
        }
      ],
      "payable": false,
      "stateMutability": "view",
      "type": "function",
      "signature": "0x8da5cb5b"
    },
    {
      "constant": true,
      "inputs": [],
      "name": "isOwner",
      "outputs": [
        {
          "name": "",
          "type": "bool"
        }
      ],
      "payable": false,
      "stateMutability": "view",
      "type": "function",
      "signature": "0x8f32d59b"
    },
    {
      "constant": true,
      "inputs": [
        {
          "name": "",
          "type": "uint256"
        }
      ],
      "name": "depositsBalance",
      "outputs": [
        {
          "name": "",
          "type": "uint256"
        }
      ],
      "payable": false,
      "stateMutability": "view",
      "type": "function",
      "signature": "0x981b5804"
    },
    {
      "constant": true,
      "inputs": [
        {
          "name": "",
          "type": "uint256"
        }
      ],
      "name": "assets",
      "outputs": [
        {
          "name": "id",
          "type": "uint256"
        },
        {
          "name": "owner",
          "type": "address"
        },
        {
          "name": "candidate",
          "type": "address"
        },
        {
          "name": "name",
          "type": "string"
        },
        {
          "name": "description",
          "type": "string"
        },
        {
          "name": "hashKey",
          "type": "string"
        },
        {
          "name": "price",
          "type": "uint256"
        },
        {
          "name": "available",
          "type": "bool"
        }
      ],
      "payable": false,
      "stateMutability": "view",
      "type": "function",
      "signature": "0xcf35bdd0"
    },
    {
      "constant": false,
      "inputs": [
        {
          "name": "newOwner",
          "type": "address"
        }
      ],
      "name": "transferOwnership",
      "outputs": [],
      "payable": false,
      "stateMutability": "nonpayable",
      "type": "function",
      "signature": "0xf2fde38b"
    },
    {
      "anonymous": false,
      "inputs": [
        {
          "indexed": false,
          "name": "_assetId",
          "type": "uint256"
        },
        {
          "indexed": false,
          "name": "_owner",
          "type": "address"
        },
        {
          "indexed": false,
          "name": "_name",
          "type": "string"
        },
        {
          "indexed": false,
          "name": "_description",
          "type": "string"
        },
        {
          "indexed": false,
          "name": "_hashKey",
          "type": "string"
        },
        {
          "indexed": false,
          "name": "_price",
          "type": "uint256"
        }
      ],
      "name": "NewAsset",
      "type": "event",
      "signature": "0x4efe84f42f5dc8e26465778176a705ad3410cf364c7671cb60cfc8e1f5fe7f3a"
    },
    {
      "anonymous": false,
      "inputs": [
        {
          "indexed": false,
          "name": "_assetId",
          "type": "uint256"
        },
        {
          "indexed": false,
          "name": "_owner",
          "type": "address"
        },
        {
          "indexed": false,
          "name": "_name",
          "type": "string"
        },
        {
          "indexed": false,
          "name": "_description",
          "type": "string"
        },
        {
          "indexed": false,
          "name": "_hashKey",
          "type": "string"
        },
        {
          "indexed": false,
          "name": "_price",
          "type": "uint256"
        }
      ],
      "name": "UpdateAsset",
      "type": "event",
      "signature": "0x5b06687e2faf130980555e1015a965e09459b7d538a348953f70a14109db3a42"
    },
    {
      "anonymous": false,
      "inputs": [
        {
          "indexed": false,
          "name": "_owner",
          "type": "address"
        },
        {
          "indexed": false,
          "name": "_assetId",
          "type": "uint256"
        }
      ],
      "name": "AssetRemoved",
      "type": "event",
      "signature": "0x3406221f53114f44c9a1bb93d08ee55735f39bf235a54741684a52501207bb54"
    },
    {
      "anonymous": false,
      "inputs": [
        {
          "indexed": false,
          "name": "_assetId",
          "type": "uint256"
        },
        {
          "indexed": false,
          "name": "_owner",
          "type": "address"
        },
        {
          "indexed": false,
          "name": "_name",
          "type": "string"
        },
        {
          "indexed": false,
          "name": "_description",
          "type": "string"
        },
        {
          "indexed": false,
          "name": "_price",
          "type": "uint256"
        }
      ],
      "name": "SetMarketplace",
      "type": "event",
      "signature": "0x5d095dcaf5e2fe5894fd51fdc2e637dd6095cb9b9b3c20d178cecc053a7a8c4e"
    },
    {
      "anonymous": false,
      "inputs": [
        {
          "indexed": false,
          "name": "_assetId",
          "type": "uint256"
        },
        {
          "indexed": false,
          "name": "_owner",
          "type": "address"
        },
        {
          "indexed": false,
          "name": "_candidate",
          "type": "address"
        },
        {
          "indexed": false,
          "name": "_name",
          "type": "string"
        },
        {
          "indexed": false,
          "name": "_description",
          "type": "string"
        },
        {
          "indexed": false,
          "name": "_price",
          "type": "uint256"
        }
      ],
      "name": "UnsetMarketplace",
      "type": "event",
      "signature": "0x93759953971d9dce99ec5e86ee853a8b7d7b7fdbc7c34ead5e76872c4d3eaf20"
    },
    {
      "anonymous": false,
      "inputs": [
        {
          "indexed": false,
          "name": "_assetId",
          "type": "uint256"
        },
        {
          "indexed": false,
          "name": "_owner",
          "type": "address"
        },
        {
          "indexed": false,
          "name": "_candidate",
          "type": "address"
        },
        {
          "indexed": false,
          "name": "_price",
          "type": "uint256"
        }
      ],
      "name": "Deposit",
      "type": "event",
      "signature": "0x2c0f148b435140de488c1b34647f1511c646f7077e87007bacf22ef9977a16d8"
    },
    {
      "anonymous": false,
      "inputs": [
        {
          "indexed": false,
          "name": "_assetId",
          "type": "uint256"
        },
        {
          "indexed": false,
          "name": "_formerOwner",
          "type": "address"
        },
        {
          "indexed": false,
          "name": "_newOwner",
          "type": "address"
        },
        {
          "indexed": false,
          "name": "_price",
          "type": "uint256"
        }
      ],
      "name": "Purchase",
      "type": "event",
      "signature": "0xe3cf0e0098f447c6d9bc08ffbbf3f193d35c51b57d7de6bb9ccb79f4995ccf71"
    },
    {
      "anonymous": false,
      "inputs": [
        {
          "indexed": false,
          "name": "_assetId",
          "type": "uint256"
        },
        {
          "indexed": false,
          "name": "_owner",
          "type": "address"
        },
        {
          "indexed": false,
          "name": "_candidate",
          "type": "address"
        },
        {
          "indexed": false,
          "name": "_price",
          "type": "uint256"
        }
      ],
      "name": "Refund",
      "type": "event",
      "signature": "0xae4600bc3786dafd4f3459692821fe209dcde1a5283d33f0675340813bc4ad48"
    },
    {
      "anonymous": false,
      "inputs": [
        {
          "indexed": true,
          "name": "previousOwner",
          "type": "address"
        },
        {
          "indexed": true,
          "name": "newOwner",
          "type": "address"
        }
      ],
      "name": "OwnershipTransferred",
      "type": "event",
      "signature": "0x8be0079c531659141344cd1fd0a4f28419497f9722a3daafe3b4186f6b6457e0"
    },
    {
      "constant": false,
      "inputs": [
        {
          "name": "_name",
          "type": "string"
        },
        {
          "name": "_description",
          "type": "string"
        },
        {
          "name": "_hashKey",
          "type": "string"
        },
        {
          "name": "_price",
          "type": "uint256"
        }
      ],
      "name": "addAsset",
      "outputs": [],
      "payable": false,
      "stateMutability": "nonpayable",
      "type": "function",
      "signature": "0x82e3759d"
    },
    {
      "constant": false,
      "inputs": [
        {
          "name": "_assetId",
          "type": "uint256"
        },
        {
          "name": "_name",
          "type": "string"
        },
        {
          "name": "_description",
          "type": "string"
        },
        {
          "name": "_hashKey",
          "type": "string"
        },
        {
          "name": "_price",
          "type": "uint256"
        }
      ],
      "name": "updateAsset",
      "outputs": [],
      "payable": false,
      "stateMutability": "nonpayable",
      "type": "function",
      "signature": "0xc687857c"
    },
    {
      "constant": false,
      "inputs": [
        {
          "name": "_assetId",
          "type": "uint256"
        }
      ],
      "name": "setMarketplace",
      "outputs": [],
      "payable": false,
      "stateMutability": "nonpayable",
      "type": "function",
      "signature": "0xe70bdacf"
    },
    {
      "constant": false,
      "inputs": [
        {
          "name": "_assetId",
          "type": "uint256"
        }
      ],
      "name": "unsetMarketplace",
      "outputs": [],
      "payable": false,
      "stateMutability": "nonpayable",
      "type": "function",
      "signature": "0x229c11a6"
    },
    {
      "constant": false,
      "inputs": [
        {
          "name": "_assetId",
          "type": "uint256"
        }
      ],
      "name": "deposit",
      "outputs": [],
      "payable": true,
      "stateMutability": "payable",
      "type": "function",
      "signature": "0xb6b55f25"
    },
    {
      "constant": false,
      "inputs": [
        {
          "name": "_assetId",
          "type": "uint256"
        }
      ],
      "name": "purchaseAsset",
      "outputs": [],
      "payable": false,
      "stateMutability": "nonpayable",
      "type": "function",
      "signature": "0xa457e1c0"
    },
    {
      "constant": false,
      "inputs": [
        {
          "name": "_assetId",
          "type": "uint256"
        }
      ],
      "name": "refundPurchase",
      "outputs": [],
      "payable": false,
      "stateMutability": "nonpayable",
      "type": "function",
      "signature": "0x1c77b27a"
    },
    {
      "constant": false,
      "inputs": [
        {
          "name": "_assetId",
          "type": "uint256"
        }
      ],
      "name": "removeAsset",
      "outputs": [],
      "payable": false,
      "stateMutability": "nonpayable",
      "type": "function",
      "signature": "0xf14f58f1"
    },
    {
      "constant": true,
      "inputs": [],
      "name": "getMyAssets",
      "outputs": [
        {
          "name": "",
          "type": "uint256[]"
        }
      ],
      "payable": false,
      "stateMutability": "view",
      "type": "function",
      "signature": "0x47002d1d"
    },
    {
      "constant": true,
      "inputs": [],
      "name": "getMarketplace",
      "outputs": [
        {
          "name": "",
          "type": "uint256[]"
        }
      ],
      "payable": false,
      "stateMutability": "view",
      "type": "function",
      "signature": "0x0d21bcd5"
    },
    {
      "constant": true,
      "inputs": [
        {
          "name": "_assetId",
          "type": "uint256"
        }
      ],
      "name": "getAsset",
      "outputs": [
        {
          "name": "_owner",
          "type": "address"
        },
        {
          "name": "_candidate",
          "type": "address"
        },
        {
          "name": "_name",
          "type": "string"
        },
        {
          "name": "_description",
          "type": "string"
        },
        {
          "name": "_hashKey",
          "type": "string"
        },
        {
          "name": "_price",
          "type": "uint256"
        },
        {
          "name": "_available",
          "type": "bool"
        }
      ],
      "payable": false,
      "stateMutability": "view",
      "type": "function",
      "signature": "0xeac8f5b8"
    },
    {
      "constant": true,
      "inputs": [
        {
          "name": "_assetId",
          "type": "uint256"
        }
      ],
      "name": "getOwner",
      "outputs": [
        {
          "name": "",
          "type": "address"
        }
      ],
      "payable": false,
      "stateMutability": "view",
      "type": "function",
      "signature": "0xc41a360a"
    },
    {
      "constant": true,
      "inputs": [
        {
          "name": "_assetId",
          "type": "uint256"
        }
      ],
      "name": "getCandidate",
      "outputs": [
        {
          "name": "",
          "type": "address"
        }
      ],
      "payable": false,
      "stateMutability": "view",
      "type": "function",
      "signature": "0x35b8e820"
    },
    {
      "constant": true,
      "inputs": [
        {
          "name": "_assetId",
          "type": "uint256"
        }
      ],
      "name": "getName",
      "outputs": [
        {
          "name": "",
          "type": "string"
        }
      ],
      "payable": false,
      "stateMutability": "view",
      "type": "function",
      "signature": "0x6b8ff574"
    },
    {
      "constant": true,
      "inputs": [
        {
          "name": "_assetId",
          "type": "uint256"
        }
      ],
      "name": "getDescription",
      "outputs": [
        {
          "name": "",
          "type": "string"
        }
      ],
      "payable": false,
      "stateMutability": "view",
      "type": "function",
      "signature": "0x4925ec55"
    },
    {
      "constant": true,
      "inputs": [
        {
          "name": "_assetId",
          "type": "uint256"
        }
      ],
      "name": "getHashKey",
      "outputs": [
        {
          "name": "",
          "type": "string"
        }
      ],
      "payable": false,
      "stateMutability": "view",
      "type": "function",
      "signature": "0x6ce9eb64"
    },
    {
      "constant": true,
      "inputs": [
        {
          "name": "_assetId",
          "type": "uint256"
        }
      ],
      "name": "getPrice",
      "outputs": [
        {
          "name": "",
          "type": "uint256"
        }
      ],
      "payable": false,
      "stateMutability": "view",
      "type": "function",
      "signature": "0xe7572230"
    },
    {
      "constant": true,
      "inputs": [
        {
          "name": "_assetId",
          "type": "uint256"
        }
      ],
      "name": "getAvailability",
      "outputs": [
        {
          "name": "",
          "type": "bool"
        }
      ],
      "payable": false,
      "stateMutability": "view",
      "type": "function",
      "signature": "0xcd6a8eca"
    }
  ],
  "bytecode": "0x6080604081905260008054600160a060020a0319163317808255600160a060020a0316917f8be0079c531659141344cd1fd0a4f28419497f9722a3daafe3b4186f6b6457e0908290a361357c806100576000396000f30060806040526004361061013d5763ffffffff7c01000000000000000000000000000000000000000000000000000000006000350416630d21bcd581146101425780631c77b27a146101a7578063229c11a6146101c157806335b8e820146101d957806347002d1d1461020d5780634925ec55146102225780636b8ff574146102af5780636ce9eb64146102c7578063715018a6146102df57806382e3759d146102f45780638da5cb5b146103cb5780638f32d59b146103e0578063981b580414610409578063a457e1c014610433578063b6b55f251461044b578063c41a360a14610456578063c687857c1461046e578063cd6a8eca1461054a578063cf35bdd014610562578063e70bdacf14610709578063e757223014610721578063eac8f5b814610739578063f14f58f1146108d9578063f2fde38b146108f1575b600080fd5b34801561014e57600080fd5b50610157610912565b60408051602080825283518183015283519192839290830191858101910280838360005b8381101561019357818101518382015260200161017b565b505050509050019250505060405180910390f35b3480156101b357600080fd5b506101bf600435610a60565b005b3480156101cd57600080fd5b506101bf600435610c03565b3480156101e557600080fd5b506101f1600435610e73565b60408051600160a060020a039092168252519081900360200190f35b34801561021957600080fd5b506101576110bf565b34801561022e57600080fd5b5061023a600435611206565b6040805160208082528351818301528351919283929083019185019080838360005b8381101561027457818101518382015260200161025c565b50505050905090810190601f1680156102a15780820380516001836020036101000a031916815260200191505b509250505060405180910390f35b3480156102bb57600080fd5b5061023a60043561145b565b3480156102d357600080fd5b5061023a6004356116b0565b3480156102eb57600080fd5b506101bf611905565b34801561030057600080fd5b506040805160206004803580820135601f81018490048402850184019095528484526101bf94369492936024939284019190819084018382808284375050604080516020601f89358b018035918201839004830284018301909452808352979a99988101979196509182019450925082915084018382808284375050604080516020601f89358b018035918201839004830284018301909452808352979a99988101979196509182019450925082915084018382808284375094975050933594506119629350505050565b3480156103d757600080fd5b506101f1611d32565b3480156103ec57600080fd5b506103f5611d42565b604080519115158252519081900360200190f35b34801561041557600080fd5b50610421600435611d53565b60408051918252519081900360200190f35b34801561043f57600080fd5b506101bf600435611d65565b6101bf600435611efb565b34801561046257600080fd5b506101f1600435612146565b34801561047a57600080fd5b5060408051602060046024803582810135601f81018590048502860185019096528585526101bf95833595369560449491939091019190819084018382808284375050604080516020601f89358b018035918201839004830284018301909452808352979a99988101979196509182019450925082915084018382808284375050604080516020601f89358b018035918201839004830284018301909452808352979a999881019791965091820194509250829150840183828082843750949750509335945061238e9350505050565b34801561055657600080fd5b506103f560043561270c565b34801561056e57600080fd5b5061057a600435612954565b6040518089815260200188600160a060020a0316600160a060020a0316815260200187600160a060020a0316600160a060020a0316815260200180602001806020018060200186815260200185151515158152602001848103845289818151815260200191508051906020019080838360005b838110156106055781810151838201526020016105ed565b50505050905090810190601f1680156106325780820380516001836020036101000a031916815260200191505b5084810383528851815288516020918201918a019080838360005b8381101561066557818101518382015260200161064d565b50505050905090810190601f1680156106925780820380516001836020036101000a031916815260200191505b50848103825287518152875160209182019189019080838360005b838110156106c55781810151838201526020016106ad565b50505050905090810190601f1680156106f25780820380516001836020036101000a031916815260200191505b509b50505050505050505050505060405180910390f35b34801561071557600080fd5b506101bf600435612b43565b34801561072d57600080fd5b50610421600435612d29565b34801561074557600080fd5b50610751600435612f71565b6040518088600160a060020a0316600160a060020a0316815260200187600160a060020a0316600160a060020a0316815260200180602001806020018060200186815260200185151515158152602001848103845289818151815260200191508051906020019080838360005b838110156107d65781810151838201526020016107be565b50505050905090810190601f1680156108035780820380516001836020036101000a031916815260200191505b5084810383528851815288516020918201918a019080838360005b8381101561083657818101518382015260200161081e565b50505050905090810190601f1680156108635780820380516001836020036101000a031916815260200191505b50848103825287518152875160209182019189019080838360005b8381101561089657818101518382015260200161087e565b50505050905090810190601f1680156108c35780820380516001836020036101000a031916815260200191505b509a505050505050505050505060405180910390f35b3480156108e557600080fd5b506101bf60043561322d565b3480156108fd57600080fd5b506101bf600160a060020a0360043516613356565b60608060008060606000600354600014156109415760408051600080825260208201909252905b509550610a58565b60035460405190808252806020026020018201604052801561096d578160200160208202803883390190505b50945060009350600192505b60035483116109e25760008381526001602052604090206007015460ff16156109d75760008381526001602052604090205485518690869081106109b957fe5b602090810290910101526109d484600163ffffffff61337516565b93505b600190920191610979565b83604051908082528060200260200182016040528015610a0c578160200160208202803883390190505b509150600090505b83811015610a54578481815181101515610a2a57fe5b906020019060200201518282815181101515610a4257fe5b60209081029091010152600101610a14565b8195505b505050505090565b60008181526001602081905260408220908101549091908190600160a060020a03161515610a8d57610bfd565b6001830154600160a060020a0316331480610ab457506002830154600160a060020a031633145b15610b87575050600280820180546000858152602093909352604083208054600160a060020a0319831690935592909255600160a060020a03909116908015610b2f57604051600160a060020a0383169082156108fc029083906000818181858888f19350505050158015610b2d573d6000803e3d6000fd5b505b600183015460408051868152600160a060020a039092166020830152338282015260608201839052517fae4600bc3786dafd4f3459692821fe209dcde1a5283d33f0675340813bc4ad489181900360800190a1610bfd565b6040805160e560020a62461bcd02815260206004820152602660248201527f526566756e64206e6f7420617574686f726973656420666f722074686973206160448201527f63636f756e740000000000000000000000000000000000000000000000000000606482015290519081900360840190fd5b50505050565b60008181526001602081905260408220908101549091908190600160a060020a03161515610c3057610bfd565b6001830154600160a060020a03163314610c82576040805160e560020a62461bcd0281526020600482018190526024820152600080516020613531833981519152604482015290519081900360640190fd5b60078301805460ff191690556002830154600160a060020a031615610d0357505060028082018054600085815260209390935260408084208054600160a060020a0319841690945584905551600160a060020a0390911692839183156108fc0291849190818181858888f19350505050158015610b2d573d6000803e3d6000fd5b6002808401546006850154604080518881523360208201819052600160a060020a0390941691810182905260a0810183905260c06060820181815260038a0180546000196001821615610100020116979097049183018290527f93759953971d9dce99ec5e86ee853a8b7d7b7fdbc7c34ead5e76872c4d3eaf20968b9695909360048c019391929091608083019060e084019087908015610de55780601f10610dba57610100808354040283529160200191610de5565b820191906000526020600020905b815481529060010190602001808311610dc857829003601f168201915b5050838103825285546002600019610100600184161502019091160480825260209091019086908015610e595780601f10610e2e57610100808354040283529160200191610e59565b820191906000526020600020905b815481529060010190602001808311610e3c57829003601f168201915b50509850505050505050505060405180910390a150505050565b6000610e7d6133fe565b600083815260016020818152604092839020835161010080820186528254825282850154600160a060020a0390811683860152600280850154909116838801526003840180548851978116159093026000190190921604601f8101859004850286018501909652858552909491936060860193909290830182828015610f445780601f10610f1957610100808354040283529160200191610f44565b820191906000526020600020905b815481529060010190602001808311610f2757829003601f168201915b505050918352505060048201805460408051602060026001851615610100026000190190941693909304601f8101849004840282018401909252818152938201939291830182828015610fd85780601f10610fad57610100808354040283529160200191610fd8565b820191906000526020600020905b815481529060010190602001808311610fbb57829003601f168201915b505050918352505060058201805460408051602060026001851615610100026000190190941693909304601f810184900484028201840190925281815293820193929183018282801561106c5780601f106110415761010080835404028352916020019161106c565b820191906000526020600020905b81548152906001019060200180831161104f57829003601f168201915b5050509183525050600682015460208083019190915260079092015460ff161515604090910152810151909150600160a060020a031615156110b157600091506110b9565b806040015191505b50919050565b60608060008060606000600354600014156110ea576040805160008082526020820190925290610939565b600354604051908082528060200260200182016040528015611116578160200160208202803883390190505b50945060009350600192505b60035483116111945760008381526001602081905260409091200154600160a060020a031633141561118957600083815260016020526040902054855186908690811061116b57fe5b6020908102909101015261118684600163ffffffff61337516565b93505b600190920191611122565b836040519080825280602002602001820160405280156111be578160200160208202803883390190505b509150600090505b83811015610a545784818151811015156111dc57fe5b9060200190602002015182828151811015156111f457fe5b602090810290910101526001016111c6565b60606112106133fe565b600083815260016020818152604092839020835161010080820186528254825282850154600160a060020a0390811683860152600280850154909116838801526003840180548851978116159093026000190190921604601f81018590048502860185019096528585529094919360608601939092908301828280156112d75780601f106112ac576101008083540402835291602001916112d7565b820191906000526020600020905b8154815290600101906020018083116112ba57829003601f168201915b505050918352505060048201805460408051602060026001851615610100026000190190941693909304601f810184900484028201840190925281815293820193929183018282801561136b5780601f106113405761010080835404028352916020019161136b565b820191906000526020600020905b81548152906001019060200180831161134e57829003601f168201915b505050918352505060058201805460408051602060026001851615610100026000190190941693909304601f81018490048402820184019092528181529382019392918301828280156113ff5780601f106113d4576101008083540402835291602001916113ff565b820191906000526020600020905b8154815290600101906020018083116113e257829003601f168201915b5050509183525050600682015460208083019190915260079092015460ff161515604090910152810151909150600160a060020a031615156114515760408051602081019091526000815291506110b9565b6080015192915050565b60606114656133fe565b600083815260016020818152604092839020835161010080820186528254825282850154600160a060020a0390811683860152600280850154909116838801526003840180548851978116159093026000190190921604601f810185900485028601850190965285855290949193606086019390929083018282801561152c5780601f106115015761010080835404028352916020019161152c565b820191906000526020600020905b81548152906001019060200180831161150f57829003601f168201915b505050918352505060048201805460408051602060026001851615610100026000190190941693909304601f81018490048402820184019092528181529382019392918301828280156115c05780601f10611595576101008083540402835291602001916115c0565b820191906000526020600020905b8154815290600101906020018083116115a357829003601f168201915b505050918352505060058201805460408051602060026001851615610100026000190190941693909304601f81018490048402820184019092528181529382019392918301828280156116545780601f1061162957610100808354040283529160200191611654565b820191906000526020600020905b81548152906001019060200180831161163757829003601f168201915b5050509183525050600682015460208083019190915260079092015460ff161515604090910152810151909150600160a060020a031615156116a65760408051602081019091526000815291506110b9565b6060015192915050565b60606116ba6133fe565b600083815260016020818152604092839020835161010080820186528254825282850154600160a060020a0390811683860152600280850154909116838801526003840180548851978116159093026000190190921604601f81018590048502860185019096528585529094919360608601939092908301828280156117815780601f1061175657610100808354040283529160200191611781565b820191906000526020600020905b81548152906001019060200180831161176457829003601f168201915b505050918352505060048201805460408051602060026001851615610100026000190190941693909304601f81018490048402820184019092528181529382019392918301828280156118155780601f106117ea57610100808354040283529160200191611815565b820191906000526020600020905b8154815290600101906020018083116117f857829003601f168201915b505050918352505060058201805460408051602060026001851615610100026000190190941693909304601f81018490048402820184019092528181529382019392918301828280156118a95780601f1061187e576101008083540402835291602001916118a9565b820191906000526020600020905b81548152906001019060200180831161188c57829003601f168201915b5050509183525050600682015460208083019190915260079092015460ff161515604090910152810151909150600160a060020a031615156118fb5760408051602081019091526000815291506110b9565b60a0015192915050565b61190d611d42565b151561191857600080fd5b60008054604051600160a060020a03909116907f8be0079c531659141344cd1fd0a4f28419497f9722a3daafe3b4186f6b6457e0908390a360008054600160a060020a0319169055565b8351849060609081906000106119c2576040805160e560020a62461bcd02815260206004820152601260248201527f41206e616d652069732072657175697265640000000000000000000000000000604482015290519081900360640190fd5b8551869250600010611a1e576040805160e560020a62461bcd02815260206004820152601960248201527f41206465736372697074696f6e20697320726571756972656400000000000000604482015290519081900360640190fd5b5083518490600010611a7a576040805160e560020a62461bcd02815260206004820181905260248201527f412068617368206b65792066726f6d2049504653206973207265717569726564604482015290519081900360640190fd5b600354611a8e90600163ffffffff61337516565b600381815560408051610100810182528381523360208083019182526000838501818152606085018f8152608086018f905260a086018e905260c086018d905260e086018390529782526001808452959091208451815592519483018054600160a060020a03968716600160a060020a03199182161790915590516002840180549190961691161790935593518051919493611b309390850192910190613458565b5060808201518051611b4c916004840191602090910190613458565b5060a08201518051611b68916005840191602090910190613458565b5060c0820151816006015560e08201518160070160006101000a81548160ff0219169083151502179055509050507f4efe84f42f5dc8e26465778176a705ad3410cf364c7671cb60cfc8e1f5fe7f3a60035433898989896040518087815260200186600160a060020a0316600160a060020a03168152602001806020018060200180602001858152602001848103845288818151815260200191508051906020019080838360005b83811015611c28578181015183820152602001611c10565b50505050905090810190601f168015611c555780820380516001836020036101000a031916815260200191505b50848103835287518152875160209182019189019080838360005b83811015611c88578181015183820152602001611c70565b50505050905090810190601f168015611cb55780820380516001836020036101000a031916815260200191505b50848103825286518152865160209182019188019080838360005b83811015611ce8578181015183820152602001611cd0565b50505050905090810190601f168015611d155780820380516001836020036101000a031916815260200191505b50995050505050505050505060405180910390a150505050505050565b600054600160a060020a03165b90565b600054600160a060020a0316331490565b60026020526000908152604090205481565b60008181526001602081905260408220908101549091908190600160a060020a03161515611d9257610bfd565b6002830154600160a060020a03163314611e1c576040805160e560020a62461bcd02815260206004820152602b60248201527f417373657420616c726561647920726573657276656420746f20616e6f74686560448201527f722063616e646964617465000000000000000000000000000000000000000000606482015290519081900360840190fd5b505060018101805460008481526002602081905260408083208054600160a060020a0319808716331790975592870180549096169095556006860183905560078601805460ff19169055938290559251600160a060020a039092169291839183156108fc02918491818181858888f19350505050158015611ea1573d6000803e3d6000fd5b50600183015460408051868152600160a060020a039092166020830152338282015260608201839052517fe3cf0e0098f447c6d9bc08ffbbf3f193d35c51b57d7de6bb9ccb79f4995ccf719181900360800190a150505050565b600081815260016020819052604090912090810154600160a060020a03161515611f2457612142565b6002810154600160a060020a031615611fad576040805160e560020a62461bcd02815260206004820152602b60248201527f417373657420616c726561647920726573657276656420746f20616e6f74686560448201527f722063616e646964617465000000000000000000000000000000000000000000606482015290519081900360840190fd5b6001810154600160a060020a0316331415612038576040805160e560020a62461bcd02815260206004820152602e60248201527f4465706f736974206e6f7420616c6c6f77656420666f7220746865206f776e6560448201527f72206f6620746865206173736574000000000000000000000000000000000000606482015290519081900360840190fd5b600681015434146120b9576040805160e560020a62461bcd02815260206004820152602260248201527f507269636520617265206e6f74207468652073616d652061732065787065637460448201527f6564000000000000000000000000000000000000000000000000000000000000606482015290519081900360840190fd5b6000828152600260208181526040928390203490559083018054600160a060020a03191633908117909155600184015460068501548451878152600160a060020a03929092169382019390935280840191909152606081019190915290517f2c0f148b435140de488c1b34647f1511c646f7077e87007bacf22ef9977a16d89181900360800190a15b5050565b60006121506133fe565b600083815260016020818152604092839020835161010080820186528254825282850154600160a060020a0390811683860152600280850154909116838801526003840180548851978116159093026000190190921604601f81018590048502860185019096528585529094919360608601939092908301828280156122175780601f106121ec57610100808354040283529160200191612217565b820191906000526020600020905b8154815290600101906020018083116121fa57829003601f168201915b505050918352505060048201805460408051602060026001851615610100026000190190941693909304601f81018490048402820184019092528181529382019392918301828280156122ab5780601f10612280576101008083540402835291602001916122ab565b820191906000526020600020905b81548152906001019060200180831161228e57829003601f168201915b505050918352505060058201805460408051602060026001851615610100026000190190941693909304601f810184900484028201840190925281815293820193929183018282801561233f5780601f106123145761010080835404028352916020019161233f565b820191906000526020600020905b81548152906001019060200180831161232257829003601f168201915b5050509183525050600682015460208083019190915260079092015460ff161515604090910152810151909150600160a060020a0316151561238457600091506110b9565b6020015192915050565b60008581526001602081905260409091209081015460609081908190600160a060020a031615156123be57612701565b6001840154600160a060020a03163314612410576040805160e560020a62461bcd0281526020600482018190526024820152600080516020613531833981519152604482015290519081900360640190fd5b875188935060001061246c576040805160e560020a62461bcd02815260206004820152601260248201527f41206e616d652069732072657175697265640000000000000000000000000000604482015290519081900360640190fd5b86518792506000106124c8576040805160e560020a62461bcd02815260206004820152601960248201527f41206465736372697074696f6e20697320726571756972656400000000000000604482015290519081900360640190fd5b5084518590600010612524576040805160e560020a62461bcd02815260206004820181905260248201527f412068617368206b65792066726f6d2049504653206973207265717569726564604482015290519081900360640190fd5b875161253990600386019060208b0190613458565b50865161254f90600486019060208a0190613458565b5085516125659060058601906020890190613458565b508484600601819055507f5b06687e2faf130980555e1015a965e09459b7d538a348953f70a14109db3a4289338a8a8a8a6040518087815260200186600160a060020a0316600160a060020a03168152602001806020018060200180602001858152602001848103845288818151815260200191508051906020019080838360005b838110156125ff5781810151838201526020016125e7565b50505050905090810190601f16801561262c5780820380516001836020036101000a031916815260200191505b50848103835287518152875160209182019189019080838360005b8381101561265f578181015183820152602001612647565b50505050905090810190601f16801561268c5780820380516001836020036101000a031916815260200191505b50848103825286518152865160209182019188019080838360005b838110156126bf5781810151838201526020016126a7565b50505050905090810190601f1680156126ec5780820380516001836020036101000a031916815260200191505b50995050505050505050505060405180910390a15b505050505050505050565b60006127166133fe565b600083815260016020818152604092839020835161010080820186528254825282850154600160a060020a0390811683860152600280850154909116838801526003840180548851978116159093026000190190921604601f81018590048502860185019096528585529094919360608601939092908301828280156127dd5780601f106127b2576101008083540402835291602001916127dd565b820191906000526020600020905b8154815290600101906020018083116127c057829003601f168201915b505050918352505060048201805460408051602060026001851615610100026000190190941693909304601f81018490048402820184019092528181529382019392918301828280156128715780601f1061284657610100808354040283529160200191612871565b820191906000526020600020905b81548152906001019060200180831161285457829003601f168201915b505050918352505060058201805460408051602060026001851615610100026000190190941693909304601f81018490048402820184019092528181529382019392918301828280156129055780601f106128da57610100808354040283529160200191612905565b820191906000526020600020905b8154815290600101906020018083116128e857829003601f168201915b5050509183525050600682015460208083019190915260079092015460ff161515604090910152810151909150600160a060020a0316151561294a57600091506110b9565b60e0015192915050565b60016020818152600092835260409283902080548184015460028084015460038501805489516101009982161599909902600019011692909204601f81018790048702880187019098528787529296600160a060020a0392831696929093169491929091830182828015612a095780601f106129de57610100808354040283529160200191612a09565b820191906000526020600020905b8154815290600101906020018083116129ec57829003601f168201915b5050505060048301805460408051602060026001851615610100026000190190941693909304601f8101849004840282018401909252818152949594935090830182828015612a995780601f10612a6e57610100808354040283529160200191612a99565b820191906000526020600020905b815481529060010190602001808311612a7c57829003601f168201915b5050505060058301805460408051602060026001851615610100026000190190941693909304601f8101849004840282018401909252818152949594935090830182828015612b295780601f10612afe57610100808354040283529160200191612b29565b820191906000526020600020905b815481529060010190602001808311612b0c57829003601f168201915b50505050600683015460079093015491929160ff16905088565b600081815260016020819052604090912090810154600160a060020a03161515612b6c57612142565b6001810154600160a060020a03163314612bbe576040805160e560020a62461bcd0281526020600482018190526024820152600080516020613531833981519152604482015290519081900360640190fd5b60078101805460ff1916600190811790915560068201546040805185815233602082018190526080820184905260a0928201838152600387018054600260001998821615610100029890980116969096049383018490527f5d095dcaf5e2fe5894fd51fdc2e637dd6095cb9b9b3c20d178cecc053a7a8c4e958895929490936004890193929091606083019060c084019087908015612c9e5780601f10612c7357610100808354040283529160200191612c9e565b820191906000526020600020905b815481529060010190602001808311612c8157829003601f168201915b5050838103825285546002600019610100600184161502019091160480825260209091019086908015612d125780601f10612ce757610100808354040283529160200191612d12565b820191906000526020600020905b815481529060010190602001808311612cf557829003601f168201915b505097505050505050505060405180910390a15050565b6000612d336133fe565b600083815260016020818152604092839020835161010080820186528254825282850154600160a060020a0390811683860152600280850154909116838801526003840180548851978116159093026000190190921604601f8101859004850286018501909652858552909491936060860193909290830182828015612dfa5780601f10612dcf57610100808354040283529160200191612dfa565b820191906000526020600020905b815481529060010190602001808311612ddd57829003601f168201915b505050918352505060048201805460408051602060026001851615610100026000190190941693909304601f8101849004840282018401909252818152938201939291830182828015612e8e5780601f10612e6357610100808354040283529160200191612e8e565b820191906000526020600020905b815481529060010190602001808311612e7157829003601f168201915b505050918352505060058201805460408051602060026001851615610100026000190190941693909304601f8101849004840282018401909252818152938201939291830182828015612f225780601f10612ef757610100808354040283529160200191612f22565b820191906000526020600020905b815481529060010190602001808311612f0557829003601f168201915b5050509183525050600682015460208083019190915260079092015460ff161515604090910152810151909150600160a060020a03161515612f6757600091506110b9565b60c0015192915050565b6000806060806060600080612f846133fe565b600089815260016020818152604092839020835161010080820186528254825282850154600160a060020a0390811683860152600280850154909116838801526003840180548851978116159093026000190190921604601f810185900485028601850190965285855290949193606086019390929083018282801561304b5780601f106130205761010080835404028352916020019161304b565b820191906000526020600020905b81548152906001019060200180831161302e57829003601f168201915b505050918352505060048201805460408051602060026001851615610100026000190190941693909304601f81018490048402820184019092528181529382019392918301828280156130df5780601f106130b4576101008083540402835291602001916130df565b820191906000526020600020905b8154815290600101906020018083116130c257829003601f168201915b505050918352505060058201805460408051602060026001851615610100026000190190941693909304601f81018490048402820184019092528181529382019392918301828280156131735780601f1061314857610100808354040283529160200191613173565b820191906000526020600020905b81548152906001019060200180831161315657829003601f168201915b5050509183525050600682015460208083019190915260079092015460ff161515604090910152810151909150600160a060020a031615156131ec57604080516020818101835260008083528351808301855281815284519283019094528082529a508a99509097509095509350869250829150613221565b602081015160408201516060830151608084015160a085015160c086015160e0870151959d50939b5091995097509550935091505b50919395979092949650565b600081815260016020819052604090912090810154600160a060020a0316151561325657612142565b6001810154600160a060020a031633146132a8576040805160e560020a62461bcd0281526020600482018190526024820152600080516020613531833981519152604482015290519081900360640190fd5b600082815260016020819052604082208281559081018054600160a060020a03199081169091556002820180549091169055906132e860038301826134d6565b6132f66004830160006134d6565b6133046005830160006134d6565b5060006006820155600701805460ff19169055604080513381526020810184905281517f3406221f53114f44c9a1bb93d08ee55735f39bf235a54741684a52501207bb54929181900390910190a15050565b61335e611d42565b151561336957600080fd5b6133728161338e565b50565b60008282018381101561338757600080fd5b9392505050565b600160a060020a03811615156133a357600080fd5b60008054604051600160a060020a03808516939216917f8be0079c531659141344cd1fd0a4f28419497f9722a3daafe3b4186f6b6457e091a360008054600160a060020a031916600160a060020a0392909216919091179055565b61010060405190810160405280600081526020016000600160a060020a031681526020016000600160a060020a03168152602001606081526020016060815260200160608152602001600081526020016000151581525090565b828054600181600116156101000203166002900490600052602060002090601f016020900481019282601f1061349957805160ff19168380011785556134c6565b828001600101855582156134c6579182015b828111156134c65782518255916020019190600101906134ab565b506134d2929150613516565b5090565b50805460018160011615610100020316600290046000825580601f106134fc5750613372565b601f01602090049060005260206000209081019061337291905b611d3f91905b808211156134d2576000815560010161351c5600416374696f6e20616c6c6f776564206f6e6c7920746f20746865206f776e6572a165627a7a72305820547402a42ee05e9ee837a990df23d2413fe9211273b2b540b2adac2863de4d880029",
  "source": "pragma solidity ^0.4.25;\n\nimport 'openzeppelin-solidity/contracts/ownership/Ownable.sol';\nimport 'openzeppelin-solidity/contracts/math/SafeMath.sol';\n\ncontract AssetContract is Ownable {\n\n    //\n    // OpenZeppeling specifics\n    //\n    using SafeMath for uint256;\n\n    //\n    // state variables\n    //\n\n    // description of an asset item\n    struct AssetItem {\n        uint256 id;                // id in the list\n        address owner;          // asset's owner\n        address candidate;      // candidate owner\n        string name;\n        string description;\n        string hashKey;         // hashkey of the asset stored in IPFS\n        uint256 price;          // price in Wei\n        bool available;         // true if the asset can be sold in the marketplace\n    }\n\n    // List of asset\n    mapping(uint256 => AssetItem) public assets;\n\n    // Balance of deposits\n    mapping(uint256 => uint256) public depositsBalance;\n\n    // number of assets\n    uint256 assetCounter;\n\n\n    //\n    // Events\n    //\n    event NewAsset(uint256 _assetId, address _owner, string _name, string _description, string _hashKey, uint256 _price);\n    event UpdateAsset(uint256 _assetId, address _owner, string _name, string _description, string _hashKey, uint256 _price);\n    event AssetRemoved(address _owner, uint _assetId);\n    event SetMarketplace(uint256 _assetId, address _owner, string _name, string _description, uint256 _price);\n    event UnsetMarketplace(uint256 _assetId, address _owner, address _candidate, string _name, string _description, uint256 _price);\n    event Deposit(uint256 _assetId, address _owner, address _candidate, uint256 _price);\n    event Purchase(uint256 _assetId, address _formerOwner, address _newOwner, uint256 _price);\n    event Refund(uint256 _assetId, address _owner, address _candidate, uint256 _price);\n\n    //\n    // Implementation\n    //\n\n    // add a new asset\n    function addAsset(string _name, string _description, string _hashKey, uint256 _price) public {\n        // a name is required\n        bytes memory name = bytes(_name);\n        require(name.length > 0, \"A name is required\");\n\n        // a description is required\n        bytes memory description = bytes(_description);\n        require(description.length > 0, \"A description is required\");\n\n        // an IPFS hash key is required\n        bytes memory hashKey = bytes(_hashKey);\n        require(hashKey.length > 0, \"A hash key from IPFS is required\");\n\n        // new asset\n        assetCounter = assetCounter.add(1);\n\n        // store the new asset\n        assets[assetCounter] = AssetItem(assetCounter, msg.sender, 0x0, _name, _description, _hashKey, _price, false);\n\n        emit NewAsset(assetCounter, msg.sender, _name, _description, _hashKey, _price);\n    }\n\n    // update an existing asset\n    // only possible for the asset's owner\n    function updateAsset(uint256 _assetId, string _name, string _description, string _hashKey, uint256 _price) public {\n        AssetItem storage asset = assets[_assetId];\n\n        // is this asset exists?\n        if (asset.owner == 0x0) {\n            return;\n        }\n\n        // only the asset's owner is allowed to update this asset\n        require(msg.sender == asset.owner, \"Action allowed only to the owner\");\n\n        // a name is required\n        bytes memory name = bytes(_name);\n        require(name.length > 0, \"A name is required\");\n\n        // a description is required\n        bytes memory description = bytes(_description);\n        require(description.length > 0, \"A description is required\");\n\n        // an IPFS hash key is required\n        bytes memory hashKey = bytes(_hashKey);\n        require(hashKey.length > 0, \"A hash key from IPFS is required\");\n\n        // update the asset\n        asset.name = _name;\n        asset.description = _description;\n        asset.hashKey = _hashKey;\n        asset.price = _price;\n\n        emit UpdateAsset(_assetId, msg.sender, _name, _description, _hashKey, _price);\n    }\n\n    // make the asset available in the marketplace\n    // only possible for the asset's owner\n    function setMarketplace(uint256 _assetId) public {\n        AssetItem storage asset = assets[_assetId];\n\n        // is this asset exists?\n        if (asset.owner == 0x0) {\n            return;\n        }\n\n        // only the asset's owner is allowed to update this asset\n        require(msg.sender == asset.owner, \"Action allowed only to the owner\");\n\n        // update the availability of the asset in the marketplace\n        asset.available = true;\n\n        emit SetMarketplace(_assetId, msg.sender, asset.name, asset.description, asset.price);\n    }\n\n    // remove the asset from the marketplace and refund the candidate buyer\n    // only possible for the asset's owner\n    function unsetMarketplace(uint256 _assetId) public {\n        AssetItem storage asset = assets[_assetId];\n\n        // is this asset exists?\n        if (asset.owner == 0x0) {\n            return;\n        }\n\n        // only the asset's owner is allowed to update this asset\n        require(msg.sender == asset.owner, \"Action allowed only to the owner\");\n\n        // update the availability of the asset in the marketplace\n        asset.available = false;\n\n        if (asset.candidate != 0x0) {\n            // we need to refund by sending back the deposit to the candidate\n\n            // keep the former owner and the price paid by the purchase\n            address _candidate = asset.candidate;\n            uint256 _price = depositsBalance[_assetId];\n\n            // move the asset to the buyer and reset its state\n            asset.candidate = 0x0;\n            delete depositsBalance[_assetId];\n\n            // TODO: if the price is equal to zero, avoid the call to transfer\n\n            // transfer the amount to the former owner\n            _candidate.transfer(_price);\n\n            emit Refund(_assetId, asset.owner, msg.sender, _price);\n        } else {\n            emit UnsetMarketplace(_assetId, msg.sender, asset.candidate, asset.name, asset.description, asset.price);\n\n        }\n    }\n\n    // a candidate buyer deposit the price for the purchase\n    // the amount is secured in the contract's balance until the amount is released (sale concluded or refunded)\n    function deposit(uint256 _assetId) public payable {\n        AssetItem storage asset = assets[_assetId];\n\n        // is this asset exists?\n        if (asset.owner == 0x0) {\n            return;\n        }\n\n        // ensure that the asset is not already reserved\n        require(asset.candidate == 0x0, \"Asset already reserved to another candidate\");\n\n        // ensure that the asset is not already reserved to another candidate buyer\n        require(msg.sender != asset.owner, \"Deposit not allowed for the owner of the asset\");\n\n        // the value to deposit must be equal to price of the asset\n        require(msg.value == asset.price, \"Price are not the same as expected\");\n\n        // keep track of the deposit\n        depositsBalance[_assetId] = msg.value;\n\n        // store the address of the purchaser\n        asset.candidate = msg.sender;\n\n        emit Deposit(_assetId, asset.owner, msg.sender, asset.price);\n    }\n\n    // let the candidate buyer to become the new owner of the asset by executing the purchase\n    function purchaseAsset(uint256 _assetId) public {\n        AssetItem storage asset = assets[_assetId];\n\n        // is this asset exists?\n        if (asset.owner == 0x0) {\n            return;\n        }\n\n        // ensure that the buyer is the identified candidate\n        require(msg.sender == asset.candidate, \"Asset already reserved to another candidate\");\n\n        // keep the former owner and the price paid by the purchase\n        address _owner = asset.owner;\n        uint256 _price = depositsBalance[_assetId];\n\n        // move the asset to the buyer and reset its state\n        asset.owner = msg.sender;\n        asset.candidate = 0x0;\n        asset.price = 0;\n        asset.available = false;\n        delete depositsBalance[_assetId];\n\n        // transfer the amount to the former owner\n        _owner.transfer(_price);\n\n        emit Purchase(_assetId, asset.owner, msg.sender, _price);\n    }\n\n    // let the candidate buyer or the asset owner to cancel the purchase and refunding the candidate\n    function refundPurchase(uint256 _assetId) public {\n        AssetItem storage asset = assets[_assetId];\n\n        // is this asset exists?\n        if (asset.owner == 0x0) {\n            return;\n        }\n\n        // the sender must be the owner or the candidate\n        if ((msg.sender == asset.owner) || (msg.sender == asset.candidate)) {\n            // keep the former owner and the price paid by the purchase\n            address _candidate = asset.candidate;\n            uint256 _price = depositsBalance[_assetId];\n\n            // move the asset to the buyer and reset its state\n            asset.candidate = 0x0;\n            delete depositsBalance[_assetId];\n\n            if (_price != 0) {\n                // transfer back the amount to the candidate\n                _candidate.transfer(_price);\n            }\n\n            emit Refund(_assetId, asset.owner, msg.sender, _price);\n        } else {\n            require(false, \"Refund not authorised for this account\");\n        }\n    }\n\n    // remove an asset\n    function removeAsset(uint _assetId) public {\n        AssetItem storage asset = assets[_assetId];\n\n        // is this asset exists?\n        if (asset.owner == 0x0) {\n            return;\n        }\n\n        // only the asset's owner is allowed to remove this asset\n        require(msg.sender == asset.owner, \"Action allowed only to the owner\");\n\n        // remove the asset\n        delete assets[_assetId];\n\n        emit AssetRemoved(msg.sender, _assetId);\n    }\n\n    // return asset IDs owned by the function's caller\n    function getMyAssets() view public returns (uint[]) {\n        if (assetCounter == 0) {\n            return new uint[](0);\n        }\n\n        // prepare output array\n        uint256[] memory assetIDs = new uint[](assetCounter);\n\n        // iterate over assets\n        uint256 numberOfAssets = 0;\n        for (uint i = 1; i <= assetCounter; i++) {\n            // keep the ID of the asset owned by the sender\n            if (assets[i].owner == msg.sender) {\n                assetIDs[numberOfAssets] = assets[i].id;\n\n                numberOfAssets = numberOfAssets.add(1);\n            }\n        }\n\n        // copy the asset ID array into a smaller array\n        uint256[] memory myAsset = new uint[](numberOfAssets);\n        for (uint j = 0; j < numberOfAssets; j++) {\n            myAsset[j] = assetIDs[j];\n        }\n\n        return myAsset;\n    }\n\n    // return asset IDs published in the marketplace\n    function getMarketplace() view public returns (uint[]) {\n        if (assetCounter == 0) {\n            return new uint[](0);\n        }\n\n        // prepare output array\n        uint256[] memory assetIDs = new uint[](assetCounter);\n\n        // iterate over assets\n        uint256 numberOfAssets = 0;\n        for (uint i = 1; i <= assetCounter; i++) {\n            // keep the ID of the asset published in the marketplace\n            if (assets[i].available) {\n                assetIDs[numberOfAssets] = assets[i].id;\n\n                numberOfAssets = numberOfAssets.add(1);\n            }\n        }\n\n        // copy the asset ID array into a smaller array\n        uint256[] memory myAsset = new uint[](numberOfAssets);\n        for (uint j = 0; j < numberOfAssets; j++) {\n            myAsset[j] = assetIDs[j];\n        }\n\n        return myAsset;\n    }\n\n    // Retrieve an asset based on its ID\n    function getAsset(uint _assetId) view public returns (\n        address _owner,\n        address _candidate,\n        string _name,\n        string _description,\n        string _hashKey,\n        uint256 _price,\n        bool _available) {\n\n        AssetItem memory asset = assets[_assetId];\n\n        // ensure that we have an asset to fetch\n        if (asset.owner == 0x0) {\n            return (0x0, 0x0, \"\", \"\", \"\", 0, false);\n        }\n\n        return (\n            asset.owner,\n            asset.candidate,\n            asset.name,\n            asset.description,\n            asset.hashKey,\n            asset.price,\n            asset.available);\n    }\n\n\n\n    function getOwner(uint _assetId) view public returns (address) {\n        AssetItem memory asset = assets[_assetId];\n\n        // ensure that we have an asset to fetch\n        if (asset.owner == 0x0) {\n            return (0x0);\n        }\n\n\n        return asset.owner;\n    }\n\n    function getCandidate(uint _assetId) view public returns (address) {\n        AssetItem memory asset = assets[_assetId];\n\n        // ensure that we have an asset to fetch\n        if (asset.owner == 0x0) {\n            return (0x0);\n        }\n\n\n        return asset.candidate;\n    }\n\n\n    function getName(uint _assetId) view public returns (string) {\n        AssetItem memory asset = assets[_assetId];\n\n        // ensure that we have an asset to fetch\n        if (asset.owner == 0x0) {\n            return (\"\");\n        }\n\n\n        return asset.name;\n    }\n\n    function getDescription(uint _assetId) view public returns (string) {\n        AssetItem memory asset = assets[_assetId];\n\n        // ensure that we have an asset to fetch\n        if (asset.owner == 0x0) {\n            return (\"\");\n        }\n\n\n        return asset.description;\n    }\n\n    function getHashKey(uint _assetId) view public returns (string) {\n        AssetItem memory asset = assets[_assetId];\n\n        // ensure that we have an asset to fetch\n        if (asset.owner == 0x0) {\n            return (\"\");\n        }\n\n\n        return asset.hashKey;\n    }\n\n    function getPrice(uint _assetId) view public returns (uint256) {\n        AssetItem memory asset = assets[_assetId];\n\n        // ensure that we have an asset to fetch\n        if (asset.owner == 0x0) {\n            return (0);\n        }\n\n\n        return asset.price;\n    }\n\n    function getAvailability(uint _assetId) view public returns (bool) {\n        AssetItem memory asset = assets[_assetId];\n\n        // ensure that we have an asset to fetch\n        if (asset.owner == 0x0) {\n            return (false);\n        }\n\n\n        return asset.available;\n    }\n}",
  "sourcePath": "/Users/eloudsa/ChainSkills/projects/depositum/contracts/AssetContract.sol",
  "compiler": {
    "name": "solc",
    "version": "0.4.25+commit.59dbf8f1.Emscripten.clang"
  },
  "schemaVersion": "3.0.0-beta.1",
  "updatedAt": "2018-11-13T11:19:08.399Z"
}