{
  "contractName": "AssetContract",
  "abi": [
    {
      "constant": true,
      "inputs": [],
      "name": "name",
      "outputs": [
        {
          "name": "",
          "type": "string"
        }
      ],
      "payable": false,
      "stateMutability": "view",
      "type": "function",
      "signature": "0x06fdde03"
    },
    {
      "constant": false,
      "inputs": [
        {
          "name": "spender",
          "type": "address"
        },
        {
          "name": "value",
          "type": "uint256"
        }
      ],
      "name": "approve",
      "outputs": [
        {
          "name": "",
          "type": "bool"
        }
      ],
      "payable": false,
      "stateMutability": "nonpayable",
      "type": "function",
      "signature": "0x095ea7b3"
    },
    {
      "constant": true,
      "inputs": [],
      "name": "totalSupply",
      "outputs": [
        {
          "name": "",
          "type": "uint256"
        }
      ],
      "payable": false,
      "stateMutability": "view",
      "type": "function",
      "signature": "0x18160ddd"
    },
    {
      "constant": false,
      "inputs": [
        {
          "name": "from",
          "type": "address"
        },
        {
          "name": "to",
          "type": "address"
        },
        {
          "name": "value",
          "type": "uint256"
        }
      ],
      "name": "transferFrom",
      "outputs": [
        {
          "name": "",
          "type": "bool"
        }
      ],
      "payable": false,
      "stateMutability": "nonpayable",
      "type": "function",
      "signature": "0x23b872dd"
    },
    {
      "constant": true,
      "inputs": [],
      "name": "rate",
      "outputs": [
        {
          "name": "",
          "type": "uint256"
        }
      ],
      "payable": false,
      "stateMutability": "view",
      "type": "function",
      "signature": "0x2c4e722e"
    },
    {
      "constant": true,
      "inputs": [],
      "name": "decimals",
      "outputs": [
        {
          "name": "",
          "type": "uint8"
        }
      ],
      "payable": false,
      "stateMutability": "view",
      "type": "function",
      "signature": "0x313ce567"
    },
    {
      "constant": false,
      "inputs": [
        {
          "name": "_newRate",
          "type": "uint256"
        }
      ],
      "name": "setRate",
      "outputs": [],
      "payable": false,
      "stateMutability": "nonpayable",
      "type": "function",
      "signature": "0x34fcf437"
    },
    {
      "constant": false,
      "inputs": [
        {
          "name": "spender",
          "type": "address"
        },
        {
          "name": "addedValue",
          "type": "uint256"
        }
      ],
      "name": "increaseAllowance",
      "outputs": [
        {
          "name": "",
          "type": "bool"
        }
      ],
      "payable": false,
      "stateMutability": "nonpayable",
      "type": "function",
      "signature": "0x39509351"
    },
    {
      "constant": false,
      "inputs": [
        {
          "name": "to",
          "type": "address"
        },
        {
          "name": "value",
          "type": "uint256"
        }
      ],
      "name": "mint",
      "outputs": [
        {
          "name": "",
          "type": "bool"
        }
      ],
      "payable": false,
      "stateMutability": "nonpayable",
      "type": "function",
      "signature": "0x40c10f19"
    },
    {
      "constant": true,
      "inputs": [],
      "name": "getRate",
      "outputs": [
        {
          "name": "_rate",
          "type": "uint256"
        }
      ],
      "payable": false,
      "stateMutability": "view",
      "type": "function",
      "signature": "0x679aefce"
    },
    {
      "constant": true,
      "inputs": [
        {
          "name": "owner",
          "type": "address"
        }
      ],
      "name": "balanceOf",
      "outputs": [
        {
          "name": "",
          "type": "uint256"
        }
      ],
      "payable": false,
      "stateMutability": "view",
      "type": "function",
      "signature": "0x70a08231"
    },
    {
      "constant": false,
      "inputs": [],
      "name": "renounceOwnership",
      "outputs": [],
      "payable": false,
      "stateMutability": "nonpayable",
      "type": "function",
      "signature": "0x715018a6"
    },
    {
      "constant": true,
      "inputs": [],
      "name": "owner",
      "outputs": [
        {
          "name": "",
          "type": "address"
        }
      ],
      "payable": false,
      "stateMutability": "view",
      "type": "function",
      "signature": "0x8da5cb5b"
    },
    {
      "constant": true,
      "inputs": [],
      "name": "isOwner",
      "outputs": [
        {
          "name": "",
          "type": "bool"
        }
      ],
      "payable": false,
      "stateMutability": "view",
      "type": "function",
      "signature": "0x8f32d59b"
    },
    {
      "constant": true,
      "inputs": [],
      "name": "symbol",
      "outputs": [
        {
          "name": "",
          "type": "string"
        }
      ],
      "payable": false,
      "stateMutability": "view",
      "type": "function",
      "signature": "0x95d89b41"
    },
    {
      "constant": true,
      "inputs": [
        {
          "name": "",
          "type": "uint256"
        }
      ],
      "name": "depositsBalance",
      "outputs": [
        {
          "name": "",
          "type": "uint256"
        }
      ],
      "payable": false,
      "stateMutability": "view",
      "type": "function",
      "signature": "0x981b5804"
    },
    {
      "constant": false,
      "inputs": [
        {
          "name": "account",
          "type": "address"
        }
      ],
      "name": "addMinter",
      "outputs": [],
      "payable": false,
      "stateMutability": "nonpayable",
      "type": "function",
      "signature": "0x983b2d56"
    },
    {
      "constant": false,
      "inputs": [],
      "name": "renounceMinter",
      "outputs": [],
      "payable": false,
      "stateMutability": "nonpayable",
      "type": "function",
      "signature": "0x98650275"
    },
    {
      "constant": false,
      "inputs": [
        {
          "name": "_tokens",
          "type": "uint256"
        }
      ],
      "name": "mint",
      "outputs": [],
      "payable": false,
      "stateMutability": "nonpayable",
      "type": "function",
      "signature": "0xa0712d68"
    },
    {
      "constant": false,
      "inputs": [
        {
          "name": "spender",
          "type": "address"
        },
        {
          "name": "subtractedValue",
          "type": "uint256"
        }
      ],
      "name": "decreaseAllowance",
      "outputs": [
        {
          "name": "",
          "type": "bool"
        }
      ],
      "payable": false,
      "stateMutability": "nonpayable",
      "type": "function",
      "signature": "0xa457c2d7"
    },
    {
      "constant": false,
      "inputs": [
        {
          "name": "to",
          "type": "address"
        },
        {
          "name": "value",
          "type": "uint256"
        }
      ],
      "name": "transfer",
      "outputs": [
        {
          "name": "",
          "type": "bool"
        }
      ],
      "payable": false,
      "stateMutability": "nonpayable",
      "type": "function",
      "signature": "0xa9059cbb"
    },
    {
      "constant": true,
      "inputs": [
        {
          "name": "account",
          "type": "address"
        }
      ],
      "name": "isMinter",
      "outputs": [
        {
          "name": "",
          "type": "bool"
        }
      ],
      "payable": false,
      "stateMutability": "view",
      "type": "function",
      "signature": "0xaa271e1a"
    },
    {
      "constant": true,
      "inputs": [
        {
          "name": "",
          "type": "uint256"
        }
      ],
      "name": "assets",
      "outputs": [
        {
          "name": "id",
          "type": "uint256"
        },
        {
          "name": "owner",
          "type": "address"
        },
        {
          "name": "candidate",
          "type": "address"
        },
        {
          "name": "name",
          "type": "string"
        },
        {
          "name": "description",
          "type": "string"
        },
        {
          "name": "hashKey",
          "type": "string"
        },
        {
          "name": "price",
          "type": "uint256"
        },
        {
          "name": "available",
          "type": "bool"
        }
      ],
      "payable": false,
      "stateMutability": "view",
      "type": "function",
      "signature": "0xcf35bdd0"
    },
    {
      "constant": false,
      "inputs": [],
      "name": "buyTokens",
      "outputs": [],
      "payable": true,
      "stateMutability": "payable",
      "type": "function",
      "signature": "0xd0febe4c"
    },
    {
      "constant": true,
      "inputs": [],
      "name": "getBalanceOfOwner",
      "outputs": [
        {
          "name": "_balanceOwner",
          "type": "uint256"
        }
      ],
      "payable": false,
      "stateMutability": "view",
      "type": "function",
      "signature": "0xd8c24541"
    },
    {
      "constant": true,
      "inputs": [
        {
          "name": "owner",
          "type": "address"
        },
        {
          "name": "spender",
          "type": "address"
        }
      ],
      "name": "allowance",
      "outputs": [
        {
          "name": "",
          "type": "uint256"
        }
      ],
      "payable": false,
      "stateMutability": "view",
      "type": "function",
      "signature": "0xdd62ed3e"
    },
    {
      "constant": false,
      "inputs": [
        {
          "name": "newOwner",
          "type": "address"
        }
      ],
      "name": "transferOwnership",
      "outputs": [],
      "payable": false,
      "stateMutability": "nonpayable",
      "type": "function",
      "signature": "0xf2fde38b"
    },
    {
      "inputs": [
        {
          "name": "_rate",
          "type": "uint256"
        },
        {
          "name": "_tokens",
          "type": "uint256"
        }
      ],
      "payable": false,
      "stateMutability": "nonpayable",
      "type": "constructor",
      "signature": "constructor"
    },
    {
      "anonymous": false,
      "inputs": [
        {
          "indexed": false,
          "name": "_assetId",
          "type": "uint256"
        },
        {
          "indexed": false,
          "name": "_owner",
          "type": "address"
        },
        {
          "indexed": false,
          "name": "_name",
          "type": "string"
        },
        {
          "indexed": false,
          "name": "_description",
          "type": "string"
        },
        {
          "indexed": false,
          "name": "_hashKey",
          "type": "string"
        },
        {
          "indexed": false,
          "name": "_price",
          "type": "uint256"
        }
      ],
      "name": "NewAsset",
      "type": "event",
      "signature": "0x4efe84f42f5dc8e26465778176a705ad3410cf364c7671cb60cfc8e1f5fe7f3a"
    },
    {
      "anonymous": false,
      "inputs": [
        {
          "indexed": false,
          "name": "_assetId",
          "type": "uint256"
        },
        {
          "indexed": false,
          "name": "_owner",
          "type": "address"
        },
        {
          "indexed": false,
          "name": "_name",
          "type": "string"
        },
        {
          "indexed": false,
          "name": "_description",
          "type": "string"
        },
        {
          "indexed": false,
          "name": "_hashKey",
          "type": "string"
        },
        {
          "indexed": false,
          "name": "_price",
          "type": "uint256"
        }
      ],
      "name": "UpdateAsset",
      "type": "event",
      "signature": "0x5b06687e2faf130980555e1015a965e09459b7d538a348953f70a14109db3a42"
    },
    {
      "anonymous": false,
      "inputs": [
        {
          "indexed": false,
          "name": "_owner",
          "type": "address"
        },
        {
          "indexed": false,
          "name": "_assetId",
          "type": "uint256"
        }
      ],
      "name": "AssetRemoved",
      "type": "event",
      "signature": "0x3406221f53114f44c9a1bb93d08ee55735f39bf235a54741684a52501207bb54"
    },
    {
      "anonymous": false,
      "inputs": [
        {
          "indexed": false,
          "name": "_assetId",
          "type": "uint256"
        },
        {
          "indexed": false,
          "name": "_owner",
          "type": "address"
        },
        {
          "indexed": false,
          "name": "_name",
          "type": "string"
        },
        {
          "indexed": false,
          "name": "_description",
          "type": "string"
        },
        {
          "indexed": false,
          "name": "_price",
          "type": "uint256"
        }
      ],
      "name": "SetMarketplace",
      "type": "event",
      "signature": "0x5d095dcaf5e2fe5894fd51fdc2e637dd6095cb9b9b3c20d178cecc053a7a8c4e"
    },
    {
      "anonymous": false,
      "inputs": [
        {
          "indexed": false,
          "name": "_assetId",
          "type": "uint256"
        },
        {
          "indexed": false,
          "name": "_owner",
          "type": "address"
        },
        {
          "indexed": false,
          "name": "_candidate",
          "type": "address"
        },
        {
          "indexed": false,
          "name": "_name",
          "type": "string"
        },
        {
          "indexed": false,
          "name": "_description",
          "type": "string"
        },
        {
          "indexed": false,
          "name": "_price",
          "type": "uint256"
        }
      ],
      "name": "UnsetMarketplace",
      "type": "event",
      "signature": "0x93759953971d9dce99ec5e86ee853a8b7d7b7fdbc7c34ead5e76872c4d3eaf20"
    },
    {
      "anonymous": false,
      "inputs": [
        {
          "indexed": false,
          "name": "_assetId",
          "type": "uint256"
        },
        {
          "indexed": false,
          "name": "_owner",
          "type": "address"
        },
        {
          "indexed": false,
          "name": "_candidate",
          "type": "address"
        },
        {
          "indexed": false,
          "name": "_price",
          "type": "uint256"
        }
      ],
      "name": "Deposit",
      "type": "event",
      "signature": "0x2c0f148b435140de488c1b34647f1511c646f7077e87007bacf22ef9977a16d8"
    },
    {
      "anonymous": false,
      "inputs": [
        {
          "indexed": false,
          "name": "_assetId",
          "type": "uint256"
        },
        {
          "indexed": false,
          "name": "_formerOwner",
          "type": "address"
        },
        {
          "indexed": false,
          "name": "_newOwner",
          "type": "address"
        },
        {
          "indexed": false,
          "name": "_price",
          "type": "uint256"
        }
      ],
      "name": "Purchase",
      "type": "event",
      "signature": "0xe3cf0e0098f447c6d9bc08ffbbf3f193d35c51b57d7de6bb9ccb79f4995ccf71"
    },
    {
      "anonymous": false,
      "inputs": [
        {
          "indexed": false,
          "name": "_assetId",
          "type": "uint256"
        },
        {
          "indexed": false,
          "name": "_owner",
          "type": "address"
        },
        {
          "indexed": false,
          "name": "_candidate",
          "type": "address"
        },
        {
          "indexed": false,
          "name": "_price",
          "type": "uint256"
        }
      ],
      "name": "Refund",
      "type": "event",
      "signature": "0xae4600bc3786dafd4f3459692821fe209dcde1a5283d33f0675340813bc4ad48"
    },
    {
      "anonymous": false,
      "inputs": [
        {
          "indexed": true,
          "name": "account",
          "type": "address"
        }
      ],
      "name": "MinterAdded",
      "type": "event",
      "signature": "0x6ae172837ea30b801fbfcdd4108aa1d5bf8ff775444fd70256b44e6bf3dfc3f6"
    },
    {
      "anonymous": false,
      "inputs": [
        {
          "indexed": true,
          "name": "account",
          "type": "address"
        }
      ],
      "name": "MinterRemoved",
      "type": "event",
      "signature": "0xe94479a9f7e1952cc78f2d6baab678adc1b772d936c6583def489e524cb66692"
    },
    {
      "anonymous": false,
      "inputs": [
        {
          "indexed": true,
          "name": "from",
          "type": "address"
        },
        {
          "indexed": true,
          "name": "to",
          "type": "address"
        },
        {
          "indexed": false,
          "name": "value",
          "type": "uint256"
        }
      ],
      "name": "Transfer",
      "type": "event",
      "signature": "0xddf252ad1be2c89b69c2b068fc378daa952ba7f163c4a11628f55a4df523b3ef"
    },
    {
      "anonymous": false,
      "inputs": [
        {
          "indexed": true,
          "name": "owner",
          "type": "address"
        },
        {
          "indexed": true,
          "name": "spender",
          "type": "address"
        },
        {
          "indexed": false,
          "name": "value",
          "type": "uint256"
        }
      ],
      "name": "Approval",
      "type": "event",
      "signature": "0x8c5be1e5ebec7d5bd14f71427d1e84f3dd0314c0f7b2291e5b200ac8c7c3b925"
    },
    {
      "anonymous": false,
      "inputs": [
        {
          "indexed": true,
          "name": "previousOwner",
          "type": "address"
        },
        {
          "indexed": true,
          "name": "newOwner",
          "type": "address"
        }
      ],
      "name": "OwnershipTransferred",
      "type": "event",
      "signature": "0x8be0079c531659141344cd1fd0a4f28419497f9722a3daafe3b4186f6b6457e0"
    },
    {
      "constant": false,
      "inputs": [
        {
          "name": "_name",
          "type": "string"
        },
        {
          "name": "_description",
          "type": "string"
        },
        {
          "name": "_hashKey",
          "type": "string"
        },
        {
          "name": "_price",
          "type": "uint256"
        }
      ],
      "name": "addAsset",
      "outputs": [],
      "payable": false,
      "stateMutability": "nonpayable",
      "type": "function",
      "signature": "0x82e3759d"
    },
    {
      "constant": false,
      "inputs": [
        {
          "name": "_assetId",
          "type": "uint256"
        },
        {
          "name": "_name",
          "type": "string"
        },
        {
          "name": "_description",
          "type": "string"
        },
        {
          "name": "_hashKey",
          "type": "string"
        },
        {
          "name": "_price",
          "type": "uint256"
        }
      ],
      "name": "updateAsset",
      "outputs": [],
      "payable": false,
      "stateMutability": "nonpayable",
      "type": "function",
      "signature": "0xc687857c"
    },
    {
      "constant": false,
      "inputs": [
        {
          "name": "_assetId",
          "type": "uint256"
        }
      ],
      "name": "setMarketplace",
      "outputs": [],
      "payable": false,
      "stateMutability": "nonpayable",
      "type": "function",
      "signature": "0xe70bdacf"
    },
    {
      "constant": false,
      "inputs": [
        {
          "name": "_assetId",
          "type": "uint256"
        }
      ],
      "name": "unsetMarketplace",
      "outputs": [],
      "payable": false,
      "stateMutability": "nonpayable",
      "type": "function",
      "signature": "0x229c11a6"
    },
    {
      "constant": false,
      "inputs": [
        {
          "name": "_assetId",
          "type": "uint256"
        }
      ],
      "name": "deposit",
      "outputs": [],
      "payable": true,
      "stateMutability": "payable",
      "type": "function",
      "signature": "0xb6b55f25"
    },
    {
      "constant": false,
      "inputs": [
        {
          "name": "_assetId",
          "type": "uint256"
        }
      ],
      "name": "purchaseAsset",
      "outputs": [],
      "payable": false,
      "stateMutability": "nonpayable",
      "type": "function",
      "signature": "0xa457e1c0"
    },
    {
      "constant": false,
      "inputs": [
        {
          "name": "_assetId",
          "type": "uint256"
        }
      ],
      "name": "refundPurchase",
      "outputs": [],
      "payable": false,
      "stateMutability": "nonpayable",
      "type": "function",
      "signature": "0x1c77b27a"
    },
    {
      "constant": false,
      "inputs": [
        {
          "name": "_assetId",
          "type": "uint256"
        }
      ],
      "name": "removeAsset",
      "outputs": [],
      "payable": false,
      "stateMutability": "nonpayable",
      "type": "function",
      "signature": "0xf14f58f1"
    },
    {
      "constant": true,
      "inputs": [],
      "name": "getMyAssets",
      "outputs": [
        {
          "name": "",
          "type": "uint256[]"
        }
      ],
      "payable": false,
      "stateMutability": "view",
      "type": "function",
      "signature": "0x47002d1d"
    },
    {
      "constant": true,
      "inputs": [],
      "name": "getMarketplace",
      "outputs": [
        {
          "name": "",
          "type": "uint256[]"
        }
      ],
      "payable": false,
      "stateMutability": "view",
      "type": "function",
      "signature": "0x0d21bcd5"
    },
    {
      "constant": true,
      "inputs": [
        {
          "name": "_assetId",
          "type": "uint256"
        }
      ],
      "name": "getAsset",
      "outputs": [
        {
          "name": "_owner",
          "type": "address"
        },
        {
          "name": "_candidate",
          "type": "address"
        },
        {
          "name": "_name",
          "type": "string"
        },
        {
          "name": "_description",
          "type": "string"
        },
        {
          "name": "_hashKey",
          "type": "string"
        },
        {
          "name": "_price",
          "type": "uint256"
        },
        {
          "name": "_available",
          "type": "bool"
        }
      ],
      "payable": false,
      "stateMutability": "view",
      "type": "function",
      "signature": "0xeac8f5b8"
    },
    {
      "constant": true,
      "inputs": [
        {
          "name": "_assetId",
          "type": "uint256"
        }
      ],
      "name": "getOwner",
      "outputs": [
        {
          "name": "",
          "type": "address"
        }
      ],
      "payable": false,
      "stateMutability": "view",
      "type": "function",
      "signature": "0xc41a360a"
    },
    {
      "constant": true,
      "inputs": [
        {
          "name": "_assetId",
          "type": "uint256"
        }
      ],
      "name": "getCandidate",
      "outputs": [
        {
          "name": "",
          "type": "address"
        }
      ],
      "payable": false,
      "stateMutability": "view",
      "type": "function",
      "signature": "0x35b8e820"
    },
    {
      "constant": true,
      "inputs": [
        {
          "name": "_assetId",
          "type": "uint256"
        }
      ],
      "name": "getName",
      "outputs": [
        {
          "name": "",
          "type": "string"
        }
      ],
      "payable": false,
      "stateMutability": "view",
      "type": "function",
      "signature": "0x6b8ff574"
    },
    {
      "constant": true,
      "inputs": [
        {
          "name": "_assetId",
          "type": "uint256"
        }
      ],
      "name": "getDescription",
      "outputs": [
        {
          "name": "",
          "type": "string"
        }
      ],
      "payable": false,
      "stateMutability": "view",
      "type": "function",
      "signature": "0x4925ec55"
    },
    {
      "constant": true,
      "inputs": [
        {
          "name": "_assetId",
          "type": "uint256"
        }
      ],
      "name": "getHashKey",
      "outputs": [
        {
          "name": "",
          "type": "string"
        }
      ],
      "payable": false,
      "stateMutability": "view",
      "type": "function",
      "signature": "0x6ce9eb64"
    },
    {
      "constant": true,
      "inputs": [
        {
          "name": "_assetId",
          "type": "uint256"
        }
      ],
      "name": "getPrice",
      "outputs": [
        {
          "name": "",
          "type": "uint256"
        }
      ],
      "payable": false,
      "stateMutability": "view",
      "type": "function",
      "signature": "0xe7572230"
    },
    {
      "constant": true,
      "inputs": [
        {
          "name": "_assetId",
          "type": "uint256"
        }
      ],
      "name": "getAvailability",
      "outputs": [
        {
          "name": "",
          "type": "bool"
        }
      ],
      "payable": false,
      "stateMutability": "view",
      "type": "function",
      "signature": "0xcd6a8eca"
    }
  ],
  "bytecode": "0x60806040523480156200001157600080fd5b5060405160408062004423833981016040819052815160209092015160008054600160a060020a03191633178082559192600160a060020a0392909216917f8be0079c531659141344cd1fd0a4f28419497f9722a3daafe3b4186f6b6457e0908290a36200008833640100000000620000c8810204565b600082116200009657600080fd5b6064811015620000a557600080fd5b6005829055620000bf33826401000000006200011a810204565b505050620002eb565b620000e360048264010000000062003f106200015a82021704565b604051600160a060020a038216907f6ae172837ea30b801fbfcdd4108aa1d5bf8ff775444fd70256b44e6bf3dfc3f690600090a250565b60006200013033640100000000620001b5810204565b15156200013c57600080fd5b620001518383640100000000620001d8810204565b50600192915050565b600160a060020a03811615156200017057600080fd5b62000185828264010000000062000299810204565b156200019057600080fd5b600160a060020a0316600090815260209190915260409020805460ff19166001179055565b6000620001d260048364010000000062003e466200029982021704565b92915050565b600160a060020a0382161515620001ee57600080fd5b6003546200020b908264010000000062003be6620002d182021704565b600355600160a060020a03821660009081526001602052604090205462000241908264010000000062003be6620002d182021704565b600160a060020a03831660008181526001602090815260408083209490945583518581529351929391927fddf252ad1be2c89b69c2b068fc378daa952ba7f163c4a11628f55a4df523b3ef9281900390910190a35050565b6000600160a060020a0382161515620002b157600080fd5b50600160a060020a03166000908152602091909152604090205460ff1690565b600082820183811015620002e457600080fd5b9392505050565b61412880620002fb6000396000f3006080604052600436106102245763ffffffff7c010000000000000000000000000000000000000000000000000000000060003504166306fdde038114610229578063095ea7b3146102b35780630d21bcd5146102eb57806318160ddd146103505780631c77b27a14610377578063229c11a61461039157806323b872dd146103a95780632c4e722e146103d3578063313ce567146103e857806334fcf4371461041357806335b8e8201461042b578063395093511461045f57806340c10f191461048357806347002d1d146104a75780634925ec55146104bc578063679aefce146104d45780636b8ff574146104e95780636ce9eb641461050157806370a0823114610519578063715018a61461053a57806382e3759d1461054f5780638da5cb5b146106265780638f32d59b1461063b57806395d89b4114610650578063981b580414610665578063983b2d561461067d578063986502751461069e578063a0712d68146106b3578063a457c2d7146106cb578063a457e1c0146106ef578063a9059cbb14610707578063aa271e1a1461072b578063b6b55f251461074c578063c41a360a14610757578063c687857c1461076f578063cd6a8eca1461084b578063cf35bdd014610863578063d0febe4c14610a0a578063d8c2454114610a12578063dd62ed3e14610a27578063e70bdacf14610a4e578063e757223014610a66578063eac8f5b814610a7e578063f14f58f114610c1e578063f2fde38b14610c36575b600080fd5b34801561023557600080fd5b5061023e610c57565b6040805160208082528351818301528351919283929083019185019080838360005b83811015610278578181015183820152602001610260565b50505050905090810190601f1680156102a55780820380516001836020036101000a031916815260200191505b509250505060405180910390f35b3480156102bf57600080fd5b506102d7600160a060020a0360043516602435610c8e565b604080519115158252519081900360200190f35b3480156102f757600080fd5b50610300610d0c565b60408051602080825283518183015283519192839290830191858101910280838360005b8381101561033c578181015183820152602001610324565b505050509050019250505060405180910390f35b34801561035c57600080fd5b50610365610e5b565b60408051918252519081900360200190f35b34801561038357600080fd5b5061038f600435610e62565b005b34801561039d57600080fd5b5061038f600435610ffd565b3480156103b557600080fd5b506102d7600160a060020a036004358116906024351660443561126a565b3480156103df57600080fd5b50610365611307565b3480156103f457600080fd5b506103fd61130d565b6040805160ff9092168252519081900360200190f35b34801561041f57600080fd5b5061038f600435611312565b34801561043757600080fd5b50610443600435611382565b60408051600160a060020a039092168252519081900360200190f35b34801561046b57600080fd5b506102d7600160a060020a03600435166024356115ce565b34801561048f57600080fd5b506102d7600160a060020a036004351660243561167e565b3480156104b357600080fd5b506103006116a7565b3480156104c857600080fd5b5061023e6004356117ed565b3480156104e057600080fd5b50610365611a42565b3480156104f557600080fd5b5061023e600435611a48565b34801561050d57600080fd5b5061023e600435611c9d565b34801561052557600080fd5b50610365600160a060020a0360043516611ef2565b34801561054657600080fd5b5061038f611f0d565b34801561055b57600080fd5b506040805160206004803580820135601f810184900484028501840190955284845261038f94369492936024939284019190819084018382808284375050604080516020601f89358b018035918201839004830284018301909452808352979a99988101979196509182019450925082915084018382808284375050604080516020601f89358b018035918201839004830284018301909452808352979a9998810197919650918201945092508291508401838280828437509497505093359450611f6a9350505050565b34801561063257600080fd5b5061044361233a565b34801561064757600080fd5b506102d7612349565b34801561065c57600080fd5b5061023e61235a565b34801561067157600080fd5b50610365600435612391565b34801561068957600080fd5b5061038f600160a060020a03600435166123a3565b3480156106aa57600080fd5b5061038f6123c3565b3480156106bf57600080fd5b5061038f6004356123ce565b3480156106d757600080fd5b506102d7600160a060020a03600435166024356123ef565b3480156106fb57600080fd5b5061038f60043561243a565b34801561071357600080fd5b506102d7600160a060020a03600435166024356125cc565b34801561073757600080fd5b506102d7600160a060020a03600435166125d9565b61038f6004356125f2565b34801561076357600080fd5b5061044360043561283b565b34801561077b57600080fd5b5060408051602060046024803582810135601f810185900485028601850190965285855261038f95833595369560449491939091019190819084018382808284375050604080516020601f89358b018035918201839004830284018301909452808352979a99988101979196509182019450925082915084018382808284375050604080516020601f89358b018035918201839004830284018301909452808352979a9998810197919650918201945092508291508401838280828437509497505093359450612a839350505050565b34801561085757600080fd5b506102d7600435612dff565b34801561086f57600080fd5b5061087b600435613047565b6040518089815260200188600160a060020a0316600160a060020a0316815260200187600160a060020a0316600160a060020a0316815260200180602001806020018060200186815260200185151515158152602001848103845289818151815260200191508051906020019080838360005b838110156109065781810151838201526020016108ee565b50505050905090810190601f1680156109335780820380516001836020036101000a031916815260200191505b5084810383528851815288516020918201918a019080838360005b8381101561096657818101518382015260200161094e565b50505050905090810190601f1680156109935780820380516001836020036101000a031916815260200191505b50848103825287518152875160209182019189019080838360005b838110156109c65781810151838201526020016109ae565b50505050905090810190601f1680156109f35780820380516001836020036101000a031916815260200191505b509b50505050505050505050505060405180910390f35b61038f613237565b348015610a1e57600080fd5b5061036561338b565b348015610a3357600080fd5b50610365600160a060020a0360043581169060243516613391565b348015610a5a57600080fd5b5061038f6004356133bc565b348015610a7257600080fd5b506103656004356135a0565b348015610a8a57600080fd5b50610a966004356137e8565b6040518088600160a060020a0316600160a060020a0316815260200187600160a060020a0316600160a060020a0316815260200180602001806020018060200186815260200185151515158152602001848103845289818151815260200191508051906020019080838360005b83811015610b1b578181015183820152602001610b03565b50505050905090810190601f168015610b485780820380516001836020036101000a031916815260200191505b5084810383528851815288516020918201918a019080838360005b83811015610b7b578181015183820152602001610b63565b50505050905090810190601f168015610ba85780820380516001836020036101000a031916815260200191505b50848103825287518152875160209182019189019080838360005b83811015610bdb578181015183820152602001610bc3565b50505050905090810190601f168015610c085780820380516001836020036101000a031916815260200191505b509a505050505050505050505060405180910390f35b348015610c2a57600080fd5b5061038f600435613aa4565b348015610c4257600080fd5b5061038f600160a060020a0360043516613bca565b60408051808201909152600981527f4465706f736974756d0000000000000000000000000000000000000000000000602082015281565b6000600160a060020a0383161515610ca557600080fd5b336000818152600260209081526040808320600160a060020a03881680855290835292819020869055805186815290519293927f8c5be1e5ebec7d5bd14f71427d1e84f3dd0314c0f7b2291e5b200ac8c7c3b925929181900390910190a350600192915050565b6060806000806060600060095460001415610d3b5760408051600080825260208201909252905b509550610e53565b600954604051908082528060200260200182016040528015610d67578160200160208202803883390190505b50945060009350600192505b6009548311610ddd576000838152600760208190526040909120015460ff1615610dd2576000838152600760205260409020548551869086908110610db457fe5b60209081029091010152610dcf84600163ffffffff613be616565b93505b600190920191610d73565b83604051908082528060200260200182016040528015610e07578160200160208202803883390190505b509150600090505b83811015610e4f578481815181101515610e2557fe5b906020019060200201518282815181101515610e3d57fe5b60209081029091010152600101610e0f565b8195505b505050505090565b6003545b90565b600081815260076020526040812060018101549091908190600160a060020a03161515610e8e57610ff7565b6001830154600160a060020a0316331480610eb557506002830154600160a060020a031633145b15610f8157505060028101805460008481526008602052604081208054600160a060020a0319841690945555600160a060020a0316908015610f2957604051600160a060020a0383169082156108fc029083906000818181858888f19350505050158015610f27573d6000803e3d6000fd5b505b600183015460408051868152600160a060020a039092166020830152338282015260608201839052517fae4600bc3786dafd4f3459692821fe209dcde1a5283d33f0675340813bc4ad489181900360800190a1610ff7565b6040805160e560020a62461bcd02815260206004820152602660248201527f526566756e64206e6f7420617574686f726973656420666f722074686973206160448201527f63636f756e740000000000000000000000000000000000000000000000000000606482015290519081900360840190fd5b50505050565b600081815260076020526040812060018101549091908190600160a060020a0316151561102957610ff7565b6001830154600160a060020a0316331461107b576040805160e560020a62461bcd02815260206004820181905260248201526000805160206140dd833981519152604482015290519081900360640190fd5b60078301805460ff191690556002830154600160a060020a0316156110fa5750506002810180546000848152600860205260408082208054600160a060020a0319851690955582905551600160a060020a039092169291839183156108fc02918491818181858888f19350505050158015610f27573d6000803e3d6000fd5b6002808401546006850154604080518881523360208201819052600160a060020a0390941691810182905260a0810183905260c06060820181815260038a0180546000196001821615610100020116979097049183018290527f93759953971d9dce99ec5e86ee853a8b7d7b7fdbc7c34ead5e76872c4d3eaf20968b9695909360048c019391929091608083019060e0840190879080156111dc5780601f106111b1576101008083540402835291602001916111dc565b820191906000526020600020905b8154815290600101906020018083116111bf57829003601f168201915b50508381038252855460026000196101006001841615020190911604808252602090910190869080156112505780601f1061122557610100808354040283529160200191611250565b820191906000526020600020905b81548152906001019060200180831161123357829003601f168201915b50509850505050505050505060405180910390a150505050565b600160a060020a038316600090815260026020908152604080832033845290915281205482111561129a57600080fd5b600160a060020a03841660009081526002602090815260408083203384529091529020546112ce908363ffffffff613bff16565b600160a060020a03851660009081526002602090815260408083203384529091529020556112fd848484613c16565b5060019392505050565b60055481565b600181565b61131a612349565b151561132557600080fd5b6000811161137d576040805160e560020a62461bcd02815260206004820152601f60248201527f5468652072617465206d7573742062652067726561746572207468616e203000604482015290519081900360640190fd5b600555565b600061138c613faa565b6000838152600760209081526040918290208251610100808201855282548252600180840154600160a060020a0390811684870152600280860154909116848801526003850180548851938116159094026000190190931604601f8101869004860282018601909652858152919492936060860193908301828280156114535780601f1061142857610100808354040283529160200191611453565b820191906000526020600020905b81548152906001019060200180831161143657829003601f168201915b505050918352505060048201805460408051602060026001851615610100026000190190941693909304601f81018490048402820184019092528181529382019392918301828280156114e75780601f106114bc576101008083540402835291602001916114e7565b820191906000526020600020905b8154815290600101906020018083116114ca57829003601f168201915b505050918352505060058201805460408051602060026001851615610100026000190190941693909304601f810184900484028201840190925281815293820193929183018282801561157b5780601f106115505761010080835404028352916020019161157b565b820191906000526020600020905b81548152906001019060200180831161155e57829003601f168201915b5050509183525050600682015460208083019190915260079092015460ff161515604090910152810151909150600160a060020a031615156115c057600091506115c8565b806040015191505b50919050565b6000600160a060020a03831615156115e557600080fd5b336000908152600260209081526040808320600160a060020a0387168452909152902054611619908363ffffffff613be616565b336000818152600260209081526040808320600160a060020a0389168085529083529281902085905580519485525191937f8c5be1e5ebec7d5bd14f71427d1e84f3dd0314c0f7b2291e5b200ac8c7c3b925929081900390910190a350600192915050565b6000611689336125d9565b151561169457600080fd5b61169e8383613d0a565b50600192915050565b60608060008060606000600954600014156116d2576040805160008082526020820190925290610d33565b6009546040519080825280602002602001820160405280156116fe578160200160208202803883390190505b50945060009350600192505b600954831161177b57600083815260076020526040902060010154600160a060020a031633141561177057600083815260076020526040902054855186908690811061175257fe5b6020908102909101015261176d84600163ffffffff613be616565b93505b60019092019161170a565b836040519080825280602002602001820160405280156117a5578160200160208202803883390190505b509150600090505b83811015610e4f5784818151811015156117c357fe5b9060200190602002015182828151811015156117db57fe5b602090810290910101526001016117ad565b60606117f7613faa565b6000838152600760209081526040918290208251610100808201855282548252600180840154600160a060020a0390811684870152600280860154909116848801526003850180548851938116159094026000190190931604601f8101869004860282018601909652858152919492936060860193908301828280156118be5780601f10611893576101008083540402835291602001916118be565b820191906000526020600020905b8154815290600101906020018083116118a157829003601f168201915b505050918352505060048201805460408051602060026001851615610100026000190190941693909304601f81018490048402820184019092528181529382019392918301828280156119525780601f1061192757610100808354040283529160200191611952565b820191906000526020600020905b81548152906001019060200180831161193557829003601f168201915b505050918352505060058201805460408051602060026001851615610100026000190190941693909304601f81018490048402820184019092528181529382019392918301828280156119e65780601f106119bb576101008083540402835291602001916119e6565b820191906000526020600020905b8154815290600101906020018083116119c957829003601f168201915b5050509183525050600682015460208083019190915260079092015460ff161515604090910152810151909150600160a060020a03161515611a385760408051602081019091526000815291506115c8565b6080015192915050565b60055490565b6060611a52613faa565b6000838152600760209081526040918290208251610100808201855282548252600180840154600160a060020a0390811684870152600280860154909116848801526003850180548851938116159094026000190190931604601f810186900486028201860190965285815291949293606086019390830182828015611b195780601f10611aee57610100808354040283529160200191611b19565b820191906000526020600020905b815481529060010190602001808311611afc57829003601f168201915b505050918352505060048201805460408051602060026001851615610100026000190190941693909304601f8101849004840282018401909252818152938201939291830182828015611bad5780601f10611b8257610100808354040283529160200191611bad565b820191906000526020600020905b815481529060010190602001808311611b9057829003601f168201915b505050918352505060058201805460408051602060026001851615610100026000190190941693909304601f8101849004840282018401909252818152938201939291830182828015611c415780601f10611c1657610100808354040283529160200191611c41565b820191906000526020600020905b815481529060010190602001808311611c2457829003601f168201915b5050509183525050600682015460208083019190915260079092015460ff161515604090910152810151909150600160a060020a03161515611c935760408051602081019091526000815291506115c8565b6060015192915050565b6060611ca7613faa565b6000838152600760209081526040918290208251610100808201855282548252600180840154600160a060020a0390811684870152600280860154909116848801526003850180548851938116159094026000190190931604601f810186900486028201860190965285815291949293606086019390830182828015611d6e5780601f10611d4357610100808354040283529160200191611d6e565b820191906000526020600020905b815481529060010190602001808311611d5157829003601f168201915b505050918352505060048201805460408051602060026001851615610100026000190190941693909304601f8101849004840282018401909252818152938201939291830182828015611e025780601f10611dd757610100808354040283529160200191611e02565b820191906000526020600020905b815481529060010190602001808311611de557829003601f168201915b505050918352505060058201805460408051602060026001851615610100026000190190941693909304601f8101849004840282018401909252818152938201939291830182828015611e965780601f10611e6b57610100808354040283529160200191611e96565b820191906000526020600020905b815481529060010190602001808311611e7957829003601f168201915b5050509183525050600682015460208083019190915260079092015460ff161515604090910152810151909150600160a060020a03161515611ee85760408051602081019091526000815291506115c8565b60a0015192915050565b600160a060020a031660009081526001602052604090205490565b611f15612349565b1515611f2057600080fd5b60008054604051600160a060020a03909116907f8be0079c531659141344cd1fd0a4f28419497f9722a3daafe3b4186f6b6457e0908390a360008054600160a060020a0319169055565b835184906060908190600010611fca576040805160e560020a62461bcd02815260206004820152601260248201527f41206e616d652069732072657175697265640000000000000000000000000000604482015290519081900360640190fd5b8551869250600010612026576040805160e560020a62461bcd02815260206004820152601960248201527f41206465736372697074696f6e20697320726571756972656400000000000000604482015290519081900360640190fd5b5083518490600010612082576040805160e560020a62461bcd02815260206004820181905260248201527f412068617368206b65792066726f6d2049504653206973207265717569726564604482015290519081900360640190fd5b60095461209690600163ffffffff613be616565b600981905560408051610100810182528281523360208083019182526000838501818152606085018e8152608086018e905260a086018d905260c086018c905260e0860183905296825260078352949020835181559151600183018054600160a060020a0319908116600160a060020a039384161790915594516002840180549096169116179093559251805191939261213892600385019290910190614004565b5060808201518051612154916004840191602090910190614004565b5060a08201518051612170916005840191602090910190614004565b5060c0820151816006015560e08201518160070160006101000a81548160ff0219169083151502179055509050507f4efe84f42f5dc8e26465778176a705ad3410cf364c7671cb60cfc8e1f5fe7f3a60095433898989896040518087815260200186600160a060020a0316600160a060020a03168152602001806020018060200180602001858152602001848103845288818151815260200191508051906020019080838360005b83811015612230578181015183820152602001612218565b50505050905090810190601f16801561225d5780820380516001836020036101000a031916815260200191505b50848103835287518152875160209182019189019080838360005b83811015612290578181015183820152602001612278565b50505050905090810190601f1680156122bd5780820380516001836020036101000a031916815260200191505b50848103825286518152865160209182019188019080838360005b838110156122f05781810151838201526020016122d8565b50505050905090810190601f16801561231d5780820380516001836020036101000a031916815260200191505b50995050505050505050505060405180910390a150505050505050565b600054600160a060020a031690565b600054600160a060020a0316331490565b60408051808201909152600381527f44504d0000000000000000000000000000000000000000000000000000000000602082015281565b60086020526000908152604090205481565b6123ac336125d9565b15156123b757600080fd5b6123c081613db6565b50565b6123cc33613dfe565b565b6123d6612349565b15156123e157600080fd5b6123eb338261167e565b5050565b6000600160a060020a038316151561240657600080fd5b336000908152600260209081526040808320600160a060020a0387168452909152902054611619908363ffffffff613bff16565b600081815260076020526040812060018101549091908190600160a060020a0316151561246657610ff7565b6002830154600160a060020a031633146124f0576040805160e560020a62461bcd02815260206004820152602b60248201527f417373657420616c726561647920726573657276656420746f20616e6f74686560448201527f722063616e646964617465000000000000000000000000000000000000000000606482015290519081900360840190fd5b50506001810180546000848152600860205260408082208054600160a060020a031980861633179096556002870180549096169095556006860183905560078601805460ff1916905582905551600160a060020a039092169291839183156108fc02918491818181858888f19350505050158015612572573d6000803e3d6000fd5b50600183015460408051868152600160a060020a039092166020830152338282015260608201839052517fe3cf0e0098f447c6d9bc08ffbbf3f193d35c51b57d7de6bb9ccb79f4995ccf719181900360800190a150505050565b600061169e338484613c16565b60006125ec60048363ffffffff613e4616565b92915050565b60008181526007602052604090206001810154600160a060020a03161515612619576123eb565b6002810154600160a060020a0316156126a2576040805160e560020a62461bcd02815260206004820152602b60248201527f417373657420616c726561647920726573657276656420746f20616e6f74686560448201527f722063616e646964617465000000000000000000000000000000000000000000606482015290519081900360840190fd5b6001810154600160a060020a031633141561272d576040805160e560020a62461bcd02815260206004820152602e60248201527f4465706f736974206e6f7420616c6c6f77656420666f7220746865206f776e6560448201527f72206f6620746865206173736574000000000000000000000000000000000000606482015290519081900360840190fd5b600681015434146127ae576040805160e560020a62461bcd02815260206004820152602260248201527f507269636520617265206e6f74207468652073616d652061732065787065637460448201527f6564000000000000000000000000000000000000000000000000000000000000606482015290519081900360840190fd5b600082815260086020908152604091829020349055600283018054600160a060020a03191633908117909155600184015460068501548451878152600160a060020a03929092169382019390935280840191909152606081019190915290517f2c0f148b435140de488c1b34647f1511c646f7077e87007bacf22ef9977a16d89181900360800190a15050565b6000612845613faa565b6000838152600760209081526040918290208251610100808201855282548252600180840154600160a060020a0390811684870152600280860154909116848801526003850180548851938116159094026000190190931604601f81018690048602820186019096528581529194929360608601939083018282801561290c5780601f106128e15761010080835404028352916020019161290c565b820191906000526020600020905b8154815290600101906020018083116128ef57829003601f168201915b505050918352505060048201805460408051602060026001851615610100026000190190941693909304601f81018490048402820184019092528181529382019392918301828280156129a05780601f10612975576101008083540402835291602001916129a0565b820191906000526020600020905b81548152906001019060200180831161298357829003601f168201915b505050918352505060058201805460408051602060026001851615610100026000190190941693909304601f8101849004840282018401909252818152938201939291830182828015612a345780601f10612a0957610100808354040283529160200191612a34565b820191906000526020600020905b815481529060010190602001808311612a1757829003601f168201915b5050509183525050600682015460208083019190915260079092015460ff161515604090910152810151909150600160a060020a03161515612a7957600091506115c8565b6020015192915050565b6000858152600760205260409020600181015460609081908190600160a060020a03161515612ab157612df4565b6001840154600160a060020a03163314612b03576040805160e560020a62461bcd02815260206004820181905260248201526000805160206140dd833981519152604482015290519081900360640190fd5b8751889350600010612b5f576040805160e560020a62461bcd02815260206004820152601260248201527f41206e616d652069732072657175697265640000000000000000000000000000604482015290519081900360640190fd5b8651879250600010612bbb576040805160e560020a62461bcd02815260206004820152601960248201527f41206465736372697074696f6e20697320726571756972656400000000000000604482015290519081900360640190fd5b5084518590600010612c17576040805160e560020a62461bcd02815260206004820181905260248201527f412068617368206b65792066726f6d2049504653206973207265717569726564604482015290519081900360640190fd5b8751612c2c90600386019060208b0190614004565b508651612c4290600486019060208a0190614004565b508551612c589060058601906020890190614004565b508484600601819055507f5b06687e2faf130980555e1015a965e09459b7d538a348953f70a14109db3a4289338a8a8a8a6040518087815260200186600160a060020a0316600160a060020a03168152602001806020018060200180602001858152602001848103845288818151815260200191508051906020019080838360005b83811015612cf2578181015183820152602001612cda565b50505050905090810190601f168015612d1f5780820380516001836020036101000a031916815260200191505b50848103835287518152875160209182019189019080838360005b83811015612d52578181015183820152602001612d3a565b50505050905090810190601f168015612d7f5780820380516001836020036101000a031916815260200191505b50848103825286518152865160209182019188019080838360005b83811015612db2578181015183820152602001612d9a565b50505050905090810190601f168015612ddf5780820380516001836020036101000a031916815260200191505b50995050505050505050505060405180910390a15b505050505050505050565b6000612e09613faa565b6000838152600760209081526040918290208251610100808201855282548252600180840154600160a060020a0390811684870152600280860154909116848801526003850180548851938116159094026000190190931604601f810186900486028201860190965285815291949293606086019390830182828015612ed05780601f10612ea557610100808354040283529160200191612ed0565b820191906000526020600020905b815481529060010190602001808311612eb357829003601f168201915b505050918352505060048201805460408051602060026001851615610100026000190190941693909304601f8101849004840282018401909252818152938201939291830182828015612f645780601f10612f3957610100808354040283529160200191612f64565b820191906000526020600020905b815481529060010190602001808311612f4757829003601f168201915b505050918352505060058201805460408051602060026001851615610100026000190190941693909304601f8101849004840282018401909252818152938201939291830182828015612ff85780601f10612fcd57610100808354040283529160200191612ff8565b820191906000526020600020905b815481529060010190602001808311612fdb57829003601f168201915b5050509183525050600682015460208083019190915260079092015460ff161515604090910152810151909150600160a060020a0316151561303d57600091506115c8565b60e0015192915050565b600760209081526000918252604091829020805460018083015460028085015460038601805489516101009682161596909602600019011692909204601f81018890048802850188019098528784529396600160a060020a039283169692909416949390918301828280156130fd5780601f106130d2576101008083540402835291602001916130fd565b820191906000526020600020905b8154815290600101906020018083116130e057829003601f168201915b5050505060048301805460408051602060026001851615610100026000190190941693909304601f810184900484028201840190925281815294959493509083018282801561318d5780601f106131625761010080835404028352916020019161318d565b820191906000526020600020905b81548152906001019060200180831161317057829003601f168201915b5050505060058301805460408051602060026001851615610100026000190190941693909304601f810184900484028201840190925281815294959493509083018282801561321d5780601f106131f25761010080835404028352916020019161321d565b820191906000526020600020905b81548152906001019060200180831161320057829003601f168201915b50505050600683015460079093015491929160ff16905088565b6000806000600554111515613296576040805160e560020a62461bcd02815260206004820152601f60248201527f5468652072617465206d7573742062652067726561746572207468616e203000604482015290519081900360640190fd5b6005543492506132ad90839063ffffffff613e7d16565b9050806132c06132bb61233a565b611ef2565b1015613316576040805160e560020a62461bcd02815260206004820152601160248201527f4e6f7420656e6f75676820746f6b656e73000000000000000000000000000000604482015290519081900360640190fd5b61332861332161233a565b3383613c16565b60065461333b903463ffffffff613be616565b6006553361334761233a565b600160a060020a03167fddf252ad1be2c89b69c2b068fc378daa952ba7f163c4a11628f55a4df523b3ef836040518082815260200191505060405180910390a35050565b60065490565b600160a060020a03918216600090815260026020908152604080832093909416825291909152205490565b60008181526007602052604090206001810154600160a060020a031615156133e3576123eb565b6001810154600160a060020a03163314613435576040805160e560020a62461bcd02815260206004820181905260248201526000805160206140dd833981519152604482015290519081900360640190fd5b60078101805460ff1916600190811790915560068201546040805185815233602082018190526080820184905260a0928201838152600387018054600260001998821615610100029890980116969096049383018490527f5d095dcaf5e2fe5894fd51fdc2e637dd6095cb9b9b3c20d178cecc053a7a8c4e958895929490936004890193929091606083019060c0840190879080156135155780601f106134ea57610100808354040283529160200191613515565b820191906000526020600020905b8154815290600101906020018083116134f857829003601f168201915b50508381038252855460026000196101006001841615020190911604808252602090910190869080156135895780601f1061355e57610100808354040283529160200191613589565b820191906000526020600020905b81548152906001019060200180831161356c57829003601f168201915b505097505050505050505060405180910390a15050565b60006135aa613faa565b6000838152600760209081526040918290208251610100808201855282548252600180840154600160a060020a0390811684870152600280860154909116848801526003850180548851938116159094026000190190931604601f8101869004860282018601909652858152919492936060860193908301828280156136715780601f1061364657610100808354040283529160200191613671565b820191906000526020600020905b81548152906001019060200180831161365457829003601f168201915b505050918352505060048201805460408051602060026001851615610100026000190190941693909304601f81018490048402820184019092528181529382019392918301828280156137055780601f106136da57610100808354040283529160200191613705565b820191906000526020600020905b8154815290600101906020018083116136e857829003601f168201915b505050918352505060058201805460408051602060026001851615610100026000190190941693909304601f81018490048402820184019092528181529382019392918301828280156137995780601f1061376e57610100808354040283529160200191613799565b820191906000526020600020905b81548152906001019060200180831161377c57829003601f168201915b5050509183525050600682015460208083019190915260079092015460ff161515604090910152810151909150600160a060020a031615156137de57600091506115c8565b60c0015192915050565b60008060608060606000806137fb613faa565b6000898152600760209081526040918290208251610100808201855282548252600180840154600160a060020a0390811684870152600280860154909116848801526003850180548851938116159094026000190190931604601f8101869004860282018601909652858152919492936060860193908301828280156138c25780601f10613897576101008083540402835291602001916138c2565b820191906000526020600020905b8154815290600101906020018083116138a557829003601f168201915b505050918352505060048201805460408051602060026001851615610100026000190190941693909304601f81018490048402820184019092528181529382019392918301828280156139565780601f1061392b57610100808354040283529160200191613956565b820191906000526020600020905b81548152906001019060200180831161393957829003601f168201915b505050918352505060058201805460408051602060026001851615610100026000190190941693909304601f81018490048402820184019092528181529382019392918301828280156139ea5780601f106139bf576101008083540402835291602001916139ea565b820191906000526020600020905b8154815290600101906020018083116139cd57829003601f168201915b5050509183525050600682015460208083019190915260079092015460ff161515604090910152810151909150600160a060020a03161515613a6357604080516020818101835260008083528351808301855281815284519283019094528082529a508a99509097509095509350869250829150613a98565b602081015160408201516060830151608084015160a085015160c086015160e0870151959d50939b5091995097509550935091505b50919395979092949650565b60008181526007602052604090206001810154600160a060020a03161515613acb576123eb565b6001810154600160a060020a03163314613b1d576040805160e560020a62461bcd02815260206004820181905260248201526000805160206140dd833981519152604482015290519081900360640190fd5b6000828152600760205260408120818155600181018054600160a060020a0319908116909155600282018054909116905590613b5c6003830182614082565b613b6a600483016000614082565b613b78600583016000614082565b5060006006820155600701805460ff19169055604080513381526020810184905281517f3406221f53114f44c9a1bb93d08ee55735f39bf235a54741684a52501207bb54929181900390910190a15050565b613bd2612349565b1515613bdd57600080fd5b6123c081613ea0565b600082820183811015613bf857600080fd5b9392505050565b60008083831115613c0f57600080fd5b5050900390565b600160a060020a038316600090815260016020526040902054811115613c3b57600080fd5b600160a060020a0382161515613c5057600080fd5b600160a060020a038316600090815260016020526040902054613c79908263ffffffff613bff16565b600160a060020a038085166000908152600160205260408082209390935590841681522054613cae908263ffffffff613be616565b600160a060020a0380841660008181526001602090815260409182902094909455805185815290519193928716927fddf252ad1be2c89b69c2b068fc378daa952ba7f163c4a11628f55a4df523b3ef92918290030190a3505050565b600160a060020a0382161515613d1f57600080fd5b600354613d32908263ffffffff613be616565b600355600160a060020a038216600090815260016020526040902054613d5e908263ffffffff613be616565b600160a060020a03831660008181526001602090815260408083209490945583518581529351929391927fddf252ad1be2c89b69c2b068fc378daa952ba7f163c4a11628f55a4df523b3ef9281900390910190a35050565b613dc760048263ffffffff613f1016565b604051600160a060020a038216907f6ae172837ea30b801fbfcdd4108aa1d5bf8ff775444fd70256b44e6bf3dfc3f690600090a250565b613e0f60048263ffffffff613f5e16565b604051600160a060020a038216907fe94479a9f7e1952cc78f2d6baab678adc1b772d936c6583def489e524cb6669290600090a250565b6000600160a060020a0382161515613e5d57600080fd5b50600160a060020a03166000908152602091909152604090205460ff1690565b600080808311613e8c57600080fd5b8284811515613e9757fe5b04949350505050565b600160a060020a0381161515613eb557600080fd5b60008054604051600160a060020a03808516939216917f8be0079c531659141344cd1fd0a4f28419497f9722a3daafe3b4186f6b6457e091a360008054600160a060020a031916600160a060020a0392909216919091179055565b600160a060020a0381161515613f2557600080fd5b613f2f8282613e46565b15613f3957600080fd5b600160a060020a0316600090815260209190915260409020805460ff19166001179055565b600160a060020a0381161515613f7357600080fd5b613f7d8282613e46565b1515613f8857600080fd5b600160a060020a0316600090815260209190915260409020805460ff19169055565b61010060405190810160405280600081526020016000600160a060020a031681526020016000600160a060020a03168152602001606081526020016060815260200160608152602001600081526020016000151581525090565b828054600181600116156101000203166002900490600052602060002090601f016020900481019282601f1061404557805160ff1916838001178555614072565b82800160010185558215614072579182015b82811115614072578251825591602001919060010190614057565b5061407e9291506140c2565b5090565b50805460018160011615610100020316600290046000825580601f106140a857506123c0565b601f0160209004906000526020600020908101906123c091905b610e5f91905b8082111561407e57600081556001016140c85600416374696f6e20616c6c6f776564206f6e6c7920746f20746865206f776e6572a165627a7a7230582002615dfcfeffcd7f34c7a22c894fb9c2b218fb7fa5130e4109b96cd472dd6f470029",
  "source": "pragma solidity ^0.4.25;\n\nimport \"./AssetToken.sol\";\n\ncontract AssetContract is AssetToken {\n\n    //\n    // OpenZeppelin specifics\n    //\n    using SafeMath for uint256;\n\n    //\n    // state variables\n    //\n\n    // description of an asset item\n    struct AssetItem {\n        uint256 id;                // id in the list\n        address owner;          // asset's owner\n        address candidate;      // candidate owner\n        string name;\n        string description;\n        string hashKey;         // hashkey of the asset stored in IPFS\n        uint256 price;          // price in Wei\n        bool available;         // true if the asset can be sold in the marketplace\n    }\n\n    // List of asset\n    mapping(uint256 => AssetItem) public assets;\n\n    // Balance of deposits\n    mapping(uint256 => uint256) public depositsBalance;\n\n    // number of assets\n    uint256 assetCounter;\n\n\n    //\n    // Events\n    //\n    event NewAsset(uint256 _assetId, address _owner, string _name, string _description, string _hashKey, uint256 _price);\n    event UpdateAsset(uint256 _assetId, address _owner, string _name, string _description, string _hashKey, uint256 _price);\n    event AssetRemoved(address _owner, uint _assetId);\n    event SetMarketplace(uint256 _assetId, address _owner, string _name, string _description, uint256 _price);\n    event UnsetMarketplace(uint256 _assetId, address _owner, address _candidate, string _name, string _description, uint256 _price);\n    event Deposit(uint256 _assetId, address _owner, address _candidate, uint256 _price);\n    event Purchase(uint256 _assetId, address _formerOwner, address _newOwner, uint256 _price);\n    event Refund(uint256 _assetId, address _owner, address _candidate, uint256 _price);\n\n    //\n    // Implementation\n    //\n\n    constructor(uint256 _rate, uint256 _tokens) public {\n        require(_rate > 0);\n        require(_tokens >= 100);\n\n        // set initial rate\n        rate = _rate;\n\n        // mint initial tokens\n        mint(msg.sender, _tokens);\n    }\n\n    // add a new asset\n    function addAsset(string _name, string _description, string _hashKey, uint256 _price) public {\n        // a name is required\n        bytes memory name = bytes(_name);\n        require(name.length > 0, \"A name is required\");\n\n        // a description is required\n        bytes memory description = bytes(_description);\n        require(description.length > 0, \"A description is required\");\n\n        // an IPFS hash key is required\n        bytes memory hashKey = bytes(_hashKey);\n        require(hashKey.length > 0, \"A hash key from IPFS is required\");\n\n        // new asset\n        assetCounter = assetCounter.add(1);\n\n        // store the new asset\n        assets[assetCounter] = AssetItem(assetCounter, msg.sender, 0x0, _name, _description, _hashKey, _price, false);\n\n        emit NewAsset(assetCounter, msg.sender, _name, _description, _hashKey, _price);\n    }\n\n    // update an existing asset\n    // only possible for the asset's owner\n    function updateAsset(uint256 _assetId, string _name, string _description, string _hashKey, uint256 _price) public {\n        AssetItem storage asset = assets[_assetId];\n\n        // is this asset exists?\n        if (asset.owner == 0x0) {\n            return;\n        }\n\n        // only the asset's owner is allowed to update this asset\n        require(msg.sender == asset.owner, \"Action allowed only to the owner\");\n\n        // a name is required\n        bytes memory name = bytes(_name);\n        require(name.length > 0, \"A name is required\");\n\n        // a description is required\n        bytes memory description = bytes(_description);\n        require(description.length > 0, \"A description is required\");\n\n        // an IPFS hash key is required\n        bytes memory hashKey = bytes(_hashKey);\n        require(hashKey.length > 0, \"A hash key from IPFS is required\");\n\n        // update the asset\n        asset.name = _name;\n        asset.description = _description;\n        asset.hashKey = _hashKey;\n        asset.price = _price;\n\n        emit UpdateAsset(_assetId, msg.sender, _name, _description, _hashKey, _price);\n    }\n\n    // make the asset available in the marketplace\n    // only possible for the asset's owner\n    function setMarketplace(uint256 _assetId) public {\n        AssetItem storage asset = assets[_assetId];\n\n        // is this asset exists?\n        if (asset.owner == 0x0) {\n            return;\n        }\n\n        // only the asset's owner is allowed to update this asset\n        require(msg.sender == asset.owner, \"Action allowed only to the owner\");\n\n        // update the availability of the asset in the marketplace\n        asset.available = true;\n\n        emit SetMarketplace(_assetId, msg.sender, asset.name, asset.description, asset.price);\n    }\n\n    // remove the asset from the marketplace and refund the candidate buyer\n    // only possible for the asset's owner\n    function unsetMarketplace(uint256 _assetId) public {\n        AssetItem storage asset = assets[_assetId];\n\n        // is this asset exists?\n        if (asset.owner == 0x0) {\n            return;\n        }\n\n        // only the asset's owner is allowed to update this asset\n        require(msg.sender == asset.owner, \"Action allowed only to the owner\");\n\n        // update the availability of the asset in the marketplace\n        asset.available = false;\n\n        if (asset.candidate != 0x0) {\n            // we need to refund by sending back the deposit to the candidate\n\n            // keep the former owner and the price paid by the purchase\n            address _candidate = asset.candidate;\n            uint256 _price = depositsBalance[_assetId];\n\n            // move the asset to the buyer and reset its state\n            asset.candidate = 0x0;\n            delete depositsBalance[_assetId];\n\n            // TODO: if the price is equal to zero, avoid the call to transfer\n\n            // transfer the amount to the former owner\n            _candidate.transfer(_price);\n\n            emit Refund(_assetId, asset.owner, msg.sender, _price);\n        } else {\n            emit UnsetMarketplace(_assetId, msg.sender, asset.candidate, asset.name, asset.description, asset.price);\n\n        }\n    }\n\n    // a candidate buyer deposit the price for the purchase\n    // the amount is secured in the contract's balance until the amount is released (sale concluded or refunded)\n    function deposit(uint256 _assetId) public payable {\n        AssetItem storage asset = assets[_assetId];\n\n        // is this asset exists?\n        if (asset.owner == 0x0) {\n            return;\n        }\n\n        // ensure that the asset is not already reserved\n        require(asset.candidate == 0x0, \"Asset already reserved to another candidate\");\n\n        // ensure that the asset is not already reserved to another candidate buyer\n        require(msg.sender != asset.owner, \"Deposit not allowed for the owner of the asset\");\n\n        // the value to deposit must be equal to price of the asset\n        require(msg.value == asset.price, \"Price are not the same as expected\");\n\n        // keep track of the deposit\n        depositsBalance[_assetId] = msg.value;\n\n        // store the address of the purchaser\n        asset.candidate = msg.sender;\n\n        emit Deposit(_assetId, asset.owner, msg.sender, asset.price);\n    }\n\n    // let the candidate buyer to become the new owner of the asset by executing the purchase\n    function purchaseAsset(uint256 _assetId) public {\n        AssetItem storage asset = assets[_assetId];\n\n        // is this asset exists?\n        if (asset.owner == 0x0) {\n            return;\n        }\n\n        // ensure that the buyer is the identified candidate\n        require(msg.sender == asset.candidate, \"Asset already reserved to another candidate\");\n\n        // keep the former owner and the price paid by the purchase\n        address _owner = asset.owner;\n        uint256 _price = depositsBalance[_assetId];\n\n        // move the asset to the buyer and reset its state\n        asset.owner = msg.sender;\n        asset.candidate = 0x0;\n        asset.price = 0;\n        asset.available = false;\n        delete depositsBalance[_assetId];\n\n        // transfer the amount to the former owner\n        _owner.transfer(_price);\n\n        emit Purchase(_assetId, asset.owner, msg.sender, _price);\n    }\n\n    // let the candidate buyer or the asset owner to cancel the purchase and refunding the candidate\n    function refundPurchase(uint256 _assetId) public {\n        AssetItem storage asset = assets[_assetId];\n\n        // is this asset exists?\n        if (asset.owner == 0x0) {\n            return;\n        }\n\n        // the sender must be the owner or the candidate\n        if ((msg.sender == asset.owner) || (msg.sender == asset.candidate)) {\n            // keep the former owner and the price paid by the purchase\n            address _candidate = asset.candidate;\n            uint256 _price = depositsBalance[_assetId];\n\n            // move the asset to the buyer and reset its state\n            asset.candidate = 0x0;\n            delete depositsBalance[_assetId];\n\n            if (_price != 0) {\n                // transfer back the amount to the candidate\n                _candidate.transfer(_price);\n            }\n\n            emit Refund(_assetId, asset.owner, msg.sender, _price);\n        } else {\n            require(false, \"Refund not authorised for this account\");\n        }\n    }\n\n    // remove an asset\n    function removeAsset(uint _assetId) public {\n        AssetItem storage asset = assets[_assetId];\n\n        // is this asset exists?\n        if (asset.owner == 0x0) {\n            return;\n        }\n\n        // only the asset's owner is allowed to remove this asset\n        require(msg.sender == asset.owner, \"Action allowed only to the owner\");\n\n        // remove the asset\n        delete assets[_assetId];\n\n        emit AssetRemoved(msg.sender, _assetId);\n    }\n\n    // return asset IDs owned by the function's caller\n    function getMyAssets() view public returns (uint[]) {\n        if (assetCounter == 0) {\n            return new uint[](0);\n        }\n\n        // prepare output array\n        uint256[] memory assetIDs = new uint[](assetCounter);\n\n        // iterate over assets\n        uint256 numberOfAssets = 0;\n        for (uint i = 1; i <= assetCounter; i++) {\n            // keep the ID of the asset owned by the sender\n            if (assets[i].owner == msg.sender) {\n                assetIDs[numberOfAssets] = assets[i].id;\n\n                numberOfAssets = numberOfAssets.add(1);\n            }\n        }\n\n        // copy the asset ID array into a smaller array\n        uint256[] memory myAsset = new uint[](numberOfAssets);\n        for (uint j = 0; j < numberOfAssets; j++) {\n            myAsset[j] = assetIDs[j];\n        }\n\n        return myAsset;\n    }\n\n    // return asset IDs published in the marketplace\n    function getMarketplace() view public returns (uint[]) {\n        if (assetCounter == 0) {\n            return new uint[](0);\n        }\n\n        // prepare output array\n        uint256[] memory assetIDs = new uint[](assetCounter);\n\n        // iterate over assets\n        uint256 numberOfAssets = 0;\n        for (uint i = 1; i <= assetCounter; i++) {\n            // keep the ID of the asset published in the marketplace\n            if (assets[i].available) {\n                assetIDs[numberOfAssets] = assets[i].id;\n\n                numberOfAssets = numberOfAssets.add(1);\n            }\n        }\n\n        // copy the asset ID array into a smaller array\n        uint256[] memory myAsset = new uint[](numberOfAssets);\n        for (uint j = 0; j < numberOfAssets; j++) {\n            myAsset[j] = assetIDs[j];\n        }\n\n        return myAsset;\n    }\n\n    // Retrieve an asset based on its ID\n    function getAsset(uint _assetId) view public returns (\n        address _owner,\n        address _candidate,\n        string _name,\n        string _description,\n        string _hashKey,\n        uint256 _price,\n        bool _available) {\n\n        AssetItem memory asset = assets[_assetId];\n\n        // ensure that we have an asset to fetch\n        if (asset.owner == 0x0) {\n            return (0x0, 0x0, \"\", \"\", \"\", 0, false);\n        }\n\n        return (\n            asset.owner,\n            asset.candidate,\n            asset.name,\n            asset.description,\n            asset.hashKey,\n            asset.price,\n            asset.available);\n    }\n\n\n\n    function getOwner(uint _assetId) view public returns (address) {\n        AssetItem memory asset = assets[_assetId];\n\n        // ensure that we have an asset to fetch\n        if (asset.owner == 0x0) {\n            return (0x0);\n        }\n\n\n        return asset.owner;\n    }\n\n    function getCandidate(uint _assetId) view public returns (address) {\n        AssetItem memory asset = assets[_assetId];\n\n        // ensure that we have an asset to fetch\n        if (asset.owner == 0x0) {\n            return (0x0);\n        }\n\n\n        return asset.candidate;\n    }\n\n\n    function getName(uint _assetId) view public returns (string) {\n        AssetItem memory asset = assets[_assetId];\n\n        // ensure that we have an asset to fetch\n        if (asset.owner == 0x0) {\n            return (\"\");\n        }\n\n\n        return asset.name;\n    }\n\n    function getDescription(uint _assetId) view public returns (string) {\n        AssetItem memory asset = assets[_assetId];\n\n        // ensure that we have an asset to fetch\n        if (asset.owner == 0x0) {\n            return (\"\");\n        }\n\n\n        return asset.description;\n    }\n\n    function getHashKey(uint _assetId) view public returns (string) {\n        AssetItem memory asset = assets[_assetId];\n\n        // ensure that we have an asset to fetch\n        if (asset.owner == 0x0) {\n            return (\"\");\n        }\n\n\n        return asset.hashKey;\n    }\n\n    function getPrice(uint _assetId) view public returns (uint256) {\n        AssetItem memory asset = assets[_assetId];\n\n        // ensure that we have an asset to fetch\n        if (asset.owner == 0x0) {\n            return (0);\n        }\n\n\n        return asset.price;\n    }\n\n    function getAvailability(uint _assetId) view public returns (bool) {\n        AssetItem memory asset = assets[_assetId];\n\n        // ensure that we have an asset to fetch\n        if (asset.owner == 0x0) {\n            return (false);\n        }\n\n\n        return asset.available;\n    }\n}",
  "sourcePath": "/Users/eloudsa/ChainSkills/projects/depositum/contracts/AssetContract.sol",
  "compiler": {
    "name": "solc",
    "version": "0.4.25+commit.59dbf8f1.Emscripten.clang"
  },
  "schemaVersion": "3.0.0-beta.1",
  "updatedAt": "2018-11-14T02:17:04.726Z"
}