{
  "contractName": "AssetContract",
  "abi": [
    {
      "constant": false,
      "inputs": [],
      "name": "renounceOwnership",
      "outputs": [],
      "payable": false,
      "stateMutability": "nonpayable",
      "type": "function",
      "signature": "0x715018a6"
    },
    {
      "constant": true,
      "inputs": [],
      "name": "owner",
      "outputs": [
        {
          "name": "",
          "type": "address"
        }
      ],
      "payable": false,
      "stateMutability": "view",
      "type": "function",
      "signature": "0x8da5cb5b"
    },
    {
      "constant": true,
      "inputs": [],
      "name": "isOwner",
      "outputs": [
        {
          "name": "",
          "type": "bool"
        }
      ],
      "payable": false,
      "stateMutability": "view",
      "type": "function",
      "signature": "0x8f32d59b"
    },
    {
      "constant": true,
      "inputs": [
        {
          "name": "",
          "type": "uint256"
        }
      ],
      "name": "assets",
      "outputs": [
        {
          "name": "id",
          "type": "uint256"
        },
        {
          "name": "owner",
          "type": "address"
        },
        {
          "name": "candidate",
          "type": "address"
        },
        {
          "name": "name",
          "type": "string"
        },
        {
          "name": "description",
          "type": "string"
        },
        {
          "name": "hashKey",
          "type": "string"
        },
        {
          "name": "price",
          "type": "uint256"
        },
        {
          "name": "available",
          "type": "bool"
        }
      ],
      "payable": false,
      "stateMutability": "view",
      "type": "function",
      "signature": "0xcf35bdd0"
    },
    {
      "constant": false,
      "inputs": [
        {
          "name": "newOwner",
          "type": "address"
        }
      ],
      "name": "transferOwnership",
      "outputs": [],
      "payable": false,
      "stateMutability": "nonpayable",
      "type": "function",
      "signature": "0xf2fde38b"
    },
    {
      "anonymous": false,
      "inputs": [
        {
          "indexed": false,
          "name": "_id",
          "type": "uint256"
        },
        {
          "indexed": false,
          "name": "_owner",
          "type": "address"
        },
        {
          "indexed": false,
          "name": "_name",
          "type": "string"
        },
        {
          "indexed": false,
          "name": "_description",
          "type": "string"
        },
        {
          "indexed": false,
          "name": "_hashKey",
          "type": "string"
        },
        {
          "indexed": false,
          "name": "_price",
          "type": "uint256"
        }
      ],
      "name": "NewAsset",
      "type": "event",
      "signature": "0x4efe84f42f5dc8e26465778176a705ad3410cf364c7671cb60cfc8e1f5fe7f3a"
    },
    {
      "anonymous": false,
      "inputs": [
        {
          "indexed": false,
          "name": "_id",
          "type": "uint256"
        },
        {
          "indexed": false,
          "name": "_owner",
          "type": "address"
        },
        {
          "indexed": false,
          "name": "_name",
          "type": "string"
        },
        {
          "indexed": false,
          "name": "_description",
          "type": "string"
        },
        {
          "indexed": false,
          "name": "_hashKey",
          "type": "string"
        },
        {
          "indexed": false,
          "name": "_price",
          "type": "uint256"
        }
      ],
      "name": "UpdateAsset",
      "type": "event",
      "signature": "0x5b06687e2faf130980555e1015a965e09459b7d538a348953f70a14109db3a42"
    },
    {
      "anonymous": false,
      "inputs": [
        {
          "indexed": false,
          "name": "_owner",
          "type": "address"
        },
        {
          "indexed": false,
          "name": "_id",
          "type": "uint256"
        }
      ],
      "name": "AssetRemoved",
      "type": "event",
      "signature": "0x3406221f53114f44c9a1bb93d08ee55735f39bf235a54741684a52501207bb54"
    },
    {
      "anonymous": false,
      "inputs": [
        {
          "indexed": false,
          "name": "_id",
          "type": "uint256"
        },
        {
          "indexed": false,
          "name": "_owner",
          "type": "address"
        },
        {
          "indexed": false,
          "name": "_name",
          "type": "string"
        },
        {
          "indexed": false,
          "name": "_description",
          "type": "string"
        },
        {
          "indexed": false,
          "name": "_price",
          "type": "uint256"
        },
        {
          "indexed": false,
          "name": "_available",
          "type": "bool"
        }
      ],
      "name": "Availability",
      "type": "event",
      "signature": "0xe6ed3b6f5d36476600e192b5babbf87c79d5bd296bd4c7f852ed635a34958e40"
    },
    {
      "anonymous": false,
      "inputs": [
        {
          "indexed": true,
          "name": "previousOwner",
          "type": "address"
        },
        {
          "indexed": true,
          "name": "newOwner",
          "type": "address"
        }
      ],
      "name": "OwnershipTransferred",
      "type": "event",
      "signature": "0x8be0079c531659141344cd1fd0a4f28419497f9722a3daafe3b4186f6b6457e0"
    },
    {
      "constant": false,
      "inputs": [
        {
          "name": "_name",
          "type": "string"
        },
        {
          "name": "_description",
          "type": "string"
        },
        {
          "name": "_hashKey",
          "type": "string"
        },
        {
          "name": "_price",
          "type": "uint256"
        }
      ],
      "name": "addAsset",
      "outputs": [],
      "payable": false,
      "stateMutability": "nonpayable",
      "type": "function",
      "signature": "0x82e3759d"
    },
    {
      "constant": false,
      "inputs": [
        {
          "name": "_assetId",
          "type": "uint256"
        },
        {
          "name": "_name",
          "type": "string"
        },
        {
          "name": "_description",
          "type": "string"
        },
        {
          "name": "_hashKey",
          "type": "string"
        },
        {
          "name": "_price",
          "type": "uint256"
        }
      ],
      "name": "updateAsset",
      "outputs": [],
      "payable": false,
      "stateMutability": "nonpayable",
      "type": "function",
      "signature": "0xc687857c"
    },
    {
      "constant": false,
      "inputs": [
        {
          "name": "_assetId",
          "type": "uint256"
        },
        {
          "name": "_availability",
          "type": "bool"
        }
      ],
      "name": "setAvailability",
      "outputs": [],
      "payable": false,
      "stateMutability": "nonpayable",
      "type": "function",
      "signature": "0xa865bf80"
    },
    {
      "constant": false,
      "inputs": [
        {
          "name": "_assetId",
          "type": "uint256"
        }
      ],
      "name": "removeAsset",
      "outputs": [],
      "payable": false,
      "stateMutability": "nonpayable",
      "type": "function",
      "signature": "0xf14f58f1"
    },
    {
      "constant": true,
      "inputs": [],
      "name": "getMyAssets",
      "outputs": [
        {
          "name": "",
          "type": "uint256[]"
        }
      ],
      "payable": false,
      "stateMutability": "view",
      "type": "function",
      "signature": "0x47002d1d"
    },
    {
      "constant": true,
      "inputs": [
        {
          "name": "_assetId",
          "type": "uint256"
        }
      ],
      "name": "getAsset",
      "outputs": [
        {
          "name": "_owner",
          "type": "address"
        },
        {
          "name": "_candidate",
          "type": "address"
        },
        {
          "name": "_name",
          "type": "string"
        },
        {
          "name": "_description",
          "type": "string"
        },
        {
          "name": "_hashKey",
          "type": "string"
        },
        {
          "name": "_price",
          "type": "uint256"
        },
        {
          "name": "_available",
          "type": "bool"
        }
      ],
      "payable": false,
      "stateMutability": "view",
      "type": "function",
      "signature": "0xeac8f5b8"
    },
    {
      "constant": true,
      "inputs": [
        {
          "name": "_assetId",
          "type": "uint256"
        }
      ],
      "name": "getOwner",
      "outputs": [
        {
          "name": "",
          "type": "address"
        }
      ],
      "payable": false,
      "stateMutability": "view",
      "type": "function",
      "signature": "0xc41a360a"
    },
    {
      "constant": true,
      "inputs": [
        {
          "name": "_assetId",
          "type": "uint256"
        }
      ],
      "name": "getCandidate",
      "outputs": [
        {
          "name": "",
          "type": "address"
        }
      ],
      "payable": false,
      "stateMutability": "view",
      "type": "function",
      "signature": "0x35b8e820"
    },
    {
      "constant": true,
      "inputs": [
        {
          "name": "_assetId",
          "type": "uint256"
        }
      ],
      "name": "getName",
      "outputs": [
        {
          "name": "",
          "type": "string"
        }
      ],
      "payable": false,
      "stateMutability": "view",
      "type": "function",
      "signature": "0x6b8ff574"
    },
    {
      "constant": true,
      "inputs": [
        {
          "name": "_assetId",
          "type": "uint256"
        }
      ],
      "name": "getDescription",
      "outputs": [
        {
          "name": "",
          "type": "string"
        }
      ],
      "payable": false,
      "stateMutability": "view",
      "type": "function",
      "signature": "0x4925ec55"
    },
    {
      "constant": true,
      "inputs": [
        {
          "name": "_assetId",
          "type": "uint256"
        }
      ],
      "name": "getHashKey",
      "outputs": [
        {
          "name": "",
          "type": "string"
        }
      ],
      "payable": false,
      "stateMutability": "view",
      "type": "function",
      "signature": "0x6ce9eb64"
    },
    {
      "constant": true,
      "inputs": [
        {
          "name": "_assetId",
          "type": "uint256"
        }
      ],
      "name": "getPrice",
      "outputs": [
        {
          "name": "",
          "type": "uint256"
        }
      ],
      "payable": false,
      "stateMutability": "view",
      "type": "function",
      "signature": "0xe7572230"
    },
    {
      "constant": true,
      "inputs": [
        {
          "name": "_assetId",
          "type": "uint256"
        }
      ],
      "name": "getAvailability",
      "outputs": [
        {
          "name": "",
          "type": "bool"
        }
      ],
      "payable": false,
      "stateMutability": "view",
      "type": "function",
      "signature": "0xcd6a8eca"
    }
  ],
  "bytecode": "0x6080604081905260008054600160a060020a0319163317808255600160a060020a0316917f8be0079c531659141344cd1fd0a4f28419497f9722a3daafe3b4186f6b6457e0908290a3612bd0806100576000396000f3006080604052600436106100fb5763ffffffff7c010000000000000000000000000000000000000000000000000000000060003504166335b8e820811461010057806347002d1d146101345780634925ec55146101995780636b8ff574146102265780636ce9eb641461023e578063715018a61461025657806382e3759d1461026d5780638da5cb5b146103445780638f32d59b14610359578063a865bf8014610382578063c41a360a1461039f578063c687857c146103b7578063cd6a8eca14610493578063cf35bdd0146104ab578063e757223014610652578063eac8f5b81461067c578063f14f58f11461081c578063f2fde38b14610834575b600080fd5b34801561010c57600080fd5b50610118600435610855565b60408051600160a060020a039092168252519081900360200190f35b34801561014057600080fd5b50610149610aa1565b60408051602080825283518183015283519192839290830191858101910280838360005b8381101561018557818101518382015260200161016d565b505050509050019250505060405180910390f35b3480156101a557600080fd5b506101b1600435610bf4565b6040805160208082528351818301528351919283929083019185019080838360005b838110156101eb5781810151838201526020016101d3565b50505050905090810190601f1680156102185780820380516001836020036101000a031916815260200191505b509250505060405180910390f35b34801561023257600080fd5b506101b1600435610e49565b34801561024a57600080fd5b506101b160043561109e565b34801561026257600080fd5b5061026b6112f3565b005b34801561027957600080fd5b506040805160206004803580820135601f810184900484028501840190955284845261026b94369492936024939284019190819084018382808284375050604080516020601f89358b018035918201839004830284018301909452808352979a99988101979196509182019450925082915084018382808284375050604080516020601f89358b018035918201839004830284018301909452808352979a999881019791965091820194509250829150840183828082843750949750509335945061135d9350505050565b34801561035057600080fd5b5061011861173d565b34801561036557600080fd5b5061036e61174d565b604080519115158252519081900360200190f35b34801561038e57600080fd5b5061026b600435602435151561175e565b3480156103ab57600080fd5b50610118600435611961565b3480156103c357600080fd5b5060408051602060046024803582810135601f810185900485028601850190965285855261026b95833595369560449491939091019190819084018382808284375050604080516020601f89358b018035918201839004830284018301909452808352979a99988101979196509182019450925082915084018382808284375050604080516020601f89358b018035918201839004830284018301909452808352979a9998810197919650918201945092508291508401838280828437509497505093359450611ba99350505050565b34801561049f57600080fd5b5061036e600435611f39565b3480156104b757600080fd5b506104c3600435612181565b6040518089815260200188600160a060020a0316600160a060020a0316815260200187600160a060020a0316600160a060020a0316815260200180602001806020018060200186815260200185151515158152602001848103845289818151815260200191508051906020019080838360005b8381101561054e578181015183820152602001610536565b50505050905090810190601f16801561057b5780820380516001836020036101000a031916815260200191505b5084810383528851815288516020918201918a019080838360005b838110156105ae578181015183820152602001610596565b50505050905090810190601f1680156105db5780820380516001836020036101000a031916815260200191505b50848103825287518152875160209182019189019080838360005b8381101561060e5781810151838201526020016105f6565b50505050905090810190601f16801561063b5780820380516001836020036101000a031916815260200191505b509b50505050505050505050505060405180910390f35b34801561065e57600080fd5b5061066a600435612370565b60408051918252519081900360200190f35b34801561068857600080fd5b506106946004356125b8565b6040518088600160a060020a0316600160a060020a0316815260200187600160a060020a0316600160a060020a0316815260200180602001806020018060200186815260200185151515158152602001848103845289818151815260200191508051906020019080838360005b83811015610719578181015183820152602001610701565b50505050905090810190601f1680156107465780820380516001836020036101000a031916815260200191505b5084810383528851815288516020918201918a019080838360005b83811015610779578181015183820152602001610761565b50505050905090810190601f1680156107a65780820380516001836020036101000a031916815260200191505b50848103825287518152875160209182019189019080838360005b838110156107d95781810151838201526020016107c1565b50505050905090810190601f1680156108065780820380516001836020036101000a031916815260200191505b509a505050505050505050505060405180910390f35b34801561082857600080fd5b5061026b600435612874565b34801561084057600080fd5b5061026b600160a060020a03600435166129bd565b600061085f612a72565b600083815260016020818152604092839020835161010080820186528254825282850154600160a060020a0390811683860152600280850154909116838801526003840180548851978116159093026000190190921604601f81018590048502860185019096528585529094919360608601939092908301828280156109265780601f106108fb57610100808354040283529160200191610926565b820191906000526020600020905b81548152906001019060200180831161090957829003601f168201915b505050918352505060048201805460408051602060026001851615610100026000190190941693909304601f81018490048402820184019092528181529382019392918301828280156109ba5780601f1061098f576101008083540402835291602001916109ba565b820191906000526020600020905b81548152906001019060200180831161099d57829003601f168201915b505050918352505060058201805460408051602060026001851615610100026000190190941693909304601f8101849004840282018401909252818152938201939291830182828015610a4e5780601f10610a2357610100808354040283529160200191610a4e565b820191906000526020600020905b815481529060010190602001808311610a3157829003601f168201915b5050509183525050600682015460208083019190915260079092015460ff161515604090910152810151909150600160a060020a03161515610a935760009150610a9b565b806040015191505b50919050565b6060806000806060600060025460001415610acc576040805160008152602081019091529550610bec565b600254604051908082528060200260200182016040528015610af8578160200160208202803883390190505b50945060009350600192505b6002548311610b765760008381526001602081905260409091200154600160a060020a0316331415610b6b576000838152600160205260409020548551869086908110610b4d57fe5b60209081029091010152610b6884600163ffffffff6129dc16565b93505b600190920191610b04565b83604051908082528060200260200182016040528015610ba0578160200160208202803883390190505b509150600090505b83811015610be8578481815181101515610bbe57fe5b906020019060200201518282815181101515610bd657fe5b60209081029091010152600101610ba8565b8195505b505050505090565b6060610bfe612a72565b600083815260016020818152604092839020835161010080820186528254825282850154600160a060020a0390811683860152600280850154909116838801526003840180548851978116159093026000190190921604601f8101859004850286018501909652858552909491936060860193909290830182828015610cc55780601f10610c9a57610100808354040283529160200191610cc5565b820191906000526020600020905b815481529060010190602001808311610ca857829003601f168201915b505050918352505060048201805460408051602060026001851615610100026000190190941693909304601f8101849004840282018401909252818152938201939291830182828015610d595780601f10610d2e57610100808354040283529160200191610d59565b820191906000526020600020905b815481529060010190602001808311610d3c57829003601f168201915b505050918352505060058201805460408051602060026001851615610100026000190190941693909304601f8101849004840282018401909252818152938201939291830182828015610ded5780601f10610dc257610100808354040283529160200191610ded565b820191906000526020600020905b815481529060010190602001808311610dd057829003601f168201915b5050509183525050600682015460208083019190915260079092015460ff161515604090910152810151909150600160a060020a03161515610e3f576040805160208101909152600081529150610a9b565b6080015192915050565b6060610e53612a72565b600083815260016020818152604092839020835161010080820186528254825282850154600160a060020a0390811683860152600280850154909116838801526003840180548851978116159093026000190190921604601f8101859004850286018501909652858552909491936060860193909290830182828015610f1a5780601f10610eef57610100808354040283529160200191610f1a565b820191906000526020600020905b815481529060010190602001808311610efd57829003601f168201915b505050918352505060048201805460408051602060026001851615610100026000190190941693909304601f8101849004840282018401909252818152938201939291830182828015610fae5780601f10610f8357610100808354040283529160200191610fae565b820191906000526020600020905b815481529060010190602001808311610f9157829003601f168201915b505050918352505060058201805460408051602060026001851615610100026000190190941693909304601f81018490048402820184019092528181529382019392918301828280156110425780601f1061101757610100808354040283529160200191611042565b820191906000526020600020905b81548152906001019060200180831161102557829003601f168201915b5050509183525050600682015460208083019190915260079092015460ff161515604090910152810151909150600160a060020a03161515611094576040805160208101909152600081529150610a9b565b6060015192915050565b60606110a8612a72565b600083815260016020818152604092839020835161010080820186528254825282850154600160a060020a0390811683860152600280850154909116838801526003840180548851978116159093026000190190921604601f810185900485028601850190965285855290949193606086019390929083018282801561116f5780601f106111445761010080835404028352916020019161116f565b820191906000526020600020905b81548152906001019060200180831161115257829003601f168201915b505050918352505060048201805460408051602060026001851615610100026000190190941693909304601f81018490048402820184019092528181529382019392918301828280156112035780601f106111d857610100808354040283529160200191611203565b820191906000526020600020905b8154815290600101906020018083116111e657829003601f168201915b505050918352505060058201805460408051602060026001851615610100026000190190941693909304601f81018490048402820184019092528181529382019392918301828280156112975780601f1061126c57610100808354040283529160200191611297565b820191906000526020600020905b81548152906001019060200180831161127a57829003601f168201915b5050509183525050600682015460208083019190915260079092015460ff161515604090910152810151909150600160a060020a031615156112e9576040805160208101909152600081529150610a9b565b60a0015192915050565b6112fb61174d565b151561130657600080fd5b60008054604051600160a060020a03909116907f8be0079c531659141344cd1fd0a4f28419497f9722a3daafe3b4186f6b6457e0908390a36000805473ffffffffffffffffffffffffffffffffffffffff19169055565b8351849060609081906000106113bd576040805160e560020a62461bcd02815260206004820152601260248201527f41206e616d652069732072657175697265640000000000000000000000000000604482015290519081900360640190fd5b8551869250600010611419576040805160e560020a62461bcd02815260206004820152601960248201527f41206465736372697074696f6e20697320726571756972656400000000000000604482015290519081900360640190fd5b5083518490600010611475576040805160e560020a62461bcd02815260206004820181905260248201527f412068617368206b65792066726f6d2049504653206973207265717569726564604482015290519081900360640190fd5b60025461148990600163ffffffff6129dc16565b600281815560408051610100810182528381523360208083019182526000838501818152606085018f8152608086018f905260a086018e905260c086018d905260e086018390529782526001808452959091208451815592519483018054600160a060020a0396871673ffffffffffffffffffffffffffffffffffffffff1991821617909155905195830180549690951695169490941790925592518051919261153b92600385019290910190612acc565b5060808201518051611557916004840191602090910190612acc565b5060a08201518051611573916005840191602090910190612acc565b5060c0820151816006015560e08201518160070160006101000a81548160ff0219169083151502179055509050507f4efe84f42f5dc8e26465778176a705ad3410cf364c7671cb60cfc8e1f5fe7f3a60025433898989896040518087815260200186600160a060020a0316600160a060020a03168152602001806020018060200180602001858152602001848103845288818151815260200191508051906020019080838360005b8381101561163357818101518382015260200161161b565b50505050905090810190601f1680156116605780820380516001836020036101000a031916815260200191505b50848103835287518152875160209182019189019080838360005b8381101561169357818101518382015260200161167b565b50505050905090810190601f1680156116c05780820380516001836020036101000a031916815260200191505b50848103825286518152865160209182019188019080838360005b838110156116f35781810151838201526020016116db565b50505050905090810190601f1680156117205780820380516001836020036101000a031916815260200191505b50995050505050505050505060405180910390a150505050505050565b600054600160a060020a03165b90565b600054600160a060020a0316331490565b600082815260016020819052604090912090810154600160a060020a031615156117875761195c565b6001810154600160a060020a031633146117eb576040805160e560020a62461bcd02815260206004820181905260248201527f416374696f6e20616c6c6f776564206f6e6c7920746f20746865206f776e6572604482015290519081900360640190fd5b60078101805460ff191683151590811790915560068201546040805186815233602082018190526080820184905260a082019490945260c0918101828152600386018054600261010060018316150260001901909116049383018490527fe6ed3b6f5d36476600e192b5babbf87c79d5bd296bd4c7f852ed635a34958e4095899590949193600489019391928a9290606083019060e0840190889080156118d35780601f106118a8576101008083540402835291602001916118d3565b820191906000526020600020905b8154815290600101906020018083116118b657829003601f168201915b50508381038252865460026000196101006001841615020190911604808252602090910190879080156119475780601f1061191c57610100808354040283529160200191611947565b820191906000526020600020905b81548152906001019060200180831161192a57829003601f168201915b50509850505050505050505060405180910390a15b505050565b600061196b612a72565b600083815260016020818152604092839020835161010080820186528254825282850154600160a060020a0390811683860152600280850154909116838801526003840180548851978116159093026000190190921604601f8101859004850286018501909652858552909491936060860193909290830182828015611a325780601f10611a0757610100808354040283529160200191611a32565b820191906000526020600020905b815481529060010190602001808311611a1557829003601f168201915b505050918352505060048201805460408051602060026001851615610100026000190190941693909304601f8101849004840282018401909252818152938201939291830182828015611ac65780601f10611a9b57610100808354040283529160200191611ac6565b820191906000526020600020905b815481529060010190602001808311611aa957829003601f168201915b505050918352505060058201805460408051602060026001851615610100026000190190941693909304601f8101849004840282018401909252818152938201939291830182828015611b5a5780601f10611b2f57610100808354040283529160200191611b5a565b820191906000526020600020905b815481529060010190602001808311611b3d57829003601f168201915b5050509183525050600682015460208083019190915260079092015460ff161515604090910152810151909150600160a060020a03161515611b9f5760009150610a9b565b6020015192915050565b60008581526001602081905260409091209081015460609081908190600160a060020a03161515611bd957611f2e565b6001840154600160a060020a03163314611c3d576040805160e560020a62461bcd02815260206004820181905260248201527f416374696f6e20616c6c6f776564206f6e6c7920746f20746865206f776e6572604482015290519081900360640190fd5b8751889350600010611c99576040805160e560020a62461bcd02815260206004820152601260248201527f41206e616d652069732072657175697265640000000000000000000000000000604482015290519081900360640190fd5b8651879250600010611cf5576040805160e560020a62461bcd02815260206004820152601960248201527f41206465736372697074696f6e20697320726571756972656400000000000000604482015290519081900360640190fd5b5084518590600010611d51576040805160e560020a62461bcd02815260206004820181905260248201527f412068617368206b65792066726f6d2049504653206973207265717569726564604482015290519081900360640190fd5b8751611d6690600386019060208b0190612acc565b508651611d7c90600486019060208a0190612acc565b508551611d929060058601906020890190612acc565b508484600601819055507f5b06687e2faf130980555e1015a965e09459b7d538a348953f70a14109db3a4289338a8a8a8a6040518087815260200186600160a060020a0316600160a060020a03168152602001806020018060200180602001858152602001848103845288818151815260200191508051906020019080838360005b83811015611e2c578181015183820152602001611e14565b50505050905090810190601f168015611e595780820380516001836020036101000a031916815260200191505b50848103835287518152875160209182019189019080838360005b83811015611e8c578181015183820152602001611e74565b50505050905090810190601f168015611eb95780820380516001836020036101000a031916815260200191505b50848103825286518152865160209182019188019080838360005b83811015611eec578181015183820152602001611ed4565b50505050905090810190601f168015611f195780820380516001836020036101000a031916815260200191505b50995050505050505050505060405180910390a15b505050505050505050565b6000611f43612a72565b600083815260016020818152604092839020835161010080820186528254825282850154600160a060020a0390811683860152600280850154909116838801526003840180548851978116159093026000190190921604601f810185900485028601850190965285855290949193606086019390929083018282801561200a5780601f10611fdf5761010080835404028352916020019161200a565b820191906000526020600020905b815481529060010190602001808311611fed57829003601f168201915b505050918352505060048201805460408051602060026001851615610100026000190190941693909304601f810184900484028201840190925281815293820193929183018282801561209e5780601f106120735761010080835404028352916020019161209e565b820191906000526020600020905b81548152906001019060200180831161208157829003601f168201915b505050918352505060058201805460408051602060026001851615610100026000190190941693909304601f81018490048402820184019092528181529382019392918301828280156121325780601f1061210757610100808354040283529160200191612132565b820191906000526020600020905b81548152906001019060200180831161211557829003601f168201915b5050509183525050600682015460208083019190915260079092015460ff161515604090910152810151909150600160a060020a031615156121775760009150610a9b565b60e0015192915050565b60016020818152600092835260409283902080548184015460028084015460038501805489516101009982161599909902600019011692909204601f81018790048702880187019098528787529296600160a060020a03928316969290931694919290918301828280156122365780601f1061220b57610100808354040283529160200191612236565b820191906000526020600020905b81548152906001019060200180831161221957829003601f168201915b5050505060048301805460408051602060026001851615610100026000190190941693909304601f81018490048402820184019092528181529495949350908301828280156122c65780601f1061229b576101008083540402835291602001916122c6565b820191906000526020600020905b8154815290600101906020018083116122a957829003601f168201915b5050505060058301805460408051602060026001851615610100026000190190941693909304601f81018490048402820184019092528181529495949350908301828280156123565780601f1061232b57610100808354040283529160200191612356565b820191906000526020600020905b81548152906001019060200180831161233957829003601f168201915b50505050600683015460079093015491929160ff16905088565b600061237a612a72565b600083815260016020818152604092839020835161010080820186528254825282850154600160a060020a0390811683860152600280850154909116838801526003840180548851978116159093026000190190921604601f81018590048502860185019096528585529094919360608601939092908301828280156124415780601f1061241657610100808354040283529160200191612441565b820191906000526020600020905b81548152906001019060200180831161242457829003601f168201915b505050918352505060048201805460408051602060026001851615610100026000190190941693909304601f81018490048402820184019092528181529382019392918301828280156124d55780601f106124aa576101008083540402835291602001916124d5565b820191906000526020600020905b8154815290600101906020018083116124b857829003601f168201915b505050918352505060058201805460408051602060026001851615610100026000190190941693909304601f81018490048402820184019092528181529382019392918301828280156125695780601f1061253e57610100808354040283529160200191612569565b820191906000526020600020905b81548152906001019060200180831161254c57829003601f168201915b5050509183525050600682015460208083019190915260079092015460ff161515604090910152810151909150600160a060020a031615156125ae5760009150610a9b565b60c0015192915050565b60008060608060606000806125cb612a72565b600089815260016020818152604092839020835161010080820186528254825282850154600160a060020a0390811683860152600280850154909116838801526003840180548851978116159093026000190190921604601f81018590048502860185019096528585529094919360608601939092908301828280156126925780601f1061266757610100808354040283529160200191612692565b820191906000526020600020905b81548152906001019060200180831161267557829003601f168201915b505050918352505060048201805460408051602060026001851615610100026000190190941693909304601f81018490048402820184019092528181529382019392918301828280156127265780601f106126fb57610100808354040283529160200191612726565b820191906000526020600020905b81548152906001019060200180831161270957829003601f168201915b505050918352505060058201805460408051602060026001851615610100026000190190941693909304601f81018490048402820184019092528181529382019392918301828280156127ba5780601f1061278f576101008083540402835291602001916127ba565b820191906000526020600020905b81548152906001019060200180831161279d57829003601f168201915b5050509183525050600682015460208083019190915260079092015460ff161515604090910152810151909150600160a060020a0316151561283357604080516020818101835260008083528351808301855281815284519283019094528082529a508a99509097509095509350869250829150612868565b602081015160408201516060830151608084015160a085015160c086015160e0870151959d50939b5091995097509550935091505b50919395979092949650565b600081815260016020819052604090912090810154600160a060020a0316151561289d576129b9565b6001810154600160a060020a03163314612901576040805160e560020a62461bcd02815260206004820181905260248201527f416374696f6e20616c6c6f776564206f6e6c7920746f20746865206f776e6572604482015290519081900360640190fd5b60008281526001602081905260408220828155908101805473ffffffffffffffffffffffffffffffffffffffff1990811690915560028201805490911690559061294e6003830182612b4a565b61295c600483016000612b4a565b61296a600583016000612b4a565b5060006006820155600701805460ff19169055604080513381526020810184905281517f3406221f53114f44c9a1bb93d08ee55735f39bf235a54741684a52501207bb54929181900390910190a15b5050565b6129c561174d565b15156129d057600080fd5b6129d9816129f5565b50565b6000828201838110156129ee57600080fd5b9392505050565b600160a060020a0381161515612a0a57600080fd5b60008054604051600160a060020a03808516939216917f8be0079c531659141344cd1fd0a4f28419497f9722a3daafe3b4186f6b6457e091a36000805473ffffffffffffffffffffffffffffffffffffffff1916600160a060020a0392909216919091179055565b61010060405190810160405280600081526020016000600160a060020a031681526020016000600160a060020a03168152602001606081526020016060815260200160608152602001600081526020016000151581525090565b828054600181600116156101000203166002900490600052602060002090601f016020900481019282601f10612b0d57805160ff1916838001178555612b3a565b82800160010185558215612b3a579182015b82811115612b3a578251825591602001919060010190612b1f565b50612b46929150612b8a565b5090565b50805460018160011615610100020316600290046000825580601f10612b7057506129d9565b601f0160209004906000526020600020908101906129d991905b61174a91905b80821115612b465760008155600101612b905600a165627a7a723058200a01332344a4b1683bfd0363403505a878f01e128e631f02a584098165a58cdc0029",
  "source": "pragma solidity ^0.4.25;\n\nimport 'openzeppelin-solidity/contracts/ownership/Ownable.sol';\nimport 'openzeppelin-solidity/contracts/math/SafeMath.sol';\n\ncontract AssetContract is Ownable {\n\n    //\n    // OpenZeppeling specifics\n    //\n    using SafeMath for uint256;\n\n    //\n    // state variables\n    //\n\n    // description of an asset item\n    struct AssetItem {\n        uint id;                // id in the list\n        address owner;          // asset's owner\n        address candidate;      // candidate owner\n        string name;\n        string description;\n        string hashKey;         // hashkey of the asset stored in IPFS\n        uint256 price;          // price in Wei\n        bool available;         // true if the asset can be sold in the marketplace\n    }\n\n    // List of asset\n    mapping(uint => AssetItem) public assets;\n\n    // number of assets\n    uint256 assetCounter;\n\n\n    //\n    // Events\n    //\n    event NewAsset(uint256 _id, address _owner, string _name, string _description, string _hashKey, uint256 _price);\n    event UpdateAsset(uint256 _id, address _owner, string _name, string _description, string _hashKey, uint256 _price);\n    event AssetRemoved(address _owner, uint _id);\n    event Availability(uint256 _id, address _owner, string _name, string _description, uint256 _price, bool _available);\n\n    //\n    // Implementation\n    //\n\n    // add a new asset\n    function addAsset(string _name, string _description, string _hashKey, uint256 _price) public {\n        // a name is required\n        bytes memory name = bytes(_name);\n        require(name.length > 0, \"A name is required\");\n\n        // a description is required\n        bytes memory description = bytes(_description);\n        require(description.length > 0, \"A description is required\");\n\n        // an IPFS hash key is required\n        bytes memory hashKey = bytes(_hashKey);\n        require(hashKey.length > 0, \"A hash key from IPFS is required\");\n\n        // new asset\n        assetCounter = assetCounter.add(1);\n\n        // store the new asset\n        assets[assetCounter] = AssetItem(assetCounter, msg.sender, 0x0, _name, _description, _hashKey, _price, false);\n\n        emit NewAsset(assetCounter, msg.sender, _name, _description, _hashKey, _price);\n    }\n\n    // update an existing asset\n    // only possible for the asset's owner\n    function updateAsset(uint256 _assetId, string _name, string _description, string _hashKey, uint256 _price) public {\n        AssetItem storage asset = assets[_assetId];\n\n        // is this asset exists?\n        if (asset.owner == 0x0) {\n            return;\n        }\n\n        // only the asset's owner is allowed to update this asset\n        require(msg.sender == asset.owner, \"Action allowed only to the owner\");\n\n        // a name is required\n        bytes memory name = bytes(_name);\n        require(name.length > 0, \"A name is required\");\n\n        // a description is required\n        bytes memory description = bytes(_description);\n        require(description.length > 0, \"A description is required\");\n\n        // an IPFS hash key is required\n        bytes memory hashKey = bytes(_hashKey);\n        require(hashKey.length > 0, \"A hash key from IPFS is required\");\n\n        // update the asset\n        asset.name = _name;\n        asset.description = _description;\n        asset.hashKey = _hashKey;\n        asset.price = _price;\n\n        emit UpdateAsset(_assetId, msg.sender, _name, _description, _hashKey, _price);\n    }\n\n    // update the availability of the asset in the marketplace\n    // only possible for the asset's owner\n    function setAvailability(uint256 _assetId, bool _availability) public {\n        AssetItem storage asset = assets[_assetId];\n\n        // is this asset exists?\n        if (asset.owner == 0x0) {\n            return;\n        }\n\n        // only the asset's owner is allowed to update this asset\n        require(msg.sender == asset.owner, \"Action allowed only to the owner\");\n\n        // update the availability of the asset in the marketplace\n        asset.available = _availability;\n\n        emit Availability(_assetId, msg.sender, asset.name, asset.description, asset.price, _availability);\n    }\n\n    // remove an asset\n    function removeAsset(uint _assetId) public {\n        AssetItem storage asset = assets[_assetId];\n\n        // is this asset exists?\n        if (asset.owner == 0x0) {\n            return;\n        }\n\n        // only the asset's owner is allowed to remove this asset\n        require(msg.sender == asset.owner, \"Action allowed only to the owner\");\n\n        // remove the asset\n        delete assets[_assetId];\n\n        emit AssetRemoved(msg.sender, _assetId);\n    }\n\n    // return asset IDs owned by the function's caller\n    function getMyAssets() view public returns (uint[]) {\n        if (assetCounter == 0) {\n            return new uint[](0);\n        }\n\n        // prepare output array\n        uint256[] memory assetIDs = new uint[](assetCounter);\n\n        // iterate over assets\n        uint256 numberOfAssets = 0;\n        for (uint i = 1; i <= assetCounter; i++) {\n            // keep the ID of the asset owned by the sender\n            if (assets[i].owner == msg.sender) {\n                assetIDs[numberOfAssets] = assets[i].id;\n\n                numberOfAssets = numberOfAssets.add(1);\n            }\n        }\n\n        // copy the asset ID array into a smaller array\n        uint256[] memory myAsset = new uint[](numberOfAssets);\n        for (uint j = 0; j < numberOfAssets; j++) {\n            myAsset[j] = assetIDs[j];\n        }\n\n        return myAsset;\n    }\n\n\n    // Retrieve an asset based on its ID\n    function getAsset(uint _assetId) view public returns (\n        address _owner,\n        address _candidate,\n        string _name,\n        string _description,\n        string _hashKey,\n        uint256 _price,\n        bool _available) {\n\n        AssetItem memory asset = assets[_assetId];\n\n        // ensure that we have an asset to fetch\n        if (asset.owner == 0x0) {\n            return (0x0, 0x0, \"\", \"\", \"\", 0, false);\n        }\n\n        return (\n            asset.owner,\n            asset.candidate,\n            asset.name,\n            asset.description,\n            asset.hashKey,\n            asset.price,\n            asset.available);\n    }\n\n\n    function getOwner(uint _assetId) view public returns (address) {\n        AssetItem memory asset = assets[_assetId];\n\n        // ensure that we have an asset to fetch\n        if (asset.owner == 0x0) {\n            return (0x0);\n        }\n\n\n        return asset.owner;\n    }\n\n    function getCandidate(uint _assetId) view public returns (address) {\n        AssetItem memory asset = assets[_assetId];\n\n        // ensure that we have an asset to fetch\n        if (asset.owner == 0x0) {\n            return (0x0);\n        }\n\n\n        return asset.candidate;\n    }\n\n\n    function getName(uint _assetId) view public returns (string) {\n        AssetItem memory asset = assets[_assetId];\n\n        // ensure that we have an asset to fetch\n        if (asset.owner == 0x0) {\n            return (\"\");\n        }\n\n\n        return asset.name;\n    }\n\n    function getDescription(uint _assetId) view public returns (string) {\n        AssetItem memory asset = assets[_assetId];\n\n        // ensure that we have an asset to fetch\n        if (asset.owner == 0x0) {\n            return (\"\");\n        }\n\n\n        return asset.description;\n    }\n\n    function getHashKey(uint _assetId) view public returns (string) {\n        AssetItem memory asset = assets[_assetId];\n\n        // ensure that we have an asset to fetch\n        if (asset.owner == 0x0) {\n            return (\"\");\n        }\n\n\n        return asset.hashKey;\n    }\n\n    function getPrice(uint _assetId) view public returns (uint256) {\n        AssetItem memory asset = assets[_assetId];\n\n        // ensure that we have an asset to fetch\n        if (asset.owner == 0x0) {\n            return (0);\n        }\n\n\n        return asset.price;\n    }\n\n    function getAvailability(uint _assetId) view public returns (bool) {\n        AssetItem memory asset = assets[_assetId];\n\n        // ensure that we have an asset to fetch\n        if (asset.owner == 0x0) {\n            return (false);\n        }\n\n\n        return asset.available;\n    }\n}",
  "sourcePath": "/Users/eloudsa/ChainSkills/projects/depositum/contracts/AssetContract.sol",
  "compiler": {
    "name": "solc",
    "version": "0.4.25+commit.59dbf8f1.Emscripten.clang"
  },
  "schemaVersion": "3.0.0-beta.1",
  "updatedAt": "2018-11-11T17:08:22.068Z"
}