{
  "contractName": "AssetContract",
  "abi": [
    {
      "constant": true,
      "inputs": [],
      "name": "name",
      "outputs": [
        {
          "name": "",
          "type": "string"
        }
      ],
      "payable": false,
      "stateMutability": "view",
      "type": "function",
      "signature": "0x06fdde03"
    },
    {
      "constant": false,
      "inputs": [
        {
          "name": "spender",
          "type": "address"
        },
        {
          "name": "value",
          "type": "uint256"
        }
      ],
      "name": "approve",
      "outputs": [
        {
          "name": "",
          "type": "bool"
        }
      ],
      "payable": false,
      "stateMutability": "nonpayable",
      "type": "function",
      "signature": "0x095ea7b3"
    },
    {
      "constant": true,
      "inputs": [],
      "name": "getServiceFee",
      "outputs": [
        {
          "name": "_serviceFee",
          "type": "uint256"
        }
      ],
      "payable": false,
      "stateMutability": "view",
      "type": "function",
      "signature": "0x11a1933c"
    },
    {
      "constant": true,
      "inputs": [],
      "name": "totalSupply",
      "outputs": [
        {
          "name": "",
          "type": "uint256"
        }
      ],
      "payable": false,
      "stateMutability": "view",
      "type": "function",
      "signature": "0x18160ddd"
    },
    {
      "constant": false,
      "inputs": [
        {
          "name": "from",
          "type": "address"
        },
        {
          "name": "to",
          "type": "address"
        },
        {
          "name": "value",
          "type": "uint256"
        }
      ],
      "name": "transferFrom",
      "outputs": [
        {
          "name": "",
          "type": "bool"
        }
      ],
      "payable": false,
      "stateMutability": "nonpayable",
      "type": "function",
      "signature": "0x23b872dd"
    },
    {
      "constant": true,
      "inputs": [],
      "name": "rate",
      "outputs": [
        {
          "name": "",
          "type": "uint256"
        }
      ],
      "payable": false,
      "stateMutability": "view",
      "type": "function",
      "signature": "0x2c4e722e"
    },
    {
      "constant": true,
      "inputs": [],
      "name": "decimals",
      "outputs": [
        {
          "name": "",
          "type": "uint8"
        }
      ],
      "payable": false,
      "stateMutability": "view",
      "type": "function",
      "signature": "0x313ce567"
    },
    {
      "constant": false,
      "inputs": [
        {
          "name": "_newRate",
          "type": "uint256"
        }
      ],
      "name": "setRate",
      "outputs": [],
      "payable": false,
      "stateMutability": "nonpayable",
      "type": "function",
      "signature": "0x34fcf437"
    },
    {
      "constant": false,
      "inputs": [
        {
          "name": "spender",
          "type": "address"
        },
        {
          "name": "addedValue",
          "type": "uint256"
        }
      ],
      "name": "increaseAllowance",
      "outputs": [
        {
          "name": "",
          "type": "bool"
        }
      ],
      "payable": false,
      "stateMutability": "nonpayable",
      "type": "function",
      "signature": "0x39509351"
    },
    {
      "constant": false,
      "inputs": [
        {
          "name": "to",
          "type": "address"
        },
        {
          "name": "value",
          "type": "uint256"
        }
      ],
      "name": "mint",
      "outputs": [
        {
          "name": "",
          "type": "bool"
        }
      ],
      "payable": false,
      "stateMutability": "nonpayable",
      "type": "function",
      "signature": "0x40c10f19"
    },
    {
      "constant": false,
      "inputs": [
        {
          "name": "_serviceFee",
          "type": "uint256"
        }
      ],
      "name": "setServiceFee",
      "outputs": [],
      "payable": false,
      "stateMutability": "nonpayable",
      "type": "function",
      "signature": "0x5cdf76f8"
    },
    {
      "constant": true,
      "inputs": [],
      "name": "getRate",
      "outputs": [
        {
          "name": "_rate",
          "type": "uint256"
        }
      ],
      "payable": false,
      "stateMutability": "view",
      "type": "function",
      "signature": "0x679aefce"
    },
    {
      "constant": true,
      "inputs": [
        {
          "name": "owner",
          "type": "address"
        }
      ],
      "name": "balanceOf",
      "outputs": [
        {
          "name": "",
          "type": "uint256"
        }
      ],
      "payable": false,
      "stateMutability": "view",
      "type": "function",
      "signature": "0x70a08231"
    },
    {
      "constant": false,
      "inputs": [],
      "name": "renounceOwnership",
      "outputs": [],
      "payable": false,
      "stateMutability": "nonpayable",
      "type": "function",
      "signature": "0x715018a6"
    },
    {
      "constant": true,
      "inputs": [],
      "name": "serviceFee",
      "outputs": [
        {
          "name": "",
          "type": "uint256"
        }
      ],
      "payable": false,
      "stateMutability": "view",
      "type": "function",
      "signature": "0x8abdf5aa"
    },
    {
      "constant": true,
      "inputs": [],
      "name": "owner",
      "outputs": [
        {
          "name": "",
          "type": "address"
        }
      ],
      "payable": false,
      "stateMutability": "view",
      "type": "function",
      "signature": "0x8da5cb5b"
    },
    {
      "constant": true,
      "inputs": [],
      "name": "isOwner",
      "outputs": [
        {
          "name": "",
          "type": "bool"
        }
      ],
      "payable": false,
      "stateMutability": "view",
      "type": "function",
      "signature": "0x8f32d59b"
    },
    {
      "constant": true,
      "inputs": [],
      "name": "getEarnings",
      "outputs": [
        {
          "name": "_balanceEarnings",
          "type": "uint256"
        }
      ],
      "payable": false,
      "stateMutability": "view",
      "type": "function",
      "signature": "0x90666232"
    },
    {
      "constant": true,
      "inputs": [],
      "name": "symbol",
      "outputs": [
        {
          "name": "",
          "type": "string"
        }
      ],
      "payable": false,
      "stateMutability": "view",
      "type": "function",
      "signature": "0x95d89b41"
    },
    {
      "constant": true,
      "inputs": [
        {
          "name": "",
          "type": "uint256"
        }
      ],
      "name": "depositsBalance",
      "outputs": [
        {
          "name": "",
          "type": "uint256"
        }
      ],
      "payable": false,
      "stateMutability": "view",
      "type": "function",
      "signature": "0x981b5804"
    },
    {
      "constant": false,
      "inputs": [
        {
          "name": "account",
          "type": "address"
        }
      ],
      "name": "addMinter",
      "outputs": [],
      "payable": false,
      "stateMutability": "nonpayable",
      "type": "function",
      "signature": "0x983b2d56"
    },
    {
      "constant": false,
      "inputs": [],
      "name": "renounceMinter",
      "outputs": [],
      "payable": false,
      "stateMutability": "nonpayable",
      "type": "function",
      "signature": "0x98650275"
    },
    {
      "constant": false,
      "inputs": [
        {
          "name": "_tokens",
          "type": "uint256"
        }
      ],
      "name": "mint",
      "outputs": [],
      "payable": false,
      "stateMutability": "nonpayable",
      "type": "function",
      "signature": "0xa0712d68"
    },
    {
      "constant": false,
      "inputs": [
        {
          "name": "spender",
          "type": "address"
        },
        {
          "name": "subtractedValue",
          "type": "uint256"
        }
      ],
      "name": "decreaseAllowance",
      "outputs": [
        {
          "name": "",
          "type": "bool"
        }
      ],
      "payable": false,
      "stateMutability": "nonpayable",
      "type": "function",
      "signature": "0xa457c2d7"
    },
    {
      "constant": false,
      "inputs": [
        {
          "name": "to",
          "type": "address"
        },
        {
          "name": "value",
          "type": "uint256"
        }
      ],
      "name": "transfer",
      "outputs": [
        {
          "name": "",
          "type": "bool"
        }
      ],
      "payable": false,
      "stateMutability": "nonpayable",
      "type": "function",
      "signature": "0xa9059cbb"
    },
    {
      "constant": true,
      "inputs": [
        {
          "name": "account",
          "type": "address"
        }
      ],
      "name": "isMinter",
      "outputs": [
        {
          "name": "",
          "type": "bool"
        }
      ],
      "payable": false,
      "stateMutability": "view",
      "type": "function",
      "signature": "0xaa271e1a"
    },
    {
      "constant": true,
      "inputs": [
        {
          "name": "",
          "type": "uint256"
        }
      ],
      "name": "assets",
      "outputs": [
        {
          "name": "id",
          "type": "uint256"
        },
        {
          "name": "owner",
          "type": "address"
        },
        {
          "name": "candidate",
          "type": "address"
        },
        {
          "name": "name",
          "type": "string"
        },
        {
          "name": "description",
          "type": "string"
        },
        {
          "name": "hashKey",
          "type": "string"
        },
        {
          "name": "price",
          "type": "uint256"
        },
        {
          "name": "available",
          "type": "bool"
        }
      ],
      "payable": false,
      "stateMutability": "view",
      "type": "function",
      "signature": "0xcf35bdd0"
    },
    {
      "constant": false,
      "inputs": [],
      "name": "buyTokens",
      "outputs": [],
      "payable": true,
      "stateMutability": "payable",
      "type": "function",
      "signature": "0xd0febe4c"
    },
    {
      "constant": true,
      "inputs": [
        {
          "name": "owner",
          "type": "address"
        },
        {
          "name": "spender",
          "type": "address"
        }
      ],
      "name": "allowance",
      "outputs": [
        {
          "name": "",
          "type": "uint256"
        }
      ],
      "payable": false,
      "stateMutability": "view",
      "type": "function",
      "signature": "0xdd62ed3e"
    },
    {
      "constant": false,
      "inputs": [
        {
          "name": "newOwner",
          "type": "address"
        }
      ],
      "name": "transferOwnership",
      "outputs": [],
      "payable": false,
      "stateMutability": "nonpayable",
      "type": "function",
      "signature": "0xf2fde38b"
    },
    {
      "constant": false,
      "inputs": [],
      "name": "transferEarnings",
      "outputs": [],
      "payable": false,
      "stateMutability": "nonpayable",
      "type": "function",
      "signature": "0xfe37f5ca"
    },
    {
      "inputs": [
        {
          "name": "_rate",
          "type": "uint256"
        },
        {
          "name": "_tokens",
          "type": "uint256"
        },
        {
          "name": "_serviceFee",
          "type": "uint256"
        }
      ],
      "payable": false,
      "stateMutability": "nonpayable",
      "type": "constructor",
      "signature": "constructor"
    },
    {
      "anonymous": false,
      "inputs": [
        {
          "indexed": false,
          "name": "_assetId",
          "type": "uint256"
        },
        {
          "indexed": false,
          "name": "_owner",
          "type": "address"
        },
        {
          "indexed": false,
          "name": "_name",
          "type": "string"
        },
        {
          "indexed": false,
          "name": "_description",
          "type": "string"
        },
        {
          "indexed": false,
          "name": "_hashKey",
          "type": "string"
        },
        {
          "indexed": false,
          "name": "_price",
          "type": "uint256"
        }
      ],
      "name": "NewAsset",
      "type": "event",
      "signature": "0x4efe84f42f5dc8e26465778176a705ad3410cf364c7671cb60cfc8e1f5fe7f3a"
    },
    {
      "anonymous": false,
      "inputs": [
        {
          "indexed": false,
          "name": "_assetId",
          "type": "uint256"
        },
        {
          "indexed": false,
          "name": "_owner",
          "type": "address"
        },
        {
          "indexed": false,
          "name": "_name",
          "type": "string"
        },
        {
          "indexed": false,
          "name": "_description",
          "type": "string"
        },
        {
          "indexed": false,
          "name": "_hashKey",
          "type": "string"
        },
        {
          "indexed": false,
          "name": "_price",
          "type": "uint256"
        }
      ],
      "name": "UpdateAsset",
      "type": "event",
      "signature": "0x5b06687e2faf130980555e1015a965e09459b7d538a348953f70a14109db3a42"
    },
    {
      "anonymous": false,
      "inputs": [
        {
          "indexed": false,
          "name": "_owner",
          "type": "address"
        },
        {
          "indexed": false,
          "name": "_assetId",
          "type": "uint256"
        }
      ],
      "name": "AssetRemoved",
      "type": "event",
      "signature": "0x3406221f53114f44c9a1bb93d08ee55735f39bf235a54741684a52501207bb54"
    },
    {
      "anonymous": false,
      "inputs": [
        {
          "indexed": false,
          "name": "_assetId",
          "type": "uint256"
        },
        {
          "indexed": false,
          "name": "_owner",
          "type": "address"
        },
        {
          "indexed": false,
          "name": "_name",
          "type": "string"
        },
        {
          "indexed": false,
          "name": "_description",
          "type": "string"
        },
        {
          "indexed": false,
          "name": "_price",
          "type": "uint256"
        }
      ],
      "name": "SetMarketplace",
      "type": "event",
      "signature": "0x5d095dcaf5e2fe5894fd51fdc2e637dd6095cb9b9b3c20d178cecc053a7a8c4e"
    },
    {
      "anonymous": false,
      "inputs": [
        {
          "indexed": false,
          "name": "_assetId",
          "type": "uint256"
        },
        {
          "indexed": false,
          "name": "_owner",
          "type": "address"
        },
        {
          "indexed": false,
          "name": "_candidate",
          "type": "address"
        },
        {
          "indexed": false,
          "name": "_name",
          "type": "string"
        },
        {
          "indexed": false,
          "name": "_description",
          "type": "string"
        },
        {
          "indexed": false,
          "name": "_price",
          "type": "uint256"
        }
      ],
      "name": "UnsetMarketplace",
      "type": "event",
      "signature": "0x93759953971d9dce99ec5e86ee853a8b7d7b7fdbc7c34ead5e76872c4d3eaf20"
    },
    {
      "anonymous": false,
      "inputs": [
        {
          "indexed": false,
          "name": "_assetId",
          "type": "uint256"
        },
        {
          "indexed": false,
          "name": "_owner",
          "type": "address"
        },
        {
          "indexed": false,
          "name": "_candidate",
          "type": "address"
        },
        {
          "indexed": false,
          "name": "_price",
          "type": "uint256"
        }
      ],
      "name": "Deposit",
      "type": "event",
      "signature": "0x2c0f148b435140de488c1b34647f1511c646f7077e87007bacf22ef9977a16d8"
    },
    {
      "anonymous": false,
      "inputs": [
        {
          "indexed": false,
          "name": "_assetId",
          "type": "uint256"
        },
        {
          "indexed": false,
          "name": "_formerOwner",
          "type": "address"
        },
        {
          "indexed": false,
          "name": "_newOwner",
          "type": "address"
        },
        {
          "indexed": false,
          "name": "_price",
          "type": "uint256"
        }
      ],
      "name": "Purchase",
      "type": "event",
      "signature": "0xe3cf0e0098f447c6d9bc08ffbbf3f193d35c51b57d7de6bb9ccb79f4995ccf71"
    },
    {
      "anonymous": false,
      "inputs": [
        {
          "indexed": false,
          "name": "_assetId",
          "type": "uint256"
        },
        {
          "indexed": false,
          "name": "_owner",
          "type": "address"
        },
        {
          "indexed": false,
          "name": "_candidate",
          "type": "address"
        },
        {
          "indexed": false,
          "name": "_price",
          "type": "uint256"
        }
      ],
      "name": "Refund",
      "type": "event",
      "signature": "0xae4600bc3786dafd4f3459692821fe209dcde1a5283d33f0675340813bc4ad48"
    },
    {
      "anonymous": false,
      "inputs": [
        {
          "indexed": false,
          "name": "_owner",
          "type": "address"
        },
        {
          "indexed": false,
          "name": "_amount",
          "type": "uint256"
        }
      ],
      "name": "TransferEarnings",
      "type": "event",
      "signature": "0x891ae5db36adc1f5de7dc42f6ca52213e0a23b3fe35235094e12789e9917dd7a"
    },
    {
      "anonymous": false,
      "inputs": [
        {
          "indexed": true,
          "name": "account",
          "type": "address"
        }
      ],
      "name": "MinterAdded",
      "type": "event",
      "signature": "0x6ae172837ea30b801fbfcdd4108aa1d5bf8ff775444fd70256b44e6bf3dfc3f6"
    },
    {
      "anonymous": false,
      "inputs": [
        {
          "indexed": true,
          "name": "account",
          "type": "address"
        }
      ],
      "name": "MinterRemoved",
      "type": "event",
      "signature": "0xe94479a9f7e1952cc78f2d6baab678adc1b772d936c6583def489e524cb66692"
    },
    {
      "anonymous": false,
      "inputs": [
        {
          "indexed": true,
          "name": "from",
          "type": "address"
        },
        {
          "indexed": true,
          "name": "to",
          "type": "address"
        },
        {
          "indexed": false,
          "name": "value",
          "type": "uint256"
        }
      ],
      "name": "Transfer",
      "type": "event",
      "signature": "0xddf252ad1be2c89b69c2b068fc378daa952ba7f163c4a11628f55a4df523b3ef"
    },
    {
      "anonymous": false,
      "inputs": [
        {
          "indexed": true,
          "name": "owner",
          "type": "address"
        },
        {
          "indexed": true,
          "name": "spender",
          "type": "address"
        },
        {
          "indexed": false,
          "name": "value",
          "type": "uint256"
        }
      ],
      "name": "Approval",
      "type": "event",
      "signature": "0x8c5be1e5ebec7d5bd14f71427d1e84f3dd0314c0f7b2291e5b200ac8c7c3b925"
    },
    {
      "anonymous": false,
      "inputs": [
        {
          "indexed": true,
          "name": "previousOwner",
          "type": "address"
        },
        {
          "indexed": true,
          "name": "newOwner",
          "type": "address"
        }
      ],
      "name": "OwnershipTransferred",
      "type": "event",
      "signature": "0x8be0079c531659141344cd1fd0a4f28419497f9722a3daafe3b4186f6b6457e0"
    },
    {
      "constant": false,
      "inputs": [
        {
          "name": "_name",
          "type": "string"
        },
        {
          "name": "_description",
          "type": "string"
        },
        {
          "name": "_hashKey",
          "type": "string"
        },
        {
          "name": "_price",
          "type": "uint256"
        }
      ],
      "name": "addAsset",
      "outputs": [],
      "payable": false,
      "stateMutability": "nonpayable",
      "type": "function",
      "signature": "0x82e3759d"
    },
    {
      "constant": false,
      "inputs": [
        {
          "name": "_assetId",
          "type": "uint256"
        },
        {
          "name": "_name",
          "type": "string"
        },
        {
          "name": "_description",
          "type": "string"
        },
        {
          "name": "_hashKey",
          "type": "string"
        },
        {
          "name": "_price",
          "type": "uint256"
        }
      ],
      "name": "updateAsset",
      "outputs": [],
      "payable": false,
      "stateMutability": "nonpayable",
      "type": "function",
      "signature": "0xc687857c"
    },
    {
      "constant": false,
      "inputs": [
        {
          "name": "_assetId",
          "type": "uint256"
        }
      ],
      "name": "setMarketplace",
      "outputs": [],
      "payable": false,
      "stateMutability": "nonpayable",
      "type": "function",
      "signature": "0xe70bdacf"
    },
    {
      "constant": false,
      "inputs": [
        {
          "name": "_assetId",
          "type": "uint256"
        }
      ],
      "name": "unsetMarketplace",
      "outputs": [],
      "payable": false,
      "stateMutability": "nonpayable",
      "type": "function",
      "signature": "0x229c11a6"
    },
    {
      "constant": false,
      "inputs": [
        {
          "name": "_assetId",
          "type": "uint256"
        }
      ],
      "name": "deposit",
      "outputs": [],
      "payable": true,
      "stateMutability": "payable",
      "type": "function",
      "signature": "0xb6b55f25"
    },
    {
      "constant": false,
      "inputs": [
        {
          "name": "_assetId",
          "type": "uint256"
        }
      ],
      "name": "purchaseAsset",
      "outputs": [],
      "payable": false,
      "stateMutability": "nonpayable",
      "type": "function",
      "signature": "0xa457e1c0"
    },
    {
      "constant": false,
      "inputs": [
        {
          "name": "_assetId",
          "type": "uint256"
        }
      ],
      "name": "refundPurchase",
      "outputs": [],
      "payable": false,
      "stateMutability": "nonpayable",
      "type": "function",
      "signature": "0x1c77b27a"
    },
    {
      "constant": false,
      "inputs": [
        {
          "name": "_assetId",
          "type": "uint256"
        }
      ],
      "name": "removeAsset",
      "outputs": [],
      "payable": false,
      "stateMutability": "nonpayable",
      "type": "function",
      "signature": "0xf14f58f1"
    },
    {
      "constant": true,
      "inputs": [],
      "name": "getMyAssets",
      "outputs": [
        {
          "name": "",
          "type": "uint256[]"
        }
      ],
      "payable": false,
      "stateMutability": "view",
      "type": "function",
      "signature": "0x47002d1d"
    },
    {
      "constant": true,
      "inputs": [],
      "name": "getMarketplace",
      "outputs": [
        {
          "name": "",
          "type": "uint256[]"
        }
      ],
      "payable": false,
      "stateMutability": "view",
      "type": "function",
      "signature": "0x0d21bcd5"
    },
    {
      "constant": true,
      "inputs": [
        {
          "name": "_assetId",
          "type": "uint256"
        }
      ],
      "name": "getAsset",
      "outputs": [
        {
          "name": "_owner",
          "type": "address"
        },
        {
          "name": "_candidate",
          "type": "address"
        },
        {
          "name": "_name",
          "type": "string"
        },
        {
          "name": "_description",
          "type": "string"
        },
        {
          "name": "_hashKey",
          "type": "string"
        },
        {
          "name": "_price",
          "type": "uint256"
        },
        {
          "name": "_available",
          "type": "bool"
        }
      ],
      "payable": false,
      "stateMutability": "view",
      "type": "function",
      "signature": "0xeac8f5b8"
    },
    {
      "constant": true,
      "inputs": [
        {
          "name": "_assetId",
          "type": "uint256"
        }
      ],
      "name": "getOwner",
      "outputs": [
        {
          "name": "",
          "type": "address"
        }
      ],
      "payable": false,
      "stateMutability": "view",
      "type": "function",
      "signature": "0xc41a360a"
    },
    {
      "constant": true,
      "inputs": [
        {
          "name": "_assetId",
          "type": "uint256"
        }
      ],
      "name": "getCandidate",
      "outputs": [
        {
          "name": "",
          "type": "address"
        }
      ],
      "payable": false,
      "stateMutability": "view",
      "type": "function",
      "signature": "0x35b8e820"
    },
    {
      "constant": true,
      "inputs": [
        {
          "name": "_assetId",
          "type": "uint256"
        }
      ],
      "name": "getName",
      "outputs": [
        {
          "name": "",
          "type": "string"
        }
      ],
      "payable": false,
      "stateMutability": "view",
      "type": "function",
      "signature": "0x6b8ff574"
    },
    {
      "constant": true,
      "inputs": [
        {
          "name": "_assetId",
          "type": "uint256"
        }
      ],
      "name": "getDescription",
      "outputs": [
        {
          "name": "",
          "type": "string"
        }
      ],
      "payable": false,
      "stateMutability": "view",
      "type": "function",
      "signature": "0x4925ec55"
    },
    {
      "constant": true,
      "inputs": [
        {
          "name": "_assetId",
          "type": "uint256"
        }
      ],
      "name": "getHashKey",
      "outputs": [
        {
          "name": "",
          "type": "string"
        }
      ],
      "payable": false,
      "stateMutability": "view",
      "type": "function",
      "signature": "0x6ce9eb64"
    },
    {
      "constant": true,
      "inputs": [
        {
          "name": "_assetId",
          "type": "uint256"
        }
      ],
      "name": "getPrice",
      "outputs": [
        {
          "name": "",
          "type": "uint256"
        }
      ],
      "payable": false,
      "stateMutability": "view",
      "type": "function",
      "signature": "0xe7572230"
    },
    {
      "constant": true,
      "inputs": [
        {
          "name": "_assetId",
          "type": "uint256"
        }
      ],
      "name": "getAvailability",
      "outputs": [
        {
          "name": "",
          "type": "bool"
        }
      ],
      "payable": false,
      "stateMutability": "view",
      "type": "function",
      "signature": "0xcd6a8eca"
    },
    {
      "constant": true,
      "inputs": [],
      "name": "isContractOwner",
      "outputs": [
        {
          "name": "",
          "type": "bool"
        }
      ],
      "payable": false,
      "stateMutability": "view",
      "type": "function",
      "signature": "0x7f7dcdbf"
    }
  ],
  "bytecode": "0x60806040523480156200001157600080fd5b50604051606080620046ff83398101604081815282516020840151919093015160008054600160a060020a031916331780825592939192600160a060020a0316917f8be0079c531659141344cd1fd0a4f28419497f9722a3daafe3b4186f6b6457e0908290a36200008b33640100000000620000d1810204565b600083116200009957600080fd5b6064821015620000a857600080fd5b60058390556006819055620000c7338364010000000062000123810204565b50505050620002f4565b620000ec600482640100000000620041c36200016382021704565b604051600160a060020a038216907f6ae172837ea30b801fbfcdd4108aa1d5bf8ff775444fd70256b44e6bf3dfc3f690600090a250565b60006200013933640100000000620001be810204565b15156200014557600080fd5b6200015a8383640100000000620001e1810204565b50600192915050565b600160a060020a03811615156200017957600080fd5b6200018e8282640100000000620002a2810204565b156200019957600080fd5b600160a060020a0316600090815260209190915260409020805460ff19166001179055565b6000620001db600483640100000000620040f9620002a282021704565b92915050565b600160a060020a0382161515620001f757600080fd5b60035462000214908264010000000062003d13620002da82021704565b600355600160a060020a0382166000908152600160205260409020546200024a908264010000000062003d13620002da82021704565b600160a060020a03831660008181526001602090815260408083209490945583518581529351929391927fddf252ad1be2c89b69c2b068fc378daa952ba7f163c4a11628f55a4df523b3ef9281900390910190a35050565b6000600160a060020a0382161515620002ba57600080fd5b50600160a060020a03166000908152602091909152604090205460ff1690565b600082820183811015620002ed57600080fd5b9392505050565b6143fb80620003046000396000f30060806040526004361061025b5763ffffffff7c010000000000000000000000000000000000000000000000000000000060003504166306fdde038114610260578063095ea7b3146102ea5780630d21bcd51461032257806311a1933c1461038757806318160ddd146103ae5780631c77b27a146103c3578063229c11a6146103dd57806323b872dd146103f55780632c4e722e1461041f578063313ce5671461043457806334fcf4371461045f57806335b8e8201461047757806339509351146104ab57806340c10f19146104cf57806347002d1d146104f35780634925ec55146105085780635cdf76f814610520578063679aefce146105385780636b8ff5741461054d5780636ce9eb641461056557806370a082311461057d578063715018a61461059e5780637f7dcdbf146105b357806382e3759d146105c85780638abdf5aa1461069f5780638da5cb5b146106b45780638f32d59b146106c957806390666232146106de57806395d89b41146106f3578063981b580414610708578063983b2d56146107205780639865027514610741578063a0712d6814610756578063a457c2d71461076e578063a457e1c014610792578063a9059cbb146107aa578063aa271e1a146107ce578063b6b55f25146107ef578063c41a360a146107fa578063c687857c14610812578063cd6a8eca146108ee578063cf35bdd014610906578063d0febe4c14610aad578063dd62ed3e14610ab5578063e70bdacf14610adc578063e757223014610af4578063eac8f5b814610b0c578063f14f58f114610cac578063f2fde38b14610cc4578063fe37f5ca14610ce5575b600080fd5b34801561026c57600080fd5b50610275610cfa565b6040805160208082528351818301528351919283929083019185019080838360005b838110156102af578181015183820152602001610297565b50505050905090810190601f1680156102dc5780820380516001836020036101000a031916815260200191505b509250505060405180910390f35b3480156102f657600080fd5b5061030e600160a060020a0360043516602435610d31565b604080519115158252519081900360200190f35b34801561032e57600080fd5b50610337610daf565b60408051602080825283518183015283519192839290830191858101910280838360005b8381101561037357818101518382015260200161035b565b505050509050019250505060405180910390f35b34801561039357600080fd5b5061039c610efd565b60408051918252519081900360200190f35b3480156103ba57600080fd5b5061039c610f04565b3480156103cf57600080fd5b506103db600435610f0a565b005b3480156103e957600080fd5b506103db600435610fe6565b34801561040157600080fd5b5061030e600160a060020a03600435811690602435166044356111f6565b34801561042b57600080fd5b5061039c611293565b34801561044057600080fd5b50610449611299565b6040805160ff9092168252519081900360200190f35b34801561046b57600080fd5b506103db60043561129e565b34801561048357600080fd5b5061048f60043561130e565b60408051600160a060020a039092168252519081900360200190f35b3480156104b757600080fd5b5061030e600160a060020a036004351660243561155a565b3480156104db57600080fd5b5061030e600160a060020a036004351660243561160a565b3480156104ff57600080fd5b50610337611633565b34801561051457600080fd5b50610275600435611779565b34801561052c57600080fd5b506103db6004356119ce565b34801561054457600080fd5b5061039c611a64565b34801561055957600080fd5b50610275600435611a6a565b34801561057157600080fd5b50610275600435611cbf565b34801561058957600080fd5b5061039c600160a060020a0360043516611f14565b3480156105aa57600080fd5b506103db611f2f565b3480156105bf57600080fd5b5061030e611f8c565b3480156105d457600080fd5b506040805160206004803580820135601f81018490048402850184019095528484526103db94369492936024939284019190819084018382808284375050604080516020601f89358b018035918201839004830284018301909452808352979a99988101979196509182019450925082915084018382808284375050604080516020601f89358b018035918201839004830284018301909452808352979a9998810197919650918201945092508291508401838280828437509497505093359450611fb49350505050565b3480156106ab57600080fd5b5061039c612390565b3480156106c057600080fd5b5061048f612396565b3480156106d557600080fd5b5061030e6123a5565b3480156106ea57600080fd5b5061039c6123b6565b3480156106ff57600080fd5b506102756123bc565b34801561071457600080fd5b5061039c6004356123f3565b34801561072c57600080fd5b506103db600160a060020a0360043516612405565b34801561074d57600080fd5b506103db612425565b34801561076257600080fd5b506103db600435612430565b34801561077a57600080fd5b5061030e600160a060020a036004351660243561244d565b34801561079e57600080fd5b506103db600435612498565b3480156107b657600080fd5b5061030e600160a060020a0360043516602435612639565b3480156107da57600080fd5b5061030e600160a060020a0360043516612646565b6103db60043561265f565b34801561080657600080fd5b5061048f6004356128a8565b34801561081e57600080fd5b5060408051602060046024803582810135601f81018590048502860185019096528585526103db95833595369560449491939091019190819084018382808284375050604080516020601f89358b018035918201839004830284018301909452808352979a99988101979196509182019450925082915084018382808284375050604080516020601f89358b018035918201839004830284018301909452808352979a9998810197919650918201945092508291508401838280828437509497505093359450612af09350505050565b3480156108fa57600080fd5b5061030e600435612e6c565b34801561091257600080fd5b5061091e6004356130b4565b6040518089815260200188600160a060020a0316600160a060020a0316815260200187600160a060020a0316600160a060020a0316815260200180602001806020018060200186815260200185151515158152602001848103845289818151815260200191508051906020019080838360005b838110156109a9578181015183820152602001610991565b50505050905090810190601f1680156109d65780820380516001836020036101000a031916815260200191505b5084810383528851815288516020918201918a019080838360005b83811015610a095781810151838201526020016109f1565b50505050905090810190601f168015610a365780820380516001836020036101000a031916815260200191505b50848103825287518152875160209182019189019080838360005b83811015610a69578181015183820152602001610a51565b50505050905090810190601f168015610a965780820380516001836020036101000a031916815260200191505b509b50505050505050505050505060405180910390f35b6103db6132a4565b348015610ac157600080fd5b5061039c600160a060020a03600435811690602435166133e6565b348015610ae857600080fd5b506103db600435613411565b348015610b0057600080fd5b5061039c6004356135f5565b348015610b1857600080fd5b50610b2460043561383d565b6040518088600160a060020a0316600160a060020a0316815260200187600160a060020a0316600160a060020a0316815260200180602001806020018060200186815260200185151515158152602001848103845289818151815260200191508051906020019080838360005b83811015610ba9578181015183820152602001610b91565b50505050905090810190601f168015610bd65780820380516001836020036101000a031916815260200191505b5084810383528851815288516020918201918a019080838360005b83811015610c09578181015183820152602001610bf1565b50505050905090810190601f168015610c365780820380516001836020036101000a031916815260200191505b50848103825287518152875160209182019189019080838360005b83811015610c69578181015183820152602001610c51565b50505050905090810190601f168015610c965780820380516001836020036101000a031916815260200191505b509a505050505050505050505060405180910390f35b348015610cb857600080fd5b506103db600435613af9565b348015610cd057600080fd5b506103db600160a060020a0360043516613c3c565b348015610cf157600080fd5b506103db613c58565b60408051808201909152600981527f4465706f736974756d0000000000000000000000000000000000000000000000602082015281565b6000600160a060020a0383161515610d4857600080fd5b336000818152600260209081526040808320600160a060020a03881680855290835292819020869055805186815290519293927f8c5be1e5ebec7d5bd14f71427d1e84f3dd0314c0f7b2291e5b200ac8c7c3b925929181900390910190a350600192915050565b60608060008060606000600a5460001415610dde5760408051600080825260208201909252905b509550610ef5565b600a54604051908082528060200260200182016040528015610e0a578160200160208202803883390190505b50945060009350600192505b600a548311610e7f5760008381526008602052604090206007015460ff1615610e74576000838152600860205260409020548551869086908110610e5657fe5b60209081029091010152610e7184600163ffffffff613d1316565b93505b600190920191610e16565b83604051908082528060200260200182016040528015610ea9578160200160208202803883390190505b509150600090505b83811015610ef1578481815181101515610ec757fe5b906020019060200201518282815181101515610edf57fe5b60209081029091010152600101610eb1565b8195505b505050505090565b6006545b90565b60035490565b60008181526008602052604090206001810154600160a060020a03161515610f3157610fe2565b6001810154600160a060020a0316331480610f5857506002810154600160a060020a031633145b15610f6c57610f678183613d2c565b610fe2565b6040805160e560020a62461bcd02815260206004820152602660248201527f526566756e64206e6f7420617574686f726973656420666f722074686973206160448201527f63636f756e740000000000000000000000000000000000000000000000000000606482015290519081900360840190fd5b5050565b60008181526008602052604090206001810154600160a060020a0316151561100d57610fe2565b6001810154600160a060020a0316331461105f576040805160e560020a62461bcd0281526020600482018190526024820152600080516020614390833981519152604482015290519081900360640190fd5b60078101805460ff191690556002810154600160a060020a03161561108857610f678183613d2c565b6002808201546006830154604080518681523360208201819052600160a060020a0390941691810182905260a0810183905260c0606082018181526003880180546000196001821615610100020116979097049183018290527f93759953971d9dce99ec5e86ee853a8b7d7b7fdbc7c34ead5e76872c4d3eaf2096899695909360048a019391929091608083019060e08401908790801561116a5780601f1061113f5761010080835404028352916020019161116a565b820191906000526020600020905b81548152906001019060200180831161114d57829003601f168201915b50508381038252855460026000196101006001841615020190911604808252602090910190869080156111de5780601f106111b3576101008083540402835291602001916111de565b820191906000526020600020905b8154815290600101906020018083116111c157829003601f168201915b50509850505050505050505060405180910390a15050565b600160a060020a038316600090815260026020908152604080832033845290915281205482111561122657600080fd5b600160a060020a038416600090815260026020908152604080832033845290915290205461125a908363ffffffff613e1816565b600160a060020a0385166000908152600260209081526040808320338452909152902055611289848484613e2f565b5060019392505050565b60055481565b600181565b6112a66123a5565b15156112b157600080fd5b60008111611309576040805160e560020a62461bcd02815260206004820152601f60248201527f5468652072617465206d7573742062652067726561746572207468616e203000604482015290519081900360640190fd5b600555565b600061131861425d565b6000838152600860209081526040918290208251610100808201855282548252600180840154600160a060020a0390811684870152600280860154909116848801526003850180548851938116159094026000190190931604601f8101869004860282018601909652858152919492936060860193908301828280156113df5780601f106113b4576101008083540402835291602001916113df565b820191906000526020600020905b8154815290600101906020018083116113c257829003601f168201915b505050918352505060048201805460408051602060026001851615610100026000190190941693909304601f81018490048402820184019092528181529382019392918301828280156114735780601f1061144857610100808354040283529160200191611473565b820191906000526020600020905b81548152906001019060200180831161145657829003601f168201915b505050918352505060058201805460408051602060026001851615610100026000190190941693909304601f81018490048402820184019092528181529382019392918301828280156115075780601f106114dc57610100808354040283529160200191611507565b820191906000526020600020905b8154815290600101906020018083116114ea57829003601f168201915b5050509183525050600682015460208083019190915260079092015460ff161515604090910152810151909150600160a060020a0316151561154c5760009150611554565b806040015191505b50919050565b6000600160a060020a038316151561157157600080fd5b336000908152600260209081526040808320600160a060020a03871684529091529020546115a5908363ffffffff613d1316565b336000818152600260209081526040808320600160a060020a0389168085529083529281902085905580519485525191937f8c5be1e5ebec7d5bd14f71427d1e84f3dd0314c0f7b2291e5b200ac8c7c3b925929081900390910190a350600192915050565b600061161533612646565b151561162057600080fd5b61162a8383613f11565b50600192915050565b60608060008060606000600a546000141561165e576040805160008082526020820190925290610dd6565b600a5460405190808252806020026020018201604052801561168a578160200160208202803883390190505b50945060009350600192505b600a54831161170757600083815260086020526040902060010154600160a060020a03163314156116fc5760008381526008602052604090205485518690869081106116de57fe5b602090810290910101526116f984600163ffffffff613d1316565b93505b600190920191611696565b83604051908082528060200260200182016040528015611731578160200160208202803883390190505b509150600090505b83811015610ef157848181518110151561174f57fe5b90602001906020020151828281518110151561176757fe5b60209081029091010152600101611739565b606061178361425d565b6000838152600860209081526040918290208251610100808201855282548252600180840154600160a060020a0390811684870152600280860154909116848801526003850180548851938116159094026000190190931604601f81018690048602820186019096528581529194929360608601939083018282801561184a5780601f1061181f5761010080835404028352916020019161184a565b820191906000526020600020905b81548152906001019060200180831161182d57829003601f168201915b505050918352505060048201805460408051602060026001851615610100026000190190941693909304601f81018490048402820184019092528181529382019392918301828280156118de5780601f106118b3576101008083540402835291602001916118de565b820191906000526020600020905b8154815290600101906020018083116118c157829003601f168201915b505050918352505060058201805460408051602060026001851615610100026000190190941693909304601f81018490048402820184019092528181529382019392918301828280156119725780601f1061194757610100808354040283529160200191611972565b820191906000526020600020905b81548152906001019060200180831161195557829003601f168201915b5050509183525050600682015460208083019190915260079092015460ff161515604090910152810151909150600160a060020a031615156119c4576040805160208101909152600081529150611554565b6080015192915050565b6119d66123a5565b15156119e157600080fd5b60008111611a5f576040805160e560020a62461bcd02815260206004820152602660248201527f546865207365727669636520666565206d75737420626520677265617465722060448201527f7468616e20300000000000000000000000000000000000000000000000000000606482015290519081900360840190fd5b600655565b60055490565b6060611a7461425d565b6000838152600860209081526040918290208251610100808201855282548252600180840154600160a060020a0390811684870152600280860154909116848801526003850180548851938116159094026000190190931604601f810186900486028201860190965285815291949293606086019390830182828015611b3b5780601f10611b1057610100808354040283529160200191611b3b565b820191906000526020600020905b815481529060010190602001808311611b1e57829003601f168201915b505050918352505060048201805460408051602060026001851615610100026000190190941693909304601f8101849004840282018401909252818152938201939291830182828015611bcf5780601f10611ba457610100808354040283529160200191611bcf565b820191906000526020600020905b815481529060010190602001808311611bb257829003601f168201915b505050918352505060058201805460408051602060026001851615610100026000190190941693909304601f8101849004840282018401909252818152938201939291830182828015611c635780601f10611c3857610100808354040283529160200191611c63565b820191906000526020600020905b815481529060010190602001808311611c4657829003601f168201915b5050509183525050600682015460208083019190915260079092015460ff161515604090910152810151909150600160a060020a03161515611cb5576040805160208101909152600081529150611554565b6060015192915050565b6060611cc961425d565b6000838152600860209081526040918290208251610100808201855282548252600180840154600160a060020a0390811684870152600280860154909116848801526003850180548851938116159094026000190190931604601f810186900486028201860190965285815291949293606086019390830182828015611d905780601f10611d6557610100808354040283529160200191611d90565b820191906000526020600020905b815481529060010190602001808311611d7357829003601f168201915b505050918352505060048201805460408051602060026001851615610100026000190190941693909304601f8101849004840282018401909252818152938201939291830182828015611e245780601f10611df957610100808354040283529160200191611e24565b820191906000526020600020905b815481529060010190602001808311611e0757829003601f168201915b505050918352505060058201805460408051602060026001851615610100026000190190941693909304601f8101849004840282018401909252818152938201939291830182828015611eb85780601f10611e8d57610100808354040283529160200191611eb8565b820191906000526020600020905b815481529060010190602001808311611e9b57829003601f168201915b5050509183525050600682015460208083019190915260079092015460ff161515604090910152810151909150600160a060020a03161515611f0a576040805160208101909152600081529150611554565b60a0015192915050565b600160a060020a031660009081526001602052604090205490565b611f376123a5565b1515611f4257600080fd5b60008054604051600160a060020a03909116907f8be0079c531659141344cd1fd0a4f28419497f9722a3daafe3b4186f6b6457e0908390a360008054600160a060020a0319169055565b600033611f97612396565b600160a060020a03161415611fae57506001610f01565b50600090565b835184906060908190600010612014576040805160e560020a62461bcd02815260206004820152601260248201527f41206e616d652069732072657175697265640000000000000000000000000000604482015290519081900360640190fd5b8551869250600010612070576040805160e560020a62461bcd02815260206004820152601960248201527f41206465736372697074696f6e20697320726571756972656400000000000000604482015290519081900360640190fd5b50835184906000106120cc576040805160e560020a62461bcd02815260206004820181905260248201527f412068617368206b65792066726f6d2049504653206973207265717569726564604482015290519081900360640190fd5b6120d833600654613fab565b600a546120ec90600163ffffffff613d1316565b600a81905560408051610100810182528281523360208083019182526000838501818152606085018e8152608086018e905260a086018d905260c086018c905260e0860183905296825260088352949020835181559151600183018054600160a060020a0319908116600160a060020a039384161790915594516002840180549096169116179093559251805191939261218e926003850192909101906142b7565b50608082015180516121aa9160048401916020909101906142b7565b5060a082015180516121c69160058401916020909101906142b7565b5060c0820151816006015560e08201518160070160006101000a81548160ff0219169083151502179055509050507f4efe84f42f5dc8e26465778176a705ad3410cf364c7671cb60cfc8e1f5fe7f3a600a5433898989896040518087815260200186600160a060020a0316600160a060020a03168152602001806020018060200180602001858152602001848103845288818151815260200191508051906020019080838360005b8381101561228657818101518382015260200161226e565b50505050905090810190601f1680156122b35780820380516001836020036101000a031916815260200191505b50848103835287518152875160209182019189019080838360005b838110156122e65781810151838201526020016122ce565b50505050905090810190601f1680156123135780820380516001836020036101000a031916815260200191505b50848103825286518152865160209182019188019080838360005b8381101561234657818101518382015260200161232e565b50505050905090810190601f1680156123735780820380516001836020036101000a031916815260200191505b50995050505050505050505060405180910390a150505050505050565b60065481565b600054600160a060020a031690565b600054600160a060020a0316331490565b60075490565b60408051808201909152600381527f44504d0000000000000000000000000000000000000000000000000000000000602082015281565b60096020526000908152604090205481565b61240e33612646565b151561241957600080fd5b61242281614069565b50565b61242e336140b1565b565b6124386123a5565b151561244357600080fd5b610fe2338261160a565b6000600160a060020a038316151561246457600080fd5b336000908152600260209081526040808320600160a060020a03871684529091529020546115a5908363ffffffff613e1816565b600081815260086020526040812060018101549091908190600160a060020a031615156124c457612633565b6002830154600160a060020a0316331461254e576040805160e560020a62461bcd02815260206004820152602b60248201527f417373657420616c726561647920726573657276656420746f20616e6f74686560448201527f722063616e646964617465000000000000000000000000000000000000000000606482015290519081900360840190fd5b505060018101805460008481526009602052604081208054600160a060020a031980851633179095556002860180549095169094556006850182905560078501805460ff1916905555600160a060020a03169080156125df57604051600160a060020a0383169082156108fc029083906000818181858888f193505050501580156125dd573d6000803e3d6000fd5b505b600183015460408051868152600160a060020a039092166020830152338282015260608201839052517fe3cf0e0098f447c6d9bc08ffbbf3f193d35c51b57d7de6bb9ccb79f4995ccf719181900360800190a15b50505050565b600061162a338484613e2f565b600061265960048363ffffffff6140f916565b92915050565b60008181526008602052604090206001810154600160a060020a0316151561268657610fe2565b6002810154600160a060020a03161561270f576040805160e560020a62461bcd02815260206004820152602b60248201527f417373657420616c726561647920726573657276656420746f20616e6f74686560448201527f722063616e646964617465000000000000000000000000000000000000000000606482015290519081900360840190fd5b6001810154600160a060020a031633141561279a576040805160e560020a62461bcd02815260206004820152602e60248201527f4465706f736974206e6f7420616c6c6f77656420666f7220746865206f776e6560448201527f72206f6620746865206173736574000000000000000000000000000000000000606482015290519081900360840190fd5b6006810154341461281b576040805160e560020a62461bcd02815260206004820152602260248201527f507269636520617265206e6f74207468652073616d652061732065787065637460448201527f6564000000000000000000000000000000000000000000000000000000000000606482015290519081900360840190fd5b600082815260096020908152604091829020349055600283018054600160a060020a03191633908117909155600184015460068501548451878152600160a060020a03929092169382019390935280840191909152606081019190915290517f2c0f148b435140de488c1b34647f1511c646f7077e87007bacf22ef9977a16d89181900360800190a15050565b60006128b261425d565b6000838152600860209081526040918290208251610100808201855282548252600180840154600160a060020a0390811684870152600280860154909116848801526003850180548851938116159094026000190190931604601f8101869004860282018601909652858152919492936060860193908301828280156129795780601f1061294e57610100808354040283529160200191612979565b820191906000526020600020905b81548152906001019060200180831161295c57829003601f168201915b505050918352505060048201805460408051602060026001851615610100026000190190941693909304601f8101849004840282018401909252818152938201939291830182828015612a0d5780601f106129e257610100808354040283529160200191612a0d565b820191906000526020600020905b8154815290600101906020018083116129f057829003601f168201915b505050918352505060058201805460408051602060026001851615610100026000190190941693909304601f8101849004840282018401909252818152938201939291830182828015612aa15780601f10612a7657610100808354040283529160200191612aa1565b820191906000526020600020905b815481529060010190602001808311612a8457829003601f168201915b5050509183525050600682015460208083019190915260079092015460ff161515604090910152810151909150600160a060020a03161515612ae65760009150611554565b6020015192915050565b6000858152600860205260409020600181015460609081908190600160a060020a03161515612b1e57612e61565b6001840154600160a060020a03163314612b70576040805160e560020a62461bcd0281526020600482018190526024820152600080516020614390833981519152604482015290519081900360640190fd5b8751889350600010612bcc576040805160e560020a62461bcd02815260206004820152601260248201527f41206e616d652069732072657175697265640000000000000000000000000000604482015290519081900360640190fd5b8651879250600010612c28576040805160e560020a62461bcd02815260206004820152601960248201527f41206465736372697074696f6e20697320726571756972656400000000000000604482015290519081900360640190fd5b5084518590600010612c84576040805160e560020a62461bcd02815260206004820181905260248201527f412068617368206b65792066726f6d2049504653206973207265717569726564604482015290519081900360640190fd5b8751612c9990600386019060208b01906142b7565b508651612caf90600486019060208a01906142b7565b508551612cc590600586019060208901906142b7565b508484600601819055507f5b06687e2faf130980555e1015a965e09459b7d538a348953f70a14109db3a4289338a8a8a8a6040518087815260200186600160a060020a0316600160a060020a03168152602001806020018060200180602001858152602001848103845288818151815260200191508051906020019080838360005b83811015612d5f578181015183820152602001612d47565b50505050905090810190601f168015612d8c5780820380516001836020036101000a031916815260200191505b50848103835287518152875160209182019189019080838360005b83811015612dbf578181015183820152602001612da7565b50505050905090810190601f168015612dec5780820380516001836020036101000a031916815260200191505b50848103825286518152865160209182019188019080838360005b83811015612e1f578181015183820152602001612e07565b50505050905090810190601f168015612e4c5780820380516001836020036101000a031916815260200191505b50995050505050505050505060405180910390a15b505050505050505050565b6000612e7661425d565b6000838152600860209081526040918290208251610100808201855282548252600180840154600160a060020a0390811684870152600280860154909116848801526003850180548851938116159094026000190190931604601f810186900486028201860190965285815291949293606086019390830182828015612f3d5780601f10612f1257610100808354040283529160200191612f3d565b820191906000526020600020905b815481529060010190602001808311612f2057829003601f168201915b505050918352505060048201805460408051602060026001851615610100026000190190941693909304601f8101849004840282018401909252818152938201939291830182828015612fd15780601f10612fa657610100808354040283529160200191612fd1565b820191906000526020600020905b815481529060010190602001808311612fb457829003601f168201915b505050918352505060058201805460408051602060026001851615610100026000190190941693909304601f81018490048402820184019092528181529382019392918301828280156130655780601f1061303a57610100808354040283529160200191613065565b820191906000526020600020905b81548152906001019060200180831161304857829003601f168201915b5050509183525050600682015460208083019190915260079092015460ff161515604090910152810151909150600160a060020a031615156130aa5760009150611554565b60e0015192915050565b600860209081526000918252604091829020805460018083015460028085015460038601805489516101009682161596909602600019011692909204601f81018890048802850188019098528784529396600160a060020a0392831696929094169493909183018282801561316a5780601f1061313f5761010080835404028352916020019161316a565b820191906000526020600020905b81548152906001019060200180831161314d57829003601f168201915b5050505060048301805460408051602060026001851615610100026000190190941693909304601f81018490048402820184019092528181529495949350908301828280156131fa5780601f106131cf576101008083540402835291602001916131fa565b820191906000526020600020905b8154815290600101906020018083116131dd57829003601f168201915b5050505060058301805460408051602060026001851615610100026000190190941693909304601f810184900484028201840190925281815294959493509083018282801561328a5780601f1061325f5761010080835404028352916020019161328a565b820191906000526020600020905b81548152906001019060200180831161326d57829003601f168201915b50505050600683015460079093015491929160ff16905088565b6000806000600554111515613303576040805160e560020a62461bcd02815260206004820152601f60248201527f5468652072617465206d7573742062652067726561746572207468616e203000604482015290519081900360640190fd5b60055434925061331a90839063ffffffff61413016565b90508061332d613328612396565b611f14565b1015613383576040805160e560020a62461bcd02815260206004820152601160248201527f4e6f7420656e6f75676820746f6b656e73000000000000000000000000000000604482015290519081900360640190fd5b61339561338e612396565b3383613e2f565b6007546133a8903463ffffffff613d1316565b600755336133b4612396565b600160a060020a03166000805160206143b0833981519152836040518082815260200191505060405180910390a35050565b600160a060020a03918216600090815260026020908152604080832093909416825291909152205490565b60008181526008602052604090206001810154600160a060020a0316151561343857610fe2565b6001810154600160a060020a0316331461348a576040805160e560020a62461bcd0281526020600482018190526024820152600080516020614390833981519152604482015290519081900360640190fd5b60078101805460ff1916600190811790915560068201546040805185815233602082018190526080820184905260a0928201838152600387018054600260001998821615610100029890980116969096049383018490527f5d095dcaf5e2fe5894fd51fdc2e637dd6095cb9b9b3c20d178cecc053a7a8c4e958895929490936004890193929091606083019060c08401908790801561356a5780601f1061353f5761010080835404028352916020019161356a565b820191906000526020600020905b81548152906001019060200180831161354d57829003601f168201915b50508381038252855460026000196101006001841615020190911604808252602090910190869080156135de5780601f106135b3576101008083540402835291602001916135de565b820191906000526020600020905b8154815290600101906020018083116135c157829003601f168201915b505097505050505050505060405180910390a15050565b60006135ff61425d565b6000838152600860209081526040918290208251610100808201855282548252600180840154600160a060020a0390811684870152600280860154909116848801526003850180548851938116159094026000190190931604601f8101869004860282018601909652858152919492936060860193908301828280156136c65780601f1061369b576101008083540402835291602001916136c6565b820191906000526020600020905b8154815290600101906020018083116136a957829003601f168201915b505050918352505060048201805460408051602060026001851615610100026000190190941693909304601f810184900484028201840190925281815293820193929183018282801561375a5780601f1061372f5761010080835404028352916020019161375a565b820191906000526020600020905b81548152906001019060200180831161373d57829003601f168201915b505050918352505060058201805460408051602060026001851615610100026000190190941693909304601f81018490048402820184019092528181529382019392918301828280156137ee5780601f106137c3576101008083540402835291602001916137ee565b820191906000526020600020905b8154815290600101906020018083116137d157829003601f168201915b5050509183525050600682015460208083019190915260079092015460ff161515604090910152810151909150600160a060020a031615156138335760009150611554565b60c0015192915050565b600080606080606060008061385061425d565b6000898152600860209081526040918290208251610100808201855282548252600180840154600160a060020a0390811684870152600280860154909116848801526003850180548851938116159094026000190190931604601f8101869004860282018601909652858152919492936060860193908301828280156139175780601f106138ec57610100808354040283529160200191613917565b820191906000526020600020905b8154815290600101906020018083116138fa57829003601f168201915b505050918352505060048201805460408051602060026001851615610100026000190190941693909304601f81018490048402820184019092528181529382019392918301828280156139ab5780601f10613980576101008083540402835291602001916139ab565b820191906000526020600020905b81548152906001019060200180831161398e57829003601f168201915b505050918352505060058201805460408051602060026001851615610100026000190190941693909304601f8101849004840282018401909252818152938201939291830182828015613a3f5780601f10613a1457610100808354040283529160200191613a3f565b820191906000526020600020905b815481529060010190602001808311613a2257829003601f168201915b5050509183525050600682015460208083019190915260079092015460ff161515604090910152810151909150600160a060020a03161515613ab857604080516020818101835260008083528351808301855281815284519283019094528082529a508a99509097509095509350869250829150613aed565b602081015160408201516060830151608084015160a085015160c086015160e0870151959d50939b5091995097509550935091505b50919395979092949650565b60008181526008602052604090206001810154600160a060020a03161515613b2057610fe2565b6001810154600160a060020a03163314613b72576040805160e560020a62461bcd0281526020600482018190526024820152600080516020614390833981519152604482015290519081900360640190fd5b6002810154600160a060020a031615613b8f57613b8f8183613d2c565b6000828152600860205260408120818155600181018054600160a060020a0319908116909155600282018054909116905590613bce6003830182614335565b613bdc600483016000614335565b613bea600583016000614335565b5060006006820155600701805460ff19169055604080513381526020810184905281517f3406221f53114f44c9a1bb93d08ee55735f39bf235a54741684a52501207bb54929181900390910190a15050565b613c446123a5565b1515613c4f57600080fd5b61242281614153565b6000613c626123a5565b1515613c6d57600080fd5b6007541515613c7b57612422565b50600780546000909155613c8d612396565b600160a060020a03166108fc829081150290604051600060405180830381858888f19350505050158015613cc5573d6000803e3d6000fd5b507f891ae5db36adc1f5de7dc42f6ca52213e0a23b3fe35235094e12789e9917dd7a613cef612396565b60408051600160a060020a039092168252602082018490528051918290030190a150565b600082820183811015613d2557600080fd5b9392505050565b60028201546000908190600160a060020a03161515613d4a57612633565b505060028201805460008381526009602052604081208054600160a060020a03198416909455819055600160a060020a039091169190811115613dbf57604051600160a060020a0383169082156108fc029083906000818181858888f19350505050158015613dbd573d6000803e3d6000fd5b505b600184015460408051858152600160a060020a039092166020830152338282015260608201839052517fae4600bc3786dafd4f3459692821fe209dcde1a5283d33f0675340813bc4ad489181900360800190a150505050565b60008083831115613e2857600080fd5b5050900390565b600160a060020a038316600090815260016020526040902054811115613e5457600080fd5b600160a060020a0382161515613e6957600080fd5b600160a060020a038316600090815260016020526040902054613e92908263ffffffff613e1816565b600160a060020a038085166000908152600160205260408082209390935590841681522054613ec7908263ffffffff613d1316565b600160a060020a0380841660008181526001602090815260409182902094909455805185815290519193928716926000805160206143b083398151915292918290030190a3505050565b600160a060020a0382161515613f2657600080fd5b600354613f39908263ffffffff613d1316565b600355600160a060020a038216600090815260016020526040902054613f65908263ffffffff613d1316565b600160a060020a03831660008181526001602090815260408083209490945583518581529351929391926000805160206143b08339815191529281900390910190a35050565b600160a060020a0382161515613fc057600080fd5b600160a060020a038216600090815260016020526040902054811115613fe557600080fd5b600354613ff8908263ffffffff613e1816565b600355600160a060020a038216600090815260016020526040902054614024908263ffffffff613e1816565b600160a060020a0383166000818152600160209081526040808320949094558351858152935191936000805160206143b0833981519152929081900390910190a35050565b61407a60048263ffffffff6141c316565b604051600160a060020a038216907f6ae172837ea30b801fbfcdd4108aa1d5bf8ff775444fd70256b44e6bf3dfc3f690600090a250565b6140c260048263ffffffff61421116565b604051600160a060020a038216907fe94479a9f7e1952cc78f2d6baab678adc1b772d936c6583def489e524cb6669290600090a250565b6000600160a060020a038216151561411057600080fd5b50600160a060020a03166000908152602091909152604090205460ff1690565b60008080831161413f57600080fd5b828481151561414a57fe5b04949350505050565b600160a060020a038116151561416857600080fd5b60008054604051600160a060020a03808516939216917f8be0079c531659141344cd1fd0a4f28419497f9722a3daafe3b4186f6b6457e091a360008054600160a060020a031916600160a060020a0392909216919091179055565b600160a060020a03811615156141d857600080fd5b6141e282826140f9565b156141ec57600080fd5b600160a060020a0316600090815260209190915260409020805460ff19166001179055565b600160a060020a038116151561422657600080fd5b61423082826140f9565b151561423b57600080fd5b600160a060020a0316600090815260209190915260409020805460ff19169055565b61010060405190810160405280600081526020016000600160a060020a031681526020016000600160a060020a03168152602001606081526020016060815260200160608152602001600081526020016000151581525090565b828054600181600116156101000203166002900490600052602060002090601f016020900481019282601f106142f857805160ff1916838001178555614325565b82800160010185558215614325579182015b8281111561432557825182559160200191906001019061430a565b50614331929150614375565b5090565b50805460018160011615610100020316600290046000825580601f1061435b5750612422565b601f01602090049060005260206000209081019061242291905b610f0191905b80821115614331576000815560010161437b5600416374696f6e20616c6c6f776564206f6e6c7920746f20746865206f776e6572ddf252ad1be2c89b69c2b068fc378daa952ba7f163c4a11628f55a4df523b3efa165627a7a723058208a7c0c0f957b97b70bafdfb387538e79d905d38dcfb1217bdab0e505314885920029",
  "source": "pragma solidity ^0.4.25;\n\nimport \"./AssetToken.sol\";\n\ncontract AssetContract is AssetToken {\n\n    //\n    // OpenZeppelin specifics\n    //\n    using SafeMath for uint256;\n\n    //\n    // state variables\n    //\n\n    // description of an asset item\n    struct AssetItem {\n        uint256 id;                // id in the list\n        address owner;          // asset's owner\n        address candidate;      // candidate owner\n        string name;\n        string description;\n        string hashKey;         // hashkey of the asset stored in IPFS\n        uint256 price;          // price in Wei\n        bool available;         // true if the asset can be sold in the marketplace\n    }\n\n    // List of asset\n    mapping(uint256 => AssetItem) public assets;\n\n    // Balance of deposits\n    mapping(uint256 => uint256) public depositsBalance;\n\n    // number of assets\n    uint256 assetCounter;\n\n\n    //\n    // Events\n    //\n    event NewAsset(uint256 _assetId, address _owner, string _name, string _description, string _hashKey, uint256 _price);\n    event UpdateAsset(uint256 _assetId, address _owner, string _name, string _description, string _hashKey, uint256 _price);\n    event AssetRemoved(address _owner, uint _assetId);\n    event SetMarketplace(uint256 _assetId, address _owner, string _name, string _description, uint256 _price);\n    event UnsetMarketplace(uint256 _assetId, address _owner, address _candidate, string _name, string _description, uint256 _price);\n    event Deposit(uint256 _assetId, address _owner, address _candidate, uint256 _price);\n    event Purchase(uint256 _assetId, address _formerOwner, address _newOwner, uint256 _price);\n    event Refund(uint256 _assetId, address _owner, address _candidate, uint256 _price);\n\n    //\n    // Implementation\n    //\n\n    constructor(uint256 _rate, uint256 _tokens, uint _serviceFee) public {\n        require(_rate > 0);\n        require(_tokens >= 100);\n\n        // set initial rate\n        rate = _rate;\n\n        // set the service fee in token to use the service\n        serviceFee = _serviceFee;\n\n        // mint initial tokens\n        mint(msg.sender, _tokens);\n    }\n\n    // add a new asset\n    function addAsset(string _name, string _description, string _hashKey, uint256 _price) public {\n        // a name is required\n        bytes memory name = bytes(_name);\n        require(name.length > 0, \"A name is required\");\n\n        // a description is required\n        bytes memory description = bytes(_description);\n        require(description.length > 0, \"A description is required\");\n\n        // an IPFS hash key is required\n        bytes memory hashKey = bytes(_hashKey);\n        require(hashKey.length > 0, \"A hash key from IPFS is required\");\n\n        // pay the service service\n        _burn(msg.sender, serviceFee);\n\n        // new asset\n        assetCounter = assetCounter.add(1);\n\n        // store the new asset\n        assets[assetCounter] = AssetItem(assetCounter, msg.sender, 0x0, _name, _description, _hashKey, _price, false);\n\n        emit NewAsset(assetCounter, msg.sender, _name, _description, _hashKey, _price);\n    }\n\n    // update an existing asset\n    // only possible for the asset's owner\n    function updateAsset(uint256 _assetId, string _name, string _description, string _hashKey, uint256 _price) public {\n        AssetItem storage asset = assets[_assetId];\n\n        // is this asset exists?\n        if (asset.owner == 0x0) {\n            return;\n        }\n\n        // only the asset's owner is allowed to update this asset\n        require(msg.sender == asset.owner, \"Action allowed only to the owner\");\n\n        // a name is required\n        bytes memory name = bytes(_name);\n        require(name.length > 0, \"A name is required\");\n\n        // a description is required\n        bytes memory description = bytes(_description);\n        require(description.length > 0, \"A description is required\");\n\n        // an IPFS hash key is required\n        bytes memory hashKey = bytes(_hashKey);\n        require(hashKey.length > 0, \"A hash key from IPFS is required\");\n\n        // update the asset\n        asset.name = _name;\n        asset.description = _description;\n        asset.hashKey = _hashKey;\n        asset.price = _price;\n\n        emit UpdateAsset(_assetId, msg.sender, _name, _description, _hashKey, _price);\n    }\n\n    // make the asset available in the marketplace\n    // only possible for the asset's owner\n    function setMarketplace(uint256 _assetId) public {\n        AssetItem storage asset = assets[_assetId];\n\n        // is this asset exists?\n        if (asset.owner == 0x0) {\n            return;\n        }\n\n        // only the asset's owner is allowed to update this asset\n        require(msg.sender == asset.owner, \"Action allowed only to the owner\");\n\n        // update the availability of the asset in the marketplace\n        asset.available = true;\n\n        emit SetMarketplace(_assetId, msg.sender, asset.name, asset.description, asset.price);\n    }\n\n    // remove the asset from the marketplace and refund the candidate buyer\n    // only possible for the asset's owner\n    function unsetMarketplace(uint256 _assetId) public {\n        AssetItem storage asset = assets[_assetId];\n\n        // is this asset exists?\n        if (asset.owner == 0x0) {\n            return;\n        }\n\n        // only the asset's owner is allowed to update this asset\n        require(msg.sender == asset.owner, \"Action allowed only to the owner\");\n\n        // update the availability of the asset in the marketplace\n        asset.available = false;\n\n        if (asset.candidate != 0x0) {\n            // we need to refund by sending back the deposit to the candidate\n            _refund(asset, _assetId);\n        } else {\n            emit UnsetMarketplace(_assetId, msg.sender, asset.candidate, asset.name, asset.description, asset.price);\n\n        }\n    }\n\n    // a candidate buyer deposit the price for the purchase\n    // the amount is secured in the contract's balance until the amount is released (sale concluded or refunded)\n    function deposit(uint256 _assetId) public payable {\n        AssetItem storage asset = assets[_assetId];\n\n        // is this asset exists?\n        if (asset.owner == 0x0) {\n            return;\n        }\n\n        // ensure that the asset is not already reserved\n        require(asset.candidate == 0x0, \"Asset already reserved to another candidate\");\n\n        // ensure that the asset is not already reserved to another candidate buyer\n        require(msg.sender != asset.owner, \"Deposit not allowed for the owner of the asset\");\n\n        // the value to deposit must be equal to price of the asset\n        require(msg.value == asset.price, \"Price are not the same as expected\");\n\n        // keep track of the deposit\n        depositsBalance[_assetId] = msg.value;\n\n        // store the address of the purchaser\n        asset.candidate = msg.sender;\n\n        emit Deposit(_assetId, asset.owner, msg.sender, asset.price);\n    }\n\n    // let the candidate buyer to become the new owner of the asset by executing the purchase\n    function purchaseAsset(uint256 _assetId) public {\n        AssetItem storage asset = assets[_assetId];\n\n        // is this asset exists?\n        if (asset.owner == 0x0) {\n            return;\n        }\n\n        // ensure that the buyer is the identified candidate\n        require(msg.sender == asset.candidate, \"Asset already reserved to another candidate\");\n\n        // keep the former owner and the price paid by the purchase\n        address _owner = asset.owner;\n        uint256 _price = depositsBalance[_assetId];\n\n        // move the asset to the buyer and reset its state\n        asset.owner = msg.sender;\n        asset.candidate = 0x0;\n        asset.price = 0;\n        asset.available = false;\n        delete depositsBalance[_assetId];\n\n        if (_price != 0) {\n            // transfer the amount to the former owner\n            _owner.transfer(_price);\n        }\n\n        emit Purchase(_assetId, asset.owner, msg.sender, _price);\n    }\n\n    // let the candidate buyer or the asset owner to cancel the purchase and refunding the candidate\n    function refundPurchase(uint256 _assetId) public {\n        AssetItem storage asset = assets[_assetId];\n\n        // is this asset exists?\n        if (asset.owner == 0x0) {\n            return;\n        }\n\n        // the sender must be the owner or the candidate\n        if ((msg.sender == asset.owner) || (msg.sender == asset.candidate)) {\n            // we need to refund by sending back the deposit to the candidate\n            _refund(asset, _assetId);\n        } else {\n            require(false, \"Refund not authorised for this account\");\n        }\n    }\n\n    // remove the asset and refund the potiential candidate\n    function removeAsset(uint256 _assetId) public {\n        AssetItem storage asset = assets[_assetId];\n\n        // is this asset exists?\n        if (asset.owner == 0x0) {\n            return;\n        }\n\n        // only the asset's owner is allowed to remove this asset\n        require(msg.sender == asset.owner, \"Action allowed only to the owner\");\n\n        if (asset.candidate != 0x0) {\n            // we need to refund by sending back the deposit to the candidate\n            _refund(asset, _assetId);\n        }\n\n        // remove the asset\n        delete assets[_assetId];\n\n        emit AssetRemoved(msg.sender, _assetId);\n    }\n\n    // return asset IDs owned by the function's caller\n    function getMyAssets() view public returns (uint[]) {\n        if (assetCounter == 0) {\n            return new uint[](0);\n        }\n\n        // prepare output array\n        uint256[] memory assetIDs = new uint[](assetCounter);\n\n        // iterate over assets\n        uint256 numberOfAssets = 0;\n        for (uint i = 1; i <= assetCounter; i++) {\n            // keep the ID of the asset owned by the sender\n            if (assets[i].owner == msg.sender) {\n                assetIDs[numberOfAssets] = assets[i].id;\n\n                numberOfAssets = numberOfAssets.add(1);\n            }\n        }\n\n        // copy the asset ID array into a smaller array\n        uint256[] memory myAsset = new uint[](numberOfAssets);\n        for (uint j = 0; j < numberOfAssets; j++) {\n            myAsset[j] = assetIDs[j];\n        }\n\n        return myAsset;\n    }\n\n    // execute the refund\n    function _refund(AssetItem storage _asset, uint256 _assetId) internal {\n\n        if (_asset.candidate == 0x0) {\n            return;\n        }\n\n        // keep the former owner and the price paid by the purchase\n        address _candidate = _asset.candidate;\n        uint256 _price = depositsBalance[_assetId];\n\n        // move the asset to the buyer and reset its state\n        _asset.candidate = 0x0;\n        delete depositsBalance[_assetId];\n\n        if (_price > 0) {\n            // transfer back the amount to the candidate\n            _candidate.transfer(_price);\n        }\n\n        emit Refund(_assetId, _asset.owner, msg.sender, _price);\n    }\n\n    // return asset IDs published in the marketplace\n    function getMarketplace() view public returns (uint[]) {\n        if (assetCounter == 0) {\n            return new uint[](0);\n        }\n\n        // prepare output array\n        uint256[] memory assetIDs = new uint[](assetCounter);\n\n        // iterate over assets\n        uint256 numberOfAssets = 0;\n        for (uint i = 1; i <= assetCounter; i++) {\n            // keep the ID of the asset published in the marketplace\n            if (assets[i].available) {\n                assetIDs[numberOfAssets] = assets[i].id;\n\n                numberOfAssets = numberOfAssets.add(1);\n            }\n        }\n\n        // copy the asset ID array into a smaller array\n        uint256[] memory myAsset = new uint[](numberOfAssets);\n        for (uint j = 0; j < numberOfAssets; j++) {\n            myAsset[j] = assetIDs[j];\n        }\n\n        return myAsset;\n    }\n\n    // Retrieve an asset based on its ID\n    function getAsset(uint _assetId) view public returns (\n        address _owner,\n        address _candidate,\n        string _name,\n        string _description,\n        string _hashKey,\n        uint256 _price,\n        bool _available) {\n\n        AssetItem memory asset = assets[_assetId];\n\n        // ensure that we have an asset to fetch\n        if (asset.owner == 0x0) {\n            return (0x0, 0x0, \"\", \"\", \"\", 0, false);\n        }\n\n        return (\n            asset.owner,\n            asset.candidate,\n            asset.name,\n            asset.description,\n            asset.hashKey,\n            asset.price,\n            asset.available);\n    }\n\n\n\n    function getOwner(uint _assetId) view public returns (address) {\n        AssetItem memory asset = assets[_assetId];\n\n        // ensure that we have an asset to fetch\n        if (asset.owner == 0x0) {\n            return (0x0);\n        }\n\n\n        return asset.owner;\n    }\n\n    function getCandidate(uint _assetId) view public returns (address) {\n        AssetItem memory asset = assets[_assetId];\n\n        // ensure that we have an asset to fetch\n        if (asset.owner == 0x0) {\n            return (0x0);\n        }\n\n\n        return asset.candidate;\n    }\n\n\n    function getName(uint _assetId) view public returns (string) {\n        AssetItem memory asset = assets[_assetId];\n\n        // ensure that we have an asset to fetch\n        if (asset.owner == 0x0) {\n            return (\"\");\n        }\n\n\n        return asset.name;\n    }\n\n    function getDescription(uint _assetId) view public returns (string) {\n        AssetItem memory asset = assets[_assetId];\n\n        // ensure that we have an asset to fetch\n        if (asset.owner == 0x0) {\n            return (\"\");\n        }\n\n\n        return asset.description;\n    }\n\n    function getHashKey(uint _assetId) view public returns (string) {\n        AssetItem memory asset = assets[_assetId];\n\n        // ensure that we have an asset to fetch\n        if (asset.owner == 0x0) {\n            return (\"\");\n        }\n\n\n        return asset.hashKey;\n    }\n\n    function getPrice(uint _assetId) view public returns (uint256) {\n        AssetItem memory asset = assets[_assetId];\n\n        // ensure that we have an asset to fetch\n        if (asset.owner == 0x0) {\n            return (0);\n        }\n\n\n        return asset.price;\n    }\n\n    function getAvailability(uint _assetId) view public returns (bool) {\n        AssetItem memory asset = assets[_assetId];\n\n        // ensure that we have an asset to fetch\n        if (asset.owner == 0x0) {\n            return (false);\n        }\n\n\n        return asset.available;\n    }\n\n    function isContractOwner() view public returns (bool) {\n        // ensure that we have an asset to fetch\n        if (owner() == msg.sender) {\n            return (true);\n        }\n\n        return false;\n    }\n}",
  "sourcePath": "/Users/eloudsa/ChainSkills/projects/depositum/contracts/AssetContract.sol",
  "compiler": {
    "name": "solc",
    "version": "0.4.25+commit.59dbf8f1.Emscripten.clang"
  },
  "schemaVersion": "3.0.0-beta.1",
  "updatedAt": "2018-11-14T20:42:44.304Z"
}