{
  "contractName": "AssetContract",
  "abi": [
    {
      "constant": true,
      "inputs": [],
      "name": "name",
      "outputs": [
        {
          "name": "",
          "type": "string"
        }
      ],
      "payable": false,
      "stateMutability": "view",
      "type": "function",
      "signature": "0x06fdde03"
    },
    {
      "constant": false,
      "inputs": [
        {
          "name": "spender",
          "type": "address"
        },
        {
          "name": "value",
          "type": "uint256"
        }
      ],
      "name": "approve",
      "outputs": [
        {
          "name": "",
          "type": "bool"
        }
      ],
      "payable": false,
      "stateMutability": "nonpayable",
      "type": "function",
      "signature": "0x095ea7b3"
    },
    {
      "constant": true,
      "inputs": [],
      "name": "getServiceFee",
      "outputs": [
        {
          "name": "_serviceFee",
          "type": "uint256"
        }
      ],
      "payable": false,
      "stateMutability": "view",
      "type": "function",
      "signature": "0x11a1933c"
    },
    {
      "constant": true,
      "inputs": [],
      "name": "totalSupply",
      "outputs": [
        {
          "name": "",
          "type": "uint256"
        }
      ],
      "payable": false,
      "stateMutability": "view",
      "type": "function",
      "signature": "0x18160ddd"
    },
    {
      "constant": false,
      "inputs": [
        {
          "name": "from",
          "type": "address"
        },
        {
          "name": "to",
          "type": "address"
        },
        {
          "name": "value",
          "type": "uint256"
        }
      ],
      "name": "transferFrom",
      "outputs": [
        {
          "name": "",
          "type": "bool"
        }
      ],
      "payable": false,
      "stateMutability": "nonpayable",
      "type": "function",
      "signature": "0x23b872dd"
    },
    {
      "constant": true,
      "inputs": [],
      "name": "rate",
      "outputs": [
        {
          "name": "",
          "type": "uint256"
        }
      ],
      "payable": false,
      "stateMutability": "view",
      "type": "function",
      "signature": "0x2c4e722e"
    },
    {
      "constant": true,
      "inputs": [],
      "name": "decimals",
      "outputs": [
        {
          "name": "",
          "type": "uint8"
        }
      ],
      "payable": false,
      "stateMutability": "view",
      "type": "function",
      "signature": "0x313ce567"
    },
    {
      "constant": false,
      "inputs": [
        {
          "name": "_newRate",
          "type": "uint256"
        }
      ],
      "name": "setRate",
      "outputs": [],
      "payable": false,
      "stateMutability": "nonpayable",
      "type": "function",
      "signature": "0x34fcf437"
    },
    {
      "constant": false,
      "inputs": [
        {
          "name": "spender",
          "type": "address"
        },
        {
          "name": "addedValue",
          "type": "uint256"
        }
      ],
      "name": "increaseAllowance",
      "outputs": [
        {
          "name": "",
          "type": "bool"
        }
      ],
      "payable": false,
      "stateMutability": "nonpayable",
      "type": "function",
      "signature": "0x39509351"
    },
    {
      "constant": false,
      "inputs": [
        {
          "name": "to",
          "type": "address"
        },
        {
          "name": "value",
          "type": "uint256"
        }
      ],
      "name": "mint",
      "outputs": [
        {
          "name": "",
          "type": "bool"
        }
      ],
      "payable": false,
      "stateMutability": "nonpayable",
      "type": "function",
      "signature": "0x40c10f19"
    },
    {
      "constant": false,
      "inputs": [
        {
          "name": "_serviceFee",
          "type": "uint256"
        }
      ],
      "name": "setServiceFee",
      "outputs": [],
      "payable": false,
      "stateMutability": "nonpayable",
      "type": "function",
      "signature": "0x5cdf76f8"
    },
    {
      "constant": true,
      "inputs": [],
      "name": "getRate",
      "outputs": [
        {
          "name": "_rate",
          "type": "uint256"
        }
      ],
      "payable": false,
      "stateMutability": "view",
      "type": "function",
      "signature": "0x679aefce"
    },
    {
      "constant": true,
      "inputs": [
        {
          "name": "owner",
          "type": "address"
        }
      ],
      "name": "balanceOf",
      "outputs": [
        {
          "name": "",
          "type": "uint256"
        }
      ],
      "payable": false,
      "stateMutability": "view",
      "type": "function",
      "signature": "0x70a08231"
    },
    {
      "constant": false,
      "inputs": [],
      "name": "renounceOwnership",
      "outputs": [],
      "payable": false,
      "stateMutability": "nonpayable",
      "type": "function",
      "signature": "0x715018a6"
    },
    {
      "constant": true,
      "inputs": [],
      "name": "serviceFee",
      "outputs": [
        {
          "name": "",
          "type": "uint256"
        }
      ],
      "payable": false,
      "stateMutability": "view",
      "type": "function",
      "signature": "0x8abdf5aa"
    },
    {
      "constant": true,
      "inputs": [],
      "name": "owner",
      "outputs": [
        {
          "name": "",
          "type": "address"
        }
      ],
      "payable": false,
      "stateMutability": "view",
      "type": "function",
      "signature": "0x8da5cb5b"
    },
    {
      "constant": true,
      "inputs": [],
      "name": "isOwner",
      "outputs": [
        {
          "name": "",
          "type": "bool"
        }
      ],
      "payable": false,
      "stateMutability": "view",
      "type": "function",
      "signature": "0x8f32d59b"
    },
    {
      "constant": true,
      "inputs": [],
      "name": "getEarnings",
      "outputs": [
        {
          "name": "_balanceEarnings",
          "type": "uint256"
        }
      ],
      "payable": false,
      "stateMutability": "view",
      "type": "function",
      "signature": "0x90666232"
    },
    {
      "constant": true,
      "inputs": [],
      "name": "symbol",
      "outputs": [
        {
          "name": "",
          "type": "string"
        }
      ],
      "payable": false,
      "stateMutability": "view",
      "type": "function",
      "signature": "0x95d89b41"
    },
    {
      "constant": true,
      "inputs": [
        {
          "name": "",
          "type": "uint256"
        }
      ],
      "name": "depositsBalance",
      "outputs": [
        {
          "name": "",
          "type": "uint256"
        }
      ],
      "payable": false,
      "stateMutability": "view",
      "type": "function",
      "signature": "0x981b5804"
    },
    {
      "constant": false,
      "inputs": [
        {
          "name": "account",
          "type": "address"
        }
      ],
      "name": "addMinter",
      "outputs": [],
      "payable": false,
      "stateMutability": "nonpayable",
      "type": "function",
      "signature": "0x983b2d56"
    },
    {
      "constant": false,
      "inputs": [],
      "name": "renounceMinter",
      "outputs": [],
      "payable": false,
      "stateMutability": "nonpayable",
      "type": "function",
      "signature": "0x98650275"
    },
    {
      "constant": false,
      "inputs": [
        {
          "name": "_tokens",
          "type": "uint256"
        }
      ],
      "name": "mint",
      "outputs": [],
      "payable": false,
      "stateMutability": "nonpayable",
      "type": "function",
      "signature": "0xa0712d68"
    },
    {
      "constant": false,
      "inputs": [
        {
          "name": "spender",
          "type": "address"
        },
        {
          "name": "subtractedValue",
          "type": "uint256"
        }
      ],
      "name": "decreaseAllowance",
      "outputs": [
        {
          "name": "",
          "type": "bool"
        }
      ],
      "payable": false,
      "stateMutability": "nonpayable",
      "type": "function",
      "signature": "0xa457c2d7"
    },
    {
      "constant": false,
      "inputs": [
        {
          "name": "to",
          "type": "address"
        },
        {
          "name": "value",
          "type": "uint256"
        }
      ],
      "name": "transfer",
      "outputs": [
        {
          "name": "",
          "type": "bool"
        }
      ],
      "payable": false,
      "stateMutability": "nonpayable",
      "type": "function",
      "signature": "0xa9059cbb"
    },
    {
      "constant": true,
      "inputs": [
        {
          "name": "account",
          "type": "address"
        }
      ],
      "name": "isMinter",
      "outputs": [
        {
          "name": "",
          "type": "bool"
        }
      ],
      "payable": false,
      "stateMutability": "view",
      "type": "function",
      "signature": "0xaa271e1a"
    },
    {
      "constant": true,
      "inputs": [
        {
          "name": "",
          "type": "uint256"
        }
      ],
      "name": "assets",
      "outputs": [
        {
          "name": "id",
          "type": "uint256"
        },
        {
          "name": "owner",
          "type": "address"
        },
        {
          "name": "candidate",
          "type": "address"
        },
        {
          "name": "name",
          "type": "string"
        },
        {
          "name": "description",
          "type": "string"
        },
        {
          "name": "hashKey",
          "type": "string"
        },
        {
          "name": "price",
          "type": "uint256"
        },
        {
          "name": "encrypted",
          "type": "bool"
        },
        {
          "name": "marketplace",
          "type": "bool"
        }
      ],
      "payable": false,
      "stateMutability": "view",
      "type": "function",
      "signature": "0xcf35bdd0"
    },
    {
      "constant": false,
      "inputs": [],
      "name": "buyTokens",
      "outputs": [],
      "payable": true,
      "stateMutability": "payable",
      "type": "function",
      "signature": "0xd0febe4c"
    },
    {
      "constant": true,
      "inputs": [
        {
          "name": "owner",
          "type": "address"
        },
        {
          "name": "spender",
          "type": "address"
        }
      ],
      "name": "allowance",
      "outputs": [
        {
          "name": "",
          "type": "uint256"
        }
      ],
      "payable": false,
      "stateMutability": "view",
      "type": "function",
      "signature": "0xdd62ed3e"
    },
    {
      "constant": false,
      "inputs": [
        {
          "name": "newOwner",
          "type": "address"
        }
      ],
      "name": "transferOwnership",
      "outputs": [],
      "payable": false,
      "stateMutability": "nonpayable",
      "type": "function",
      "signature": "0xf2fde38b"
    },
    {
      "constant": false,
      "inputs": [],
      "name": "transferEarnings",
      "outputs": [],
      "payable": false,
      "stateMutability": "nonpayable",
      "type": "function",
      "signature": "0xfe37f5ca"
    },
    {
      "inputs": [
        {
          "name": "_rate",
          "type": "uint256"
        },
        {
          "name": "_tokens",
          "type": "uint256"
        },
        {
          "name": "_serviceFee",
          "type": "uint256"
        }
      ],
      "payable": false,
      "stateMutability": "nonpayable",
      "type": "constructor",
      "signature": "constructor"
    },
    {
      "anonymous": false,
      "inputs": [
        {
          "indexed": false,
          "name": "_assetId",
          "type": "uint256"
        },
        {
          "indexed": false,
          "name": "_owner",
          "type": "address"
        },
        {
          "indexed": false,
          "name": "_name",
          "type": "string"
        },
        {
          "indexed": false,
          "name": "_description",
          "type": "string"
        },
        {
          "indexed": false,
          "name": "_hashKey",
          "type": "string"
        },
        {
          "indexed": false,
          "name": "_price",
          "type": "uint256"
        }
      ],
      "name": "NewAsset",
      "type": "event",
      "signature": "0x4efe84f42f5dc8e26465778176a705ad3410cf364c7671cb60cfc8e1f5fe7f3a"
    },
    {
      "anonymous": false,
      "inputs": [
        {
          "indexed": false,
          "name": "_assetId",
          "type": "uint256"
        },
        {
          "indexed": false,
          "name": "_owner",
          "type": "address"
        },
        {
          "indexed": false,
          "name": "_name",
          "type": "string"
        },
        {
          "indexed": false,
          "name": "_description",
          "type": "string"
        },
        {
          "indexed": false,
          "name": "_hashKey",
          "type": "string"
        },
        {
          "indexed": false,
          "name": "_price",
          "type": "uint256"
        }
      ],
      "name": "UpdateAsset",
      "type": "event",
      "signature": "0x5b06687e2faf130980555e1015a965e09459b7d538a348953f70a14109db3a42"
    },
    {
      "anonymous": false,
      "inputs": [
        {
          "indexed": false,
          "name": "_owner",
          "type": "address"
        },
        {
          "indexed": false,
          "name": "_assetId",
          "type": "uint256"
        }
      ],
      "name": "AssetRemoved",
      "type": "event",
      "signature": "0x3406221f53114f44c9a1bb93d08ee55735f39bf235a54741684a52501207bb54"
    },
    {
      "anonymous": false,
      "inputs": [
        {
          "indexed": false,
          "name": "_assetId",
          "type": "uint256"
        },
        {
          "indexed": false,
          "name": "_owner",
          "type": "address"
        },
        {
          "indexed": false,
          "name": "_name",
          "type": "string"
        },
        {
          "indexed": false,
          "name": "_description",
          "type": "string"
        },
        {
          "indexed": false,
          "name": "_price",
          "type": "uint256"
        }
      ],
      "name": "SetMarketplace",
      "type": "event",
      "signature": "0x5d095dcaf5e2fe5894fd51fdc2e637dd6095cb9b9b3c20d178cecc053a7a8c4e"
    },
    {
      "anonymous": false,
      "inputs": [
        {
          "indexed": false,
          "name": "_assetId",
          "type": "uint256"
        },
        {
          "indexed": false,
          "name": "_owner",
          "type": "address"
        },
        {
          "indexed": false,
          "name": "_candidate",
          "type": "address"
        },
        {
          "indexed": false,
          "name": "_name",
          "type": "string"
        },
        {
          "indexed": false,
          "name": "_description",
          "type": "string"
        },
        {
          "indexed": false,
          "name": "_price",
          "type": "uint256"
        }
      ],
      "name": "UnsetMarketplace",
      "type": "event",
      "signature": "0x93759953971d9dce99ec5e86ee853a8b7d7b7fdbc7c34ead5e76872c4d3eaf20"
    },
    {
      "anonymous": false,
      "inputs": [
        {
          "indexed": false,
          "name": "_assetId",
          "type": "uint256"
        },
        {
          "indexed": false,
          "name": "_owner",
          "type": "address"
        },
        {
          "indexed": false,
          "name": "_candidate",
          "type": "address"
        },
        {
          "indexed": false,
          "name": "_price",
          "type": "uint256"
        }
      ],
      "name": "Deposit",
      "type": "event",
      "signature": "0x2c0f148b435140de488c1b34647f1511c646f7077e87007bacf22ef9977a16d8"
    },
    {
      "anonymous": false,
      "inputs": [
        {
          "indexed": false,
          "name": "_assetId",
          "type": "uint256"
        },
        {
          "indexed": false,
          "name": "_formerOwner",
          "type": "address"
        },
        {
          "indexed": false,
          "name": "_newOwner",
          "type": "address"
        },
        {
          "indexed": false,
          "name": "_price",
          "type": "uint256"
        }
      ],
      "name": "Purchase",
      "type": "event",
      "signature": "0xe3cf0e0098f447c6d9bc08ffbbf3f193d35c51b57d7de6bb9ccb79f4995ccf71"
    },
    {
      "anonymous": false,
      "inputs": [
        {
          "indexed": false,
          "name": "_assetId",
          "type": "uint256"
        },
        {
          "indexed": false,
          "name": "_owner",
          "type": "address"
        },
        {
          "indexed": false,
          "name": "_candidate",
          "type": "address"
        },
        {
          "indexed": false,
          "name": "_price",
          "type": "uint256"
        }
      ],
      "name": "Refund",
      "type": "event",
      "signature": "0xae4600bc3786dafd4f3459692821fe209dcde1a5283d33f0675340813bc4ad48"
    },
    {
      "anonymous": false,
      "inputs": [
        {
          "indexed": false,
          "name": "_owner",
          "type": "address"
        },
        {
          "indexed": false,
          "name": "_amount",
          "type": "uint256"
        }
      ],
      "name": "TransferEarnings",
      "type": "event",
      "signature": "0x891ae5db36adc1f5de7dc42f6ca52213e0a23b3fe35235094e12789e9917dd7a"
    },
    {
      "anonymous": false,
      "inputs": [
        {
          "indexed": true,
          "name": "account",
          "type": "address"
        }
      ],
      "name": "MinterAdded",
      "type": "event",
      "signature": "0x6ae172837ea30b801fbfcdd4108aa1d5bf8ff775444fd70256b44e6bf3dfc3f6"
    },
    {
      "anonymous": false,
      "inputs": [
        {
          "indexed": true,
          "name": "account",
          "type": "address"
        }
      ],
      "name": "MinterRemoved",
      "type": "event",
      "signature": "0xe94479a9f7e1952cc78f2d6baab678adc1b772d936c6583def489e524cb66692"
    },
    {
      "anonymous": false,
      "inputs": [
        {
          "indexed": true,
          "name": "from",
          "type": "address"
        },
        {
          "indexed": true,
          "name": "to",
          "type": "address"
        },
        {
          "indexed": false,
          "name": "value",
          "type": "uint256"
        }
      ],
      "name": "Transfer",
      "type": "event",
      "signature": "0xddf252ad1be2c89b69c2b068fc378daa952ba7f163c4a11628f55a4df523b3ef"
    },
    {
      "anonymous": false,
      "inputs": [
        {
          "indexed": true,
          "name": "owner",
          "type": "address"
        },
        {
          "indexed": true,
          "name": "spender",
          "type": "address"
        },
        {
          "indexed": false,
          "name": "value",
          "type": "uint256"
        }
      ],
      "name": "Approval",
      "type": "event",
      "signature": "0x8c5be1e5ebec7d5bd14f71427d1e84f3dd0314c0f7b2291e5b200ac8c7c3b925"
    },
    {
      "anonymous": false,
      "inputs": [
        {
          "indexed": true,
          "name": "previousOwner",
          "type": "address"
        },
        {
          "indexed": true,
          "name": "newOwner",
          "type": "address"
        }
      ],
      "name": "OwnershipTransferred",
      "type": "event",
      "signature": "0x8be0079c531659141344cd1fd0a4f28419497f9722a3daafe3b4186f6b6457e0"
    },
    {
      "constant": false,
      "inputs": [
        {
          "name": "_name",
          "type": "string"
        },
        {
          "name": "_description",
          "type": "string"
        },
        {
          "name": "_hashKey",
          "type": "string"
        },
        {
          "name": "_price",
          "type": "uint256"
        },
        {
          "name": "_encrypted",
          "type": "bool"
        }
      ],
      "name": "addAsset",
      "outputs": [],
      "payable": false,
      "stateMutability": "nonpayable",
      "type": "function",
      "signature": "0x9ef8984e"
    },
    {
      "constant": false,
      "inputs": [
        {
          "name": "_assetId",
          "type": "uint256"
        },
        {
          "name": "_name",
          "type": "string"
        },
        {
          "name": "_description",
          "type": "string"
        },
        {
          "name": "_hashKey",
          "type": "string"
        },
        {
          "name": "_price",
          "type": "uint256"
        },
        {
          "name": "_encrypted",
          "type": "bool"
        }
      ],
      "name": "updateAsset",
      "outputs": [],
      "payable": false,
      "stateMutability": "nonpayable",
      "type": "function",
      "signature": "0x2da9e985"
    },
    {
      "constant": false,
      "inputs": [
        {
          "name": "_assetId",
          "type": "uint256"
        }
      ],
      "name": "setMarketplace",
      "outputs": [],
      "payable": false,
      "stateMutability": "nonpayable",
      "type": "function",
      "signature": "0xe70bdacf"
    },
    {
      "constant": false,
      "inputs": [
        {
          "name": "_assetId",
          "type": "uint256"
        }
      ],
      "name": "unsetMarketplace",
      "outputs": [],
      "payable": false,
      "stateMutability": "nonpayable",
      "type": "function",
      "signature": "0x229c11a6"
    },
    {
      "constant": false,
      "inputs": [
        {
          "name": "_assetId",
          "type": "uint256"
        }
      ],
      "name": "deposit",
      "outputs": [],
      "payable": true,
      "stateMutability": "payable",
      "type": "function",
      "signature": "0xb6b55f25"
    },
    {
      "constant": false,
      "inputs": [
        {
          "name": "_assetId",
          "type": "uint256"
        }
      ],
      "name": "purchaseAsset",
      "outputs": [],
      "payable": false,
      "stateMutability": "nonpayable",
      "type": "function",
      "signature": "0xa457e1c0"
    },
    {
      "constant": false,
      "inputs": [
        {
          "name": "_assetId",
          "type": "uint256"
        }
      ],
      "name": "refundPurchase",
      "outputs": [],
      "payable": false,
      "stateMutability": "nonpayable",
      "type": "function",
      "signature": "0x1c77b27a"
    },
    {
      "constant": false,
      "inputs": [
        {
          "name": "_assetId",
          "type": "uint256"
        }
      ],
      "name": "removeAsset",
      "outputs": [],
      "payable": false,
      "stateMutability": "nonpayable",
      "type": "function",
      "signature": "0xf14f58f1"
    },
    {
      "constant": true,
      "inputs": [],
      "name": "getMyAssets",
      "outputs": [
        {
          "name": "",
          "type": "uint256[]"
        }
      ],
      "payable": false,
      "stateMutability": "view",
      "type": "function",
      "signature": "0x47002d1d"
    },
    {
      "constant": true,
      "inputs": [],
      "name": "getMarketplace",
      "outputs": [
        {
          "name": "",
          "type": "uint256[]"
        }
      ],
      "payable": false,
      "stateMutability": "view",
      "type": "function",
      "signature": "0x0d21bcd5"
    },
    {
      "constant": true,
      "inputs": [
        {
          "name": "_assetId",
          "type": "uint256"
        }
      ],
      "name": "getAsset",
      "outputs": [
        {
          "name": "_owner",
          "type": "address"
        },
        {
          "name": "_candidate",
          "type": "address"
        },
        {
          "name": "_name",
          "type": "string"
        },
        {
          "name": "_description",
          "type": "string"
        },
        {
          "name": "_hashKey",
          "type": "string"
        },
        {
          "name": "_price",
          "type": "uint256"
        },
        {
          "name": "_encrypted",
          "type": "bool"
        },
        {
          "name": "_marketplace",
          "type": "bool"
        }
      ],
      "payable": false,
      "stateMutability": "view",
      "type": "function",
      "signature": "0xeac8f5b8"
    },
    {
      "constant": true,
      "inputs": [
        {
          "name": "_assetId",
          "type": "uint256"
        }
      ],
      "name": "getOwner",
      "outputs": [
        {
          "name": "",
          "type": "address"
        }
      ],
      "payable": false,
      "stateMutability": "view",
      "type": "function",
      "signature": "0xc41a360a"
    },
    {
      "constant": true,
      "inputs": [
        {
          "name": "_assetId",
          "type": "uint256"
        }
      ],
      "name": "getCandidate",
      "outputs": [
        {
          "name": "",
          "type": "address"
        }
      ],
      "payable": false,
      "stateMutability": "view",
      "type": "function",
      "signature": "0x35b8e820"
    },
    {
      "constant": true,
      "inputs": [
        {
          "name": "_assetId",
          "type": "uint256"
        }
      ],
      "name": "getName",
      "outputs": [
        {
          "name": "",
          "type": "string"
        }
      ],
      "payable": false,
      "stateMutability": "view",
      "type": "function",
      "signature": "0x6b8ff574"
    },
    {
      "constant": true,
      "inputs": [
        {
          "name": "_assetId",
          "type": "uint256"
        }
      ],
      "name": "getDescription",
      "outputs": [
        {
          "name": "",
          "type": "string"
        }
      ],
      "payable": false,
      "stateMutability": "view",
      "type": "function",
      "signature": "0x4925ec55"
    },
    {
      "constant": true,
      "inputs": [
        {
          "name": "_assetId",
          "type": "uint256"
        }
      ],
      "name": "getHashKey",
      "outputs": [
        {
          "name": "_hashKey",
          "type": "string"
        },
        {
          "name": "_encrypted",
          "type": "bool"
        }
      ],
      "payable": false,
      "stateMutability": "view",
      "type": "function",
      "signature": "0x6ce9eb64"
    },
    {
      "constant": true,
      "inputs": [
        {
          "name": "_assetId",
          "type": "uint256"
        }
      ],
      "name": "getPrice",
      "outputs": [
        {
          "name": "",
          "type": "uint256"
        }
      ],
      "payable": false,
      "stateMutability": "view",
      "type": "function",
      "signature": "0xe7572230"
    },
    {
      "constant": true,
      "inputs": [
        {
          "name": "_assetId",
          "type": "uint256"
        }
      ],
      "name": "isMarketplace",
      "outputs": [
        {
          "name": "",
          "type": "bool"
        }
      ],
      "payable": false,
      "stateMutability": "view",
      "type": "function",
      "signature": "0x6055d013"
    },
    {
      "constant": true,
      "inputs": [],
      "name": "isContractOwner",
      "outputs": [
        {
          "name": "",
          "type": "bool"
        }
      ],
      "payable": false,
      "stateMutability": "view",
      "type": "function",
      "signature": "0x7f7dcdbf"
    }
  ],
  "bytecode": "0x60806040523480156200001157600080fd5b50604051606080620048b083398101604081815282516020840151919093015160008054600160a060020a031916331780825592939192600160a060020a0316917f8be0079c531659141344cd1fd0a4f28419497f9722a3daafe3b4186f6b6457e0908290a36200008b33640100000000620000d1810204565b600083116200009957600080fd5b6064821015620000a857600080fd5b60058390556006819055620000c7338364010000000062000123810204565b50505050620002f4565b620000ec600482640100000000620043836200016382021704565b604051600160a060020a038216907f6ae172837ea30b801fbfcdd4108aa1d5bf8ff775444fd70256b44e6bf3dfc3f690600090a250565b60006200013933640100000000620001be810204565b15156200014557600080fd5b6200015a8383640100000000620001e1810204565b50600192915050565b600160a060020a03811615156200017957600080fd5b6200018e8282640100000000620002a2810204565b156200019957600080fd5b600160a060020a0316600090815260209190915260409020805460ff19166001179055565b6000620001db600483640100000000620042b9620002a282021704565b92915050565b600160a060020a0382161515620001f757600080fd5b60035462000214908264010000000062003ed3620002da82021704565b600355600160a060020a0382166000908152600160205260409020546200024a908264010000000062003ed3620002da82021704565b600160a060020a03831660008181526001602090815260408083209490945583518581529351929391927fddf252ad1be2c89b69c2b068fc378daa952ba7f163c4a11628f55a4df523b3ef9281900390910190a35050565b6000600160a060020a0382161515620002ba57600080fd5b50600160a060020a03166000908152602091909152604090205460ff1690565b600082820183811015620002ed57600080fd5b9392505050565b6145ac80620003046000396000f30060806040526004361061025b5763ffffffff7c010000000000000000000000000000000000000000000000000000000060003504166306fdde038114610260578063095ea7b3146102ea5780630d21bcd51461032257806311a1933c1461038757806318160ddd146103ae5780631c77b27a146103c3578063229c11a6146103dd57806323b872dd146103f55780632c4e722e1461041f5780632da9e98514610434578063313ce5671461051557806334fcf4371461054057806335b8e82014610558578063395093511461058c57806340c10f19146105b057806347002d1d146105d45780634925ec55146105e95780635cdf76f8146106015780636055d01314610619578063679aefce146106315780636b8ff574146106465780636ce9eb641461065e57806370a08231146106f9578063715018a61461071a5780637f7dcdbf1461072f5780638abdf5aa146107445780638da5cb5b146107595780638f32d59b1461076e578063906662321461078357806395d89b4114610798578063981b5804146107ad578063983b2d56146107c557806398650275146107e65780639ef8984e146107fb578063a0712d68146108d7578063a457c2d7146108ef578063a457e1c014610913578063a9059cbb1461092b578063aa271e1a1461094f578063b6b55f2514610970578063c41a360a1461097b578063cf35bdd014610993578063d0febe4c14610b45578063dd62ed3e14610b4d578063e70bdacf14610b74578063e757223014610b8c578063eac8f5b814610ba4578063f14f58f114610d4f578063f2fde38b14610d67578063fe37f5ca14610d88575b600080fd5b34801561026c57600080fd5b50610275610d9d565b6040805160208082528351818301528351919283929083019185019080838360005b838110156102af578181015183820152602001610297565b50505050905090810190601f1680156102dc5780820380516001836020036101000a031916815260200191505b509250505060405180910390f35b3480156102f657600080fd5b5061030e600160a060020a0360043516602435610dd4565b604080519115158252519081900360200190f35b34801561032e57600080fd5b50610337610e52565b60408051602080825283518183015283519192839290830191858101910280838360005b8381101561037357818101518382015260200161035b565b505050509050019250505060405180910390f35b34801561039357600080fd5b5061039c610fa5565b60408051918252519081900360200190f35b3480156103ba57600080fd5b5061039c610fac565b3480156103cf57600080fd5b506103db600435610fb2565b005b3480156103e957600080fd5b506103db60043561108e565b34801561040157600080fd5b5061030e600160a060020a036004358116906024351660443561129f565b34801561042b57600080fd5b5061039c61133c565b34801561044057600080fd5b5060408051602060046024803582810135601f81018590048502860185019096528585526103db95833595369560449491939091019190819084018382808284375050604080516020601f89358b018035918201839004830284018301909452808352979a99988101979196509182019450925082915084018382808284375050604080516020601f89358b018035918201839004830284018301909452808352979a999881019791965091820194509250829150840183828082843750949750508435955050505050602001351515611342565b34801561052157600080fd5b5061052a6116c6565b6040805160ff9092168252519081900360200190f35b34801561054c57600080fd5b506103db6004356116cb565b34801561056457600080fd5b5061057060043561173b565b60408051600160a060020a039092168252519081900360200190f35b34801561059857600080fd5b5061030e600160a060020a036004351660243561199e565b3480156105bc57600080fd5b5061030e600160a060020a0360043516602435611a4e565b3480156105e057600080fd5b50610337611a77565b3480156105f557600080fd5b50610275600435611bbd565b34801561060d57600080fd5b506103db600435611e29565b34801561062557600080fd5b5061030e600435611ebf565b34801561063d57600080fd5b5061039c61211f565b34801561065257600080fd5b50610275600435612125565b34801561066a57600080fd5b50610676600435612391565b604051808060200183151515158152602001828103825284818151815260200191508051906020019080838360005b838110156106bd5781810151838201526020016106a5565b50505050905090810190601f1680156106ea5780820380516001836020036101000a031916815260200191505b50935050505060405180910390f35b34801561070557600080fd5b5061039c600160a060020a036004351661260f565b34801561072657600080fd5b506103db61262a565b34801561073b57600080fd5b5061030e612687565b34801561075057600080fd5b5061039c6126af565b34801561076557600080fd5b506105706126b5565b34801561077a57600080fd5b5061030e6126c4565b34801561078f57600080fd5b5061039c6126d5565b3480156107a457600080fd5b506102756126db565b3480156107b957600080fd5b5061039c600435612712565b3480156107d157600080fd5b506103db600160a060020a0360043516612724565b3480156107f257600080fd5b506103db612744565b34801561080757600080fd5b506040805160206004803580820135601f81018490048402850184019095528484526103db94369492936024939284019190819084018382808284375050604080516020601f89358b018035918201839004830284018301909452808352979a99988101979196509182019450925082915084018382808284375050604080516020601f89358b018035918201839004830284018301909452808352979a99988101979196509182019450925082915084018382808284375094975050843595505050505060200135151561274f565b3480156108e357600080fd5b506103db600435612b56565b3480156108fb57600080fd5b5061030e600160a060020a0360043516602435612b73565b34801561091f57600080fd5b506103db600435612bbe565b34801561093757600080fd5b5061030e600160a060020a0360043516602435612d60565b34801561095b57600080fd5b5061030e600160a060020a0360043516612d6d565b6103db600435612d86565b34801561098757600080fd5b50610570600435612fcf565b34801561099f57600080fd5b506109ab60043561322e565b604051808a815260200189600160a060020a0316600160a060020a0316815260200188600160a060020a0316600160a060020a03168152602001806020018060200180602001878152602001861515151581526020018515151515815260200184810384528a818151815260200191508051906020019080838360005b83811015610a40578181015183820152602001610a28565b50505050905090810190601f168015610a6d5780820380516001836020036101000a031916815260200191505b5084810383528951815289516020918201918b019080838360005b83811015610aa0578181015183820152602001610a88565b50505050905090810190601f168015610acd5780820380516001836020036101000a031916815260200191505b5084810382528851815288516020918201918a019080838360005b83811015610b00578181015183820152602001610ae8565b50505050905090810190601f168015610b2d5780820380516001836020036101000a031916815260200191505b509c5050505050505050505050505060405180910390f35b6103db613427565b348015610b5957600080fd5b5061039c600160a060020a0360043581169060243516613569565b348015610b8057600080fd5b506103db600435613594565b348015610b9857600080fd5b5061039c600435613778565b348015610bb057600080fd5b50610bbc6004356139d7565b6040518089600160a060020a0316600160a060020a0316815260200188600160a060020a0316600160a060020a03168152602001806020018060200180602001878152602001861515151581526020018515151515815260200184810384528a818151815260200191508051906020019080838360005b83811015610c4b578181015183820152602001610c33565b50505050905090810190601f168015610c785780820380516001836020036101000a031916815260200191505b5084810383528951815289516020918201918b019080838360005b83811015610cab578181015183820152602001610c93565b50505050905090810190601f168015610cd85780820380516001836020036101000a031916815260200191505b5084810382528851815288516020918201918a019080838360005b83811015610d0b578181015183820152602001610cf3565b50505050905090810190601f168015610d385780820380516001836020036101000a031916815260200191505b509b50505050505050505050505060405180910390f35b348015610d5b57600080fd5b506103db600435613cb8565b348015610d7357600080fd5b506103db600160a060020a0360043516613dfc565b348015610d9457600080fd5b506103db613e18565b60408051808201909152600981527f4465706f736974756d0000000000000000000000000000000000000000000000602082015281565b6000600160a060020a0383161515610deb57600080fd5b336000818152600260209081526040808320600160a060020a03881680855290835292819020869055805186815290519293927f8c5be1e5ebec7d5bd14f71427d1e84f3dd0314c0f7b2291e5b200ac8c7c3b925929181900390910190a350600192915050565b60608060008060606000600a5460001415610e815760408051600080825260208201909252905b509550610f9d565b600a54604051908082528060200260200182016040528015610ead578160200160208202803883390190505b50945060009350600192505b600a548311610f2757600083815260086020526040902060070154610100900460ff1615610f1c576000838152600860205260409020548551869086908110610efe57fe5b60209081029091010152610f1984600163ffffffff613ed316565b93505b600190920191610eb9565b83604051908082528060200260200182016040528015610f51578160200160208202803883390190505b509150600090505b83811015610f99578481815181101515610f6f57fe5b906020019060200201518282815181101515610f8757fe5b60209081029091010152600101610f59565b8195505b505050505090565b6006545b90565b60035490565b60008181526008602052604090206001810154600160a060020a03161515610fd95761108a565b6001810154600160a060020a031633148061100057506002810154600160a060020a031633145b156110145761100f8183613eec565b61108a565b6040805160e560020a62461bcd02815260206004820152602660248201527f526566756e64206e6f7420617574686f726973656420666f722074686973206160448201527f63636f756e740000000000000000000000000000000000000000000000000000606482015290519081900360840190fd5b5050565b60008181526008602052604090206001810154600160a060020a031615156110b55761108a565b6001810154600160a060020a03163314611107576040805160e560020a62461bcd0281526020600482018190526024820152600080516020614541833981519152604482015290519081900360640190fd5b60078101805461ff00191690556002810154600160a060020a0316156111315761100f8183613eec565b6002808201546006830154604080518681523360208201819052600160a060020a0390941691810182905260a0810183905260c0606082018181526003880180546000196001821615610100020116979097049183018290527f93759953971d9dce99ec5e86ee853a8b7d7b7fdbc7c34ead5e76872c4d3eaf2096899695909360048a019391929091608083019060e0840190879080156112135780601f106111e857610100808354040283529160200191611213565b820191906000526020600020905b8154815290600101906020018083116111f657829003601f168201915b50508381038252855460026000196101006001841615020190911604808252602090910190869080156112875780601f1061125c57610100808354040283529160200191611287565b820191906000526020600020905b81548152906001019060200180831161126a57829003601f168201915b50509850505050505050505060405180910390a15050565b600160a060020a03831660009081526002602090815260408083203384529091528120548211156112cf57600080fd5b600160a060020a0384166000908152600260209081526040808320338452909152902054611303908363ffffffff613fd816565b600160a060020a0385166000908152600260209081526040808320338452909152902055611332848484613fef565b5060019392505050565b60055481565b6000868152600860205260409020600181015460609081908190600160a060020a03161515611370576116ba565b6001840154600160a060020a031633146113c2576040805160e560020a62461bcd0281526020600482018190526024820152600080516020614541833981519152604482015290519081900360640190fd5b885189935060001061141e576040805160e560020a62461bcd02815260206004820152601260248201527f41206e616d652069732072657175697265640000000000000000000000000000604482015290519081900360640190fd5b875188925060001061147a576040805160e560020a62461bcd02815260206004820152601960248201527f41206465736372697074696f6e20697320726571756972656400000000000000604482015290519081900360640190fd5b50855186906000106114d6576040805160e560020a62461bcd02815260206004820181905260248201527f412068617368206b65792066726f6d2049504653206973207265717569726564604482015290519081900360640190fd5b88516114eb90600386019060208c019061441d565b50875161150190600486019060208b019061441d565b50865161151790600586019060208a019061441d565b506006840186905560078401805460ff1916861515179055604080518b815233602080830182905260a083018a905260c09383018481528d51948401949094528c517f5b06687e2faf130980555e1015a965e09459b7d538a348953f70a14109db3a42948f948f938f938f938f939290916060840191608085019160e08601918a019080838360005b838110156115b85781810151838201526020016115a0565b50505050905090810190601f1680156115e55780820380516001836020036101000a031916815260200191505b50848103835287518152875160209182019189019080838360005b83811015611618578181015183820152602001611600565b50505050905090810190601f1680156116455780820380516001836020036101000a031916815260200191505b50848103825286518152865160209182019188019080838360005b83811015611678578181015183820152602001611660565b50505050905090810190601f1680156116a55780820380516001836020036101000a031916815260200191505b50995050505050505050505060405180910390a15b50505050505050505050565b600081565b6116d36126c4565b15156116de57600080fd5b60008111611736576040805160e560020a62461bcd02815260206004820152601f60248201527f5468652072617465206d7573742062652067726561746572207468616e203000604482015290519081900360640190fd5b600555565b600061174561449b565b60008381526008602090815260409182902082516101208101845281548152600180830154600160a060020a03908116838601526002808501549091168387015260038401805487516101009482161594909402600019011691909104601f8101869004860283018601909652858252919492936060860193919291908301828280156118135780601f106117e857610100808354040283529160200191611813565b820191906000526020600020905b8154815290600101906020018083116117f657829003601f168201915b505050918352505060048201805460408051602060026001851615610100026000190190941693909304601f81018490048402820184019092528181529382019392918301828280156118a75780601f1061187c576101008083540402835291602001916118a7565b820191906000526020600020905b81548152906001019060200180831161188a57829003601f168201915b505050918352505060058201805460408051602060026001851615610100026000190190941693909304601f810184900484028201840190925281815293820193929183018282801561193b5780601f106119105761010080835404028352916020019161193b565b820191906000526020600020905b81548152906001019060200180831161191e57829003601f168201915b5050509183525050600682015460208083019190915260079092015460ff80821615156040840152610100909104161515606090910152810151909150600160a060020a031615156119905760009150611998565b806040015191505b50919050565b6000600160a060020a03831615156119b557600080fd5b336000908152600260209081526040808320600160a060020a03871684529091529020546119e9908363ffffffff613ed316565b336000818152600260209081526040808320600160a060020a0389168085529083529281902085905580519485525191937f8c5be1e5ebec7d5bd14f71427d1e84f3dd0314c0f7b2291e5b200ac8c7c3b925929081900390910190a350600192915050565b6000611a5933612d6d565b1515611a6457600080fd5b611a6e83836140d1565b50600192915050565b60608060008060606000600a5460001415611aa2576040805160008082526020820190925290610e79565b600a54604051908082528060200260200182016040528015611ace578160200160208202803883390190505b50945060009350600192505b600a548311611b4b57600083815260086020526040902060010154600160a060020a0316331415611b40576000838152600860205260409020548551869086908110611b2257fe5b60209081029091010152611b3d84600163ffffffff613ed316565b93505b600190920191611ada565b83604051908082528060200260200182016040528015611b75578160200160208202803883390190505b509150600090505b83811015610f99578481815181101515611b9357fe5b906020019060200201518282815181101515611bab57fe5b60209081029091010152600101611b7d565b6060611bc761449b565b60008381526008602090815260409182902082516101208101845281548152600180830154600160a060020a03908116838601526002808501549091168387015260038401805487516101009482161594909402600019011691909104601f810186900486028301860190965285825291949293606086019391929190830182828015611c955780601f10611c6a57610100808354040283529160200191611c95565b820191906000526020600020905b815481529060010190602001808311611c7857829003601f168201915b505050918352505060048201805460408051602060026001851615610100026000190190941693909304601f8101849004840282018401909252818152938201939291830182828015611d295780601f10611cfe57610100808354040283529160200191611d29565b820191906000526020600020905b815481529060010190602001808311611d0c57829003601f168201915b505050918352505060058201805460408051602060026001851615610100026000190190941693909304601f8101849004840282018401909252818152938201939291830182828015611dbd5780601f10611d9257610100808354040283529160200191611dbd565b820191906000526020600020905b815481529060010190602001808311611da057829003601f168201915b5050509183525050600682015460208083019190915260079092015460ff80821615156040840152610100909104161515606090910152810151909150600160a060020a03161515611e1f576040805160208101909152600081529150611998565b6080015192915050565b611e316126c4565b1515611e3c57600080fd5b60008111611eba576040805160e560020a62461bcd02815260206004820152602660248201527f546865207365727669636520666565206d75737420626520677265617465722060448201527f7468616e20300000000000000000000000000000000000000000000000000000606482015290519081900360840190fd5b600655565b6000611ec961449b565b60008381526008602090815260409182902082516101208101845281548152600180830154600160a060020a03908116838601526002808501549091168387015260038401805487516101009482161594909402600019011691909104601f810186900486028301860190965285825291949293606086019391929190830182828015611f975780601f10611f6c57610100808354040283529160200191611f97565b820191906000526020600020905b815481529060010190602001808311611f7a57829003601f168201915b505050918352505060048201805460408051602060026001851615610100026000190190941693909304601f810184900484028201840190925281815293820193929183018282801561202b5780601f106120005761010080835404028352916020019161202b565b820191906000526020600020905b81548152906001019060200180831161200e57829003601f168201915b505050918352505060058201805460408051602060026001851615610100026000190190941693909304601f81018490048402820184019092528181529382019392918301828280156120bf5780601f10612094576101008083540402835291602001916120bf565b820191906000526020600020905b8154815290600101906020018083116120a257829003601f168201915b5050509183525050600682015460208083019190915260079092015460ff80821615156040840152610100909104161515606090910152810151909150600160a060020a031615156121145760009150611998565b610100015192915050565b60055490565b606061212f61449b565b60008381526008602090815260409182902082516101208101845281548152600180830154600160a060020a03908116838601526002808501549091168387015260038401805487516101009482161594909402600019011691909104601f8101869004860283018601909652858252919492936060860193919291908301828280156121fd5780601f106121d2576101008083540402835291602001916121fd565b820191906000526020600020905b8154815290600101906020018083116121e057829003601f168201915b505050918352505060048201805460408051602060026001851615610100026000190190941693909304601f81018490048402820184019092528181529382019392918301828280156122915780601f1061226657610100808354040283529160200191612291565b820191906000526020600020905b81548152906001019060200180831161227457829003601f168201915b505050918352505060058201805460408051602060026001851615610100026000190190941693909304601f81018490048402820184019092528181529382019392918301828280156123255780601f106122fa57610100808354040283529160200191612325565b820191906000526020600020905b81548152906001019060200180831161230857829003601f168201915b5050509183525050600682015460208083019190915260079092015460ff80821615156040840152610100909104161515606090910152810151909150600160a060020a03161515612387576040805160208101909152600081529150611998565b6060015192915050565b6060600061239d61449b565b60008481526008602090815260409182902082516101208101845281548152600180830154600160a060020a03908116838601526002808501549091168387015260038401805487516101009482161594909402600019011691909104601f81018690048602830186019096528582529194929360608601939192919083018282801561246b5780601f106124405761010080835404028352916020019161246b565b820191906000526020600020905b81548152906001019060200180831161244e57829003601f168201915b505050918352505060048201805460408051602060026001851615610100026000190190941693909304601f81018490048402820184019092528181529382019392918301828280156124ff5780601f106124d4576101008083540402835291602001916124ff565b820191906000526020600020905b8154815290600101906020018083116124e257829003601f168201915b505050918352505060058201805460408051602060026001851615610100026000190190941693909304601f81018490048402820184019092528181529382019392918301828280156125935780601f1061256857610100808354040283529160200191612593565b820191906000526020600020905b81548152906001019060200180831161257657829003601f168201915b5050509183525050600682015460208083019190915260079092015460ff80821615156040840152610100909104161515606090910152810151909150600160a060020a031615156125f957604080516020810190915260008082529093509150612609565b60a081015160e082015190935091505b50915091565b600160a060020a031660009081526001602052604090205490565b6126326126c4565b151561263d57600080fd5b60008054604051600160a060020a03909116907f8be0079c531659141344cd1fd0a4f28419497f9722a3daafe3b4186f6b6457e0908390a360008054600160a060020a0319169055565b6000336126926126b5565b600160a060020a031614156126a957506001610fa9565b50600090565b60065481565b600054600160a060020a031690565b600054600160a060020a0316331490565b60075490565b60408051808201909152600381527f44504d0000000000000000000000000000000000000000000000000000000000602082015281565b60096020526000908152604090205481565b61272d33612d6d565b151561273857600080fd5b6127418161416b565b50565b61274d336141b3565b565b8451859060609081906000106127af576040805160e560020a62461bcd02815260206004820152601260248201527f41206e616d652069732072657175697265640000000000000000000000000000604482015290519081900360640190fd5b865187925060001061280b576040805160e560020a62461bcd02815260206004820152601960248201527f41206465736372697074696f6e20697320726571756972656400000000000000604482015290519081900360640190fd5b5084518590600010612867576040805160e560020a62461bcd02815260206004820181905260248201527f412068617368206b65792066726f6d2049504653206973207265717569726564604482015290519081900360640190fd5b612873336006546141fb565b600a5461288790600163ffffffff613ed316565b600a81905560408051610120810182528281523360208083019182526000838501818152606085018f8152608086018f905260a086018e905260c086018d90528b151560e0870152610100860183905296825260088352949020835181559151600183018054600160a060020a0319908116600160a060020a03938416179091559451600284018054909616911617909355925180519193926129329260038501929091019061441d565b506080820151805161294e91600484019160209091019061441d565b5060a0820151805161296a91600584019160209091019061441d565b5060c0820151816006015560e08201518160070160006101000a81548160ff0219169083151502179055506101008201518160070160016101000a81548160ff0219169083151502179055509050507f4efe84f42f5dc8e26465778176a705ad3410cf364c7671cb60cfc8e1f5fe7f3a600a54338a8a8a8a6040518087815260200186600160a060020a0316600160a060020a03168152602001806020018060200180602001858152602001848103845288818151815260200191508051906020019080838360005b83811015612a4b578181015183820152602001612a33565b50505050905090810190601f168015612a785780820380516001836020036101000a031916815260200191505b50848103835287518152875160209182019189019080838360005b83811015612aab578181015183820152602001612a93565b50505050905090810190601f168015612ad85780820380516001836020036101000a031916815260200191505b50848103825286518152865160209182019188019080838360005b83811015612b0b578181015183820152602001612af3565b50505050905090810190601f168015612b385780820380516001836020036101000a031916815260200191505b50995050505050505050505060405180910390a15050505050505050565b612b5e6126c4565b1515612b6957600080fd5b61108a3382611a4e565b6000600160a060020a0383161515612b8a57600080fd5b336000908152600260209081526040808320600160a060020a03871684529091529020546119e9908363ffffffff613fd816565b600081815260086020526040812060018101549091908190600160a060020a03161515612bea57612d5a565b6002830154600160a060020a03163314612c74576040805160e560020a62461bcd02815260206004820152602b60248201527f417373657420616c726561647920726573657276656420746f20616e6f74686560448201527f722063616e646964617465000000000000000000000000000000000000000000606482015290519081900360840190fd5b505060018101805460008481526009602052604081208054600160a060020a031980851633179095556002860180549095169094556006850182905560078501805461ff001916905555600160a060020a0316908015612d0657604051600160a060020a0383169082156108fc029083906000818181858888f19350505050158015612d04573d6000803e3d6000fd5b505b600183015460408051868152600160a060020a039092166020830152338282015260608201839052517fe3cf0e0098f447c6d9bc08ffbbf3f193d35c51b57d7de6bb9ccb79f4995ccf719181900360800190a15b50505050565b6000611a6e338484613fef565b6000612d8060048363ffffffff6142b916565b92915050565b60008181526008602052604090206001810154600160a060020a03161515612dad5761108a565b6002810154600160a060020a031615612e36576040805160e560020a62461bcd02815260206004820152602b60248201527f417373657420616c726561647920726573657276656420746f20616e6f74686560448201527f722063616e646964617465000000000000000000000000000000000000000000606482015290519081900360840190fd5b6001810154600160a060020a0316331415612ec1576040805160e560020a62461bcd02815260206004820152602e60248201527f4465706f736974206e6f7420616c6c6f77656420666f7220746865206f776e6560448201527f72206f6620746865206173736574000000000000000000000000000000000000606482015290519081900360840190fd5b60068101543414612f42576040805160e560020a62461bcd02815260206004820152602260248201527f507269636520617265206e6f74207468652073616d652061732065787065637460448201527f6564000000000000000000000000000000000000000000000000000000000000606482015290519081900360840190fd5b600082815260096020908152604091829020349055600283018054600160a060020a03191633908117909155600184015460068501548451878152600160a060020a03929092169382019390935280840191909152606081019190915290517f2c0f148b435140de488c1b34647f1511c646f7077e87007bacf22ef9977a16d89181900360800190a15050565b6000612fd961449b565b60008381526008602090815260409182902082516101208101845281548152600180830154600160a060020a03908116838601526002808501549091168387015260038401805487516101009482161594909402600019011691909104601f8101869004860283018601909652858252919492936060860193919291908301828280156130a75780601f1061307c576101008083540402835291602001916130a7565b820191906000526020600020905b81548152906001019060200180831161308a57829003601f168201915b505050918352505060048201805460408051602060026001851615610100026000190190941693909304601f810184900484028201840190925281815293820193929183018282801561313b5780601f106131105761010080835404028352916020019161313b565b820191906000526020600020905b81548152906001019060200180831161311e57829003601f168201915b505050918352505060058201805460408051602060026001851615610100026000190190941693909304601f81018490048402820184019092528181529382019392918301828280156131cf5780601f106131a4576101008083540402835291602001916131cf565b820191906000526020600020905b8154815290600101906020018083116131b257829003601f168201915b5050509183525050600682015460208083019190915260079092015460ff80821615156040840152610100909104161515606090910152810151909150600160a060020a031615156132245760009150611998565b6020015192915050565b600860209081526000918252604091829020805460018083015460028085015460038601805489516101009682161596909602600019011692909204601f81018890048802850188019098528784529396600160a060020a039283169692909416949390918301828280156132e45780601f106132b9576101008083540402835291602001916132e4565b820191906000526020600020905b8154815290600101906020018083116132c757829003601f168201915b5050505060048301805460408051602060026001851615610100026000190190941693909304601f81018490048402820184019092528181529495949350908301828280156133745780601f1061334957610100808354040283529160200191613374565b820191906000526020600020905b81548152906001019060200180831161335757829003601f168201915b5050505060058301805460408051602060026001851615610100026000190190941693909304601f81018490048402820184019092528181529495949350908301828280156134045780601f106133d957610100808354040283529160200191613404565b820191906000526020600020905b8154815290600101906020018083116133e757829003601f168201915b50505050600683015460079093015491929160ff80821692506101009091041689565b6000806000600554111515613486576040805160e560020a62461bcd02815260206004820152601f60248201527f5468652072617465206d7573742062652067726561746572207468616e203000604482015290519081900360640190fd5b60055434925061349d90839063ffffffff6142f016565b9050806134b06134ab6126b5565b61260f565b1015613506576040805160e560020a62461bcd02815260206004820152601160248201527f4e6f7420656e6f75676820746f6b656e73000000000000000000000000000000604482015290519081900360640190fd5b6135186135116126b5565b3383613fef565b60075461352b903463ffffffff613ed316565b600755336135376126b5565b600160a060020a0316600080516020614561833981519152836040518082815260200191505060405180910390a35050565b600160a060020a03918216600090815260026020908152604080832093909416825291909152205490565b60008181526008602052604090206001810154600160a060020a031615156135bb5761108a565b6001810154600160a060020a0316331461360d576040805160e560020a62461bcd0281526020600482018190526024820152600080516020614541833981519152604482015290519081900360640190fd5b60078101805461010061ff0019909116811790915560068201546040805185815233602082018190526080820184905260a0928201838152600387018054600260018216159098026000190116969096049383018490527f5d095dcaf5e2fe5894fd51fdc2e637dd6095cb9b9b3c20d178cecc053a7a8c4e958895929490936004890193929091606083019060c0840190879080156136ed5780601f106136c2576101008083540402835291602001916136ed565b820191906000526020600020905b8154815290600101906020018083116136d057829003601f168201915b50508381038252855460026000196101006001841615020190911604808252602090910190869080156137615780601f1061373657610100808354040283529160200191613761565b820191906000526020600020905b81548152906001019060200180831161374457829003601f168201915b505097505050505050505060405180910390a15050565b600061378261449b565b60008381526008602090815260409182902082516101208101845281548152600180830154600160a060020a03908116838601526002808501549091168387015260038401805487516101009482161594909402600019011691909104601f8101869004860283018601909652858252919492936060860193919291908301828280156138505780601f1061382557610100808354040283529160200191613850565b820191906000526020600020905b81548152906001019060200180831161383357829003601f168201915b505050918352505060048201805460408051602060026001851615610100026000190190941693909304601f81018490048402820184019092528181529382019392918301828280156138e45780601f106138b9576101008083540402835291602001916138e4565b820191906000526020600020905b8154815290600101906020018083116138c757829003601f168201915b505050918352505060058201805460408051602060026001851615610100026000190190941693909304601f81018490048402820184019092528181529382019392918301828280156139785780601f1061394d57610100808354040283529160200191613978565b820191906000526020600020905b81548152906001019060200180831161395b57829003601f168201915b5050509183525050600682015460208083019190915260079092015460ff80821615156040840152610100909104161515606090910152810151909150600160a060020a031615156139cd5760009150611998565b60c0015192915050565b600080606080606060008060006139ec61449b565b60008a81526008602090815260409182902082516101208101845281548152600180830154600160a060020a03908116838601526002808501549091168387015260038401805487516101009482161594909402600019011691909104601f810186900486028301860190965285825291949293606086019391929190830182828015613aba5780601f10613a8f57610100808354040283529160200191613aba565b820191906000526020600020905b815481529060010190602001808311613a9d57829003601f168201915b505050918352505060048201805460408051602060026001851615610100026000190190941693909304601f8101849004840282018401909252818152938201939291830182828015613b4e5780601f10613b2357610100808354040283529160200191613b4e565b820191906000526020600020905b815481529060010190602001808311613b3157829003601f168201915b505050918352505060058201805460408051602060026001851615610100026000190190941693909304601f8101849004840282018401909252818152938201939291830182828015613be25780601f10613bb757610100808354040283529160200191613be2565b820191906000526020600020905b815481529060010190602001808311613bc557829003601f168201915b5050509183525050600682015460208083019190915260079092015460ff80821615156040840152610100909104161515606090910152810151909150600160a060020a03161515613c6e57604080516020818101835260008083528351808301855281815284519283019094528082529b508b9a509098509096509450879350839250829150613cac565b602081015160408201516060830151608084015160a085015160c086015160e0870151610100880151969f50949d50929b5090995097509550935091505b50919395975091939597565b60008181526008602052604090206001810154600160a060020a03161515613cdf5761108a565b6001810154600160a060020a03163314613d31576040805160e560020a62461bcd0281526020600482018190526024820152600080516020614541833981519152604482015290519081900360640190fd5b6002810154600160a060020a031615613d4e57613d4e8183613eec565b6000828152600860205260408120818155600181018054600160a060020a0319908116909155600282018054909116905590613d8d60038301826144e6565b613d9b6004830160006144e6565b613da96005830160006144e6565b5060006006820155600701805461ffff19169055604080513381526020810184905281517f3406221f53114f44c9a1bb93d08ee55735f39bf235a54741684a52501207bb54929181900390910190a15050565b613e046126c4565b1515613e0f57600080fd5b61274181614313565b6000613e226126c4565b1515613e2d57600080fd5b6007541515613e3b57612741565b50600780546000909155613e4d6126b5565b600160a060020a03166108fc829081150290604051600060405180830381858888f19350505050158015613e85573d6000803e3d6000fd5b507f891ae5db36adc1f5de7dc42f6ca52213e0a23b3fe35235094e12789e9917dd7a613eaf6126b5565b60408051600160a060020a039092168252602082018490528051918290030190a150565b600082820183811015613ee557600080fd5b9392505050565b60028201546000908190600160a060020a03161515613f0a57612d5a565b505060028201805460008381526009602052604081208054600160a060020a03198416909455819055600160a060020a039091169190811115613f7f57604051600160a060020a0383169082156108fc029083906000818181858888f19350505050158015613f7d573d6000803e3d6000fd5b505b600184015460408051858152600160a060020a039092166020830152338282015260608201839052517fae4600bc3786dafd4f3459692821fe209dcde1a5283d33f0675340813bc4ad489181900360800190a150505050565b60008083831115613fe857600080fd5b5050900390565b600160a060020a03831660009081526001602052604090205481111561401457600080fd5b600160a060020a038216151561402957600080fd5b600160a060020a038316600090815260016020526040902054614052908263ffffffff613fd816565b600160a060020a038085166000908152600160205260408082209390935590841681522054614087908263ffffffff613ed316565b600160a060020a03808416600081815260016020908152604091829020949094558051858152905191939287169260008051602061456183398151915292918290030190a3505050565b600160a060020a03821615156140e657600080fd5b6003546140f9908263ffffffff613ed316565b600355600160a060020a038216600090815260016020526040902054614125908263ffffffff613ed316565b600160a060020a03831660008181526001602090815260408083209490945583518581529351929391926000805160206145618339815191529281900390910190a35050565b61417c60048263ffffffff61438316565b604051600160a060020a038216907f6ae172837ea30b801fbfcdd4108aa1d5bf8ff775444fd70256b44e6bf3dfc3f690600090a250565b6141c460048263ffffffff6143d116565b604051600160a060020a038216907fe94479a9f7e1952cc78f2d6baab678adc1b772d936c6583def489e524cb6669290600090a250565b600160a060020a038216151561421057600080fd5b600160a060020a03821660009081526001602052604090205481111561423557600080fd5b600354614248908263ffffffff613fd816565b600355600160a060020a038216600090815260016020526040902054614274908263ffffffff613fd816565b600160a060020a038316600081815260016020908152604080832094909455835185815293519193600080516020614561833981519152929081900390910190a35050565b6000600160a060020a03821615156142d057600080fd5b50600160a060020a03166000908152602091909152604090205460ff1690565b6000808083116142ff57600080fd5b828481151561430a57fe5b04949350505050565b600160a060020a038116151561432857600080fd5b60008054604051600160a060020a03808516939216917f8be0079c531659141344cd1fd0a4f28419497f9722a3daafe3b4186f6b6457e091a360008054600160a060020a031916600160a060020a0392909216919091179055565b600160a060020a038116151561439857600080fd5b6143a282826142b9565b156143ac57600080fd5b600160a060020a0316600090815260209190915260409020805460ff19166001179055565b600160a060020a03811615156143e657600080fd5b6143f082826142b9565b15156143fb57600080fd5b600160a060020a0316600090815260209190915260409020805460ff19169055565b828054600181600116156101000203166002900490600052602060002090601f016020900481019282601f1061445e57805160ff191683800117855561448b565b8280016001018555821561448b579182015b8281111561448b578251825591602001919060010190614470565b50614497929150614526565b5090565b604080516101208101825260008082526020820181905291810182905260608082018190526080820181905260a082015260c0810182905260e0810182905261010081019190915290565b50805460018160011615610100020316600290046000825580601f1061450c5750612741565b601f01602090049060005260206000209081019061274191905b610fa991905b80821115614497576000815560010161452c5600416374696f6e20616c6c6f776564206f6e6c7920746f20746865206f776e6572ddf252ad1be2c89b69c2b068fc378daa952ba7f163c4a11628f55a4df523b3efa165627a7a7230582088d43f3b7d2a9bce36f7da3d6bc2badcbe2979fedb44cf4632a6cc8dfd0c55410029",
  "source": "pragma solidity ^0.4.24;\n\nimport \"./AssetToken.sol\";\n\ncontract AssetContract is AssetToken {\n\n    //\n    // OpenZeppelin specifics\n    //\n    using SafeMath for uint256;\n\n    //\n    // state variables\n    //\n\n    // description of an asset item\n    struct AssetItem {\n        uint256 id;                // id in the list\n        address owner;          // asset's owner\n        address candidate;      // candidate owner\n        string name;\n        string description;\n        string hashKey;         // hashkey of the asset stored in IPFS\n        uint256 price;          // price in Wei\n        bool encrypted;         // true if the asset has been encrypted\n        bool marketplace;         // true if the asset can be sold in the marketplace\n    }\n\n    // List of asset\n    mapping(uint256 => AssetItem) public assets;\n\n    // Balance of deposits\n    mapping(uint256 => uint256) public depositsBalance;\n\n    // number of assets\n    uint256 assetCounter;\n\n\n    //\n    // Events\n    //\n    event NewAsset(uint256 _assetId, address _owner, string _name, string _description, string _hashKey, uint256 _price);\n    event UpdateAsset(uint256 _assetId, address _owner, string _name, string _description, string _hashKey, uint256 _price);\n    event AssetRemoved(address _owner, uint _assetId);\n    event SetMarketplace(uint256 _assetId, address _owner, string _name, string _description, uint256 _price);\n    event UnsetMarketplace(uint256 _assetId, address _owner, address _candidate, string _name, string _description, uint256 _price);\n    event Deposit(uint256 _assetId, address _owner, address _candidate, uint256 _price);\n    event Purchase(uint256 _assetId, address _formerOwner, address _newOwner, uint256 _price);\n    event Refund(uint256 _assetId, address _owner, address _candidate, uint256 _price);\n\n    //\n    // Implementation\n    //\n\n    constructor(uint256 _rate, uint256 _tokens, uint _serviceFee) public {\n        require(_rate > 0);\n        require(_tokens >= 100);\n\n        // set initial rate\n        rate = _rate;\n\n        // set the service fee in token to use the service\n        serviceFee = _serviceFee;\n\n        // mint initial tokens\n        mint(msg.sender, _tokens);\n    }\n\n    // add a new asset\n    function addAsset(string memory _name, string memory _description, string memory _hashKey, uint256 _price, bool _encrypted) public {\n        // a name is required\n        bytes memory name = bytes(_name);\n        require(name.length > 0, \"A name is required\");\n\n        // a description is required\n        bytes memory description = bytes(_description);\n        require(description.length > 0, \"A description is required\");\n\n        // an IPFS hash key is required\n        bytes memory hashKey = bytes(_hashKey);\n        require(hashKey.length > 0, \"A hash key from IPFS is required\");\n\n        // pay the service service\n        _burn(msg.sender, serviceFee);\n\n        // new asset\n        assetCounter = assetCounter.add(1);\n\n        // store the new asset\n        assets[assetCounter] = AssetItem(assetCounter, msg.sender, 0x0, _name, _description, _hashKey, _price, _encrypted, false);\n\n        emit NewAsset(assetCounter, msg.sender, _name, _description, _hashKey, _price);\n    }\n\n    // update an existing asset\n    // only possible for the asset's owner\n    function updateAsset(uint256 _assetId, string memory _name, string memory _description, string memory _hashKey, uint256 _price, bool _encrypted) public {\n        AssetItem storage asset = assets[_assetId];\n\n        // is this asset exists?\n        if (asset.owner == 0x0) {\n            return;\n        }\n\n        // only the asset's owner is allowed to update this asset\n        require(msg.sender == asset.owner, \"Action allowed only to the owner\");\n\n        // a name is required\n        bytes memory name = bytes(_name);\n        require(name.length > 0, \"A name is required\");\n\n        // a description is required\n        bytes memory description = bytes(_description);\n        require(description.length > 0, \"A description is required\");\n\n        // an IPFS hash key is required\n        bytes memory hashKey = bytes(_hashKey);\n        require(hashKey.length > 0, \"A hash key from IPFS is required\");\n\n        // update the asset\n        asset.name = _name;\n        asset.description = _description;\n        asset.hashKey = _hashKey;\n        asset.price = _price;\n        asset.encrypted = _encrypted;\n\n        emit UpdateAsset(_assetId, msg.sender, _name, _description, _hashKey, _price);\n    }\n\n    // make the asset available in the marketplace\n    // only possible for the asset's owner\n    function setMarketplace(uint256 _assetId) public {\n        AssetItem storage asset = assets[_assetId];\n\n        // is this asset exists?\n        if (asset.owner == 0x0) {\n            return;\n        }\n\n        // only the asset's owner is allowed to update this asset\n        require(msg.sender == asset.owner, \"Action allowed only to the owner\");\n\n        // update the availability of the asset in the marketplace\n        asset.marketplace = true;\n\n        emit SetMarketplace(_assetId, msg.sender, asset.name, asset.description, asset.price);\n    }\n\n    // remove the asset from the marketplace and refund the candidate buyer\n    // only possible for the asset's owner\n    function unsetMarketplace(uint256 _assetId) public {\n        AssetItem storage asset = assets[_assetId];\n\n        // is this asset exists?\n        if (asset.owner == 0x0) {\n            return;\n        }\n\n        // only the asset's owner is allowed to update this asset\n        require(msg.sender == asset.owner, \"Action allowed only to the owner\");\n\n        // update the availability of the asset in the marketplace\n        asset.marketplace = false;\n\n        if (asset.candidate != 0x0) {\n            // we need to refund by sending back the deposit to the candidate\n            _refund(asset, _assetId);\n        } else {\n            emit UnsetMarketplace(_assetId, msg.sender, asset.candidate, asset.name, asset.description, asset.price);\n\n        }\n    }\n\n    // a candidate buyer deposit the price for the purchase\n    // the amount is secured in the contract's balance until the amount is released (sale concluded or refunded)\n    function deposit(uint256 _assetId) public payable {\n        AssetItem storage asset = assets[_assetId];\n\n        // is this asset exists?\n        if (asset.owner == 0x0) {\n            return;\n        }\n\n        // ensure that the asset is not already reserved\n        require(asset.candidate == 0x0, \"Asset already reserved to another candidate\");\n\n        // ensure that the asset is not already reserved to another candidate buyer\n        require(msg.sender != asset.owner, \"Deposit not allowed for the owner of the asset\");\n\n        // the value to deposit must be equal to price of the asset\n        require(msg.value == asset.price, \"Price are not the same as expected\");\n\n        // keep track of the deposit\n        depositsBalance[_assetId] = msg.value;\n\n        // store the address of the purchaser\n        asset.candidate = msg.sender;\n\n        emit Deposit(_assetId, asset.owner, msg.sender, asset.price);\n    }\n\n    // let the candidate buyer to become the new owner of the asset by executing the purchase\n    function purchaseAsset(uint256 _assetId) public {\n        AssetItem storage asset = assets[_assetId];\n\n        // is this asset exists?\n        if (asset.owner == 0x0) {\n            return;\n        }\n\n        // ensure that the buyer is the identified candidate\n        require(msg.sender == asset.candidate, \"Asset already reserved to another candidate\");\n\n        // keep the former owner and the price paid by the purchase\n        address _owner = asset.owner;\n        uint256 _price = depositsBalance[_assetId];\n\n        // move the asset to the buyer and reset its state\n        asset.owner = msg.sender;\n        asset.candidate = 0x0;\n        asset.price = 0;\n        asset.marketplace = false;\n        delete depositsBalance[_assetId];\n\n        if (_price != 0) {\n            // transfer the amount to the former owner\n            _owner.transfer(_price);\n        }\n\n        emit Purchase(_assetId, asset.owner, msg.sender, _price);\n    }\n\n    // let the candidate buyer or the asset owner to cancel the purchase and refunding the candidate\n    function refundPurchase(uint256 _assetId) public {\n        AssetItem storage asset = assets[_assetId];\n\n        // is this asset exists?\n        if (asset.owner == 0x0) {\n            return;\n        }\n\n        // the sender must be the owner or the candidate\n        if ((msg.sender == asset.owner) || (msg.sender == asset.candidate)) {\n            // we need to refund by sending back the deposit to the candidate\n            _refund(asset, _assetId);\n        } else {\n            require(false, \"Refund not authorised for this account\");\n        }\n    }\n\n    // remove the asset and refund the potiential candidate\n    function removeAsset(uint256 _assetId) public {\n        AssetItem storage asset = assets[_assetId];\n\n        // is this asset exists?\n        if (asset.owner == 0x0) {\n            return;\n        }\n\n        // only the asset's owner is allowed to remove this asset\n        require(msg.sender == asset.owner, \"Action allowed only to the owner\");\n\n        if (asset.candidate != 0x0) {\n            // we need to refund by sending back the deposit to the candidate\n            _refund(asset, _assetId);\n        }\n\n        // remove the asset\n        delete assets[_assetId];\n\n        emit AssetRemoved(msg.sender, _assetId);\n    }\n\n    // return asset IDs owned by the function's caller\n    function getMyAssets() view public returns (uint[] memory) {\n        if (assetCounter == 0) {\n            return new uint[](0);\n        }\n\n        // prepare output array\n        uint256[] memory assetIDs = new uint[](assetCounter);\n\n        // iterate over assets\n        uint256 numberOfAssets = 0;\n        for (uint i = 1; i <= assetCounter; i++) {\n            // keep the ID of the asset owned by the sender\n            if (assets[i].owner == msg.sender) {\n                assetIDs[numberOfAssets] = assets[i].id;\n\n                numberOfAssets = numberOfAssets.add(1);\n            }\n        }\n\n        // copy the asset ID array into a smaller array\n        uint256[] memory myAsset = new uint[](numberOfAssets);\n        for (uint j = 0; j < numberOfAssets; j++) {\n            myAsset[j] = assetIDs[j];\n        }\n\n        return myAsset;\n    }\n\n    // execute the refund\n    function _refund(AssetItem storage _asset, uint256 _assetId) internal {\n\n        if (_asset.candidate == 0x0) {\n            return;\n        }\n\n        // keep the former owner and the price paid by the purchase\n        address _candidate = _asset.candidate;\n        uint256 _price = depositsBalance[_assetId];\n\n        // move the asset to the buyer and reset its state\n        _asset.candidate = 0x0;\n        delete depositsBalance[_assetId];\n\n        if (_price > 0) {\n            // transfer back the amount to the candidate\n            _candidate.transfer(_price);\n        }\n\n        emit Refund(_assetId, _asset.owner, msg.sender, _price);\n    }\n\n    // return asset IDs published in the marketplace\n    function getMarketplace() view public returns (uint[] memory) {\n        if (assetCounter == 0) {\n            return new uint[](0);\n        }\n\n        // prepare output array\n        uint256[] memory assetIDs = new uint[](assetCounter);\n\n        // iterate over assets\n        uint256 numberOfAssets = 0;\n        for (uint i = 1; i <= assetCounter; i++) {\n            // keep the ID of the asset published in the marketplace\n            if (assets[i].marketplace) {\n                assetIDs[numberOfAssets] = assets[i].id;\n\n                numberOfAssets = numberOfAssets.add(1);\n            }\n        }\n\n        // copy the asset ID array into a smaller array\n        uint256[] memory myAsset = new uint[](numberOfAssets);\n        for (uint j = 0; j < numberOfAssets; j++) {\n            myAsset[j] = assetIDs[j];\n        }\n\n        return myAsset;\n    }\n\n    // Retrieve an asset based on its ID\n    function getAsset(uint _assetId) view public returns (\n        address _owner,\n        address _candidate,\n        string memory _name,\n        string memory _description,\n        string memory _hashKey,\n        uint256 _price,\n        bool _encrypted,\n        bool _marketplace) {\n\n        AssetItem memory asset = assets[_assetId];\n\n        // ensure that we have an asset to fetch\n        if (asset.owner == 0x0) {\n            return (0x0, 0x0, \"\", \"\", \"\", 0, false, false);\n        }\n\n        return (\n            asset.owner,\n            asset.candidate,\n            asset.name,\n            asset.description,\n            asset.hashKey,\n            asset.price,\n            asset.encrypted,\n            asset.marketplace);\n    }\n\n\n\n    function getOwner(uint _assetId) view public returns (address) {\n        AssetItem memory asset = assets[_assetId];\n\n        // ensure that we have an asset to fetch\n        if (asset.owner == 0x0) {\n            return (0x0);\n        }\n\n\n        return asset.owner;\n    }\n\n    function getCandidate(uint _assetId) view public returns (address) {\n        AssetItem memory asset = assets[_assetId];\n\n        // ensure that we have an asset to fetch\n        if (asset.owner == 0x0) {\n            return (0x0);\n        }\n\n\n        return asset.candidate;\n    }\n\n\n    function getName(uint _assetId) view public returns (string memory) {\n        AssetItem memory asset = assets[_assetId];\n\n        // ensure that we have an asset to fetch\n        if (asset.owner == 0x0) {\n            return (\"\");\n        }\n\n\n        return asset.name;\n    }\n\n    function getDescription(uint _assetId) view public returns (string memory) {\n        AssetItem memory asset = assets[_assetId];\n\n        // ensure that we have an asset to fetch\n        if (asset.owner == 0x0) {\n            return (\"\");\n        }\n\n\n        return asset.description;\n    }\n\n    function getHashKey(uint _assetId) view public returns (string memory _hashKey, bool _encrypted) {\n        AssetItem memory asset = assets[_assetId];\n\n        // ensure that we have an asset to fetch\n        if (asset.owner == 0x0) {\n            return (\"\", false);\n        }\n\n\n        return (asset.hashKey, asset.encrypted);\n    }\n\n    function getPrice(uint _assetId) view public returns (uint256) {\n        AssetItem memory asset = assets[_assetId];\n\n        // ensure that we have an asset to fetch\n        if (asset.owner == 0x0) {\n            return (0);\n        }\n\n\n        return asset.price;\n    }\n\n    function isMarketplace(uint _assetId) view public returns (bool) {\n        AssetItem memory asset = assets[_assetId];\n\n        // ensure that we have an asset to fetch\n        if (asset.owner == 0x0) {\n            return (false);\n        }\n\n\n        return asset.marketplace;\n    }\n\n    function isContractOwner() view public returns (bool) {\n        // ensure that we have an asset to fetch\n        if (owner() == msg.sender) {\n            return (true);\n        }\n\n        return false;\n    }\n}",
  "sourcePath": "/Users/eloudsa/ChainSkills/projects/depositum/contracts/AssetContract.sol",
  "compiler": {
    "name": "solc",
    "version": "0.4.25+commit.59dbf8f1.Emscripten.clang"
  },
  "schemaVersion": "3.0.0-beta.2",
  "updatedAt": "2018-11-27T07:50:37.325Z",
  "devdoc": {
    "methods": {
      "allowance(address,address)": {
        "details": "Function to check the amount of tokens that an owner allowed to a spender.",
        "params": {
          "owner": "address The address which owns the funds.",
          "spender": "address The address which will spend the funds."
        },
        "return": "A uint256 specifying the amount of tokens still available for the spender."
      },
      "approve(address,uint256)": {
        "details": "Approve the passed address to spend the specified amount of tokens on behalf of msg.sender. Beware that changing an allowance with this method brings the risk that someone may use both the old and the new allowance by unfortunate transaction ordering. One possible solution to mitigate this race condition is to first reduce the spender's allowance to 0 and set the desired value afterwards: https://github.com/ethereum/EIPs/issues/20#issuecomment-263524729",
        "params": {
          "spender": "The address which will spend the funds.",
          "value": "The amount of tokens to be spent."
        }
      },
      "balanceOf(address)": {
        "details": "Gets the balance of the specified address.",
        "params": {
          "owner": "The address to query the balance of."
        },
        "return": "An uint256 representing the amount owned by the passed address."
      },
      "decreaseAllowance(address,uint256)": {
        "details": "Decrease the amount of tokens that an owner allowed to a spender. approve should be called when allowed_[_spender] == 0. To decrement allowed value is better to use this function to avoid 2 calls (and wait until the first transaction is mined) From MonolithDAO Token.sol",
        "params": {
          "spender": "The address which will spend the funds.",
          "subtractedValue": "The amount of tokens to decrease the allowance by."
        }
      },
      "increaseAllowance(address,uint256)": {
        "details": "Increase the amount of tokens that an owner allowed to a spender. approve should be called when allowed_[_spender] == 0. To increment allowed value is better to use this function to avoid 2 calls (and wait until the first transaction is mined) From MonolithDAO Token.sol",
        "params": {
          "addedValue": "The amount of tokens to increase the allowance by.",
          "spender": "The address which will spend the funds."
        }
      },
      "isOwner()": {
        "return": "true if `msg.sender` is the owner of the contract."
      },
      "mint(address,uint256)": {
        "details": "Function to mint tokens",
        "params": {
          "to": "The address that will receive the minted tokens.",
          "value": "The amount of tokens to mint."
        },
        "return": "A boolean that indicates if the operation was successful."
      },
      "owner()": {
        "return": "the address of the owner."
      },
      "renounceOwnership()": {
        "details": "Allows the current owner to relinquish control of the contract."
      },
      "totalSupply()": {
        "details": "Total number of tokens in existence"
      },
      "transfer(address,uint256)": {
        "details": "Transfer token for a specified address",
        "params": {
          "to": "The address to transfer to.",
          "value": "The amount to be transferred."
        }
      },
      "transferFrom(address,address,uint256)": {
        "details": "Transfer tokens from one address to another",
        "params": {
          "from": "address The address which you want to send tokens from",
          "to": "address The address which you want to transfer to",
          "value": "uint256 the amount of tokens to be transferred"
        }
      },
      "transferOwnership(address)": {
        "details": "Allows the current owner to transfer control of the contract to a newOwner.",
        "params": {
          "newOwner": "The address to transfer ownership to."
        }
      }
    }
  },
  "userdoc": {
    "methods": {
      "renounceOwnership()": {
        "notice": "Renouncing to ownership will leave the contract without an owner. It will not be possible to call the functions with the `onlyOwner` modifier anymore."
      }
    }
  }
}