{
  "contractName": "AssetContract",
  "abi": [
    {
      "constant": false,
      "inputs": [],
      "name": "renounceOwnership",
      "outputs": [],
      "payable": false,
      "stateMutability": "nonpayable",
      "type": "function",
      "signature": "0x715018a6"
    },
    {
      "constant": true,
      "inputs": [],
      "name": "owner",
      "outputs": [
        {
          "name": "",
          "type": "address"
        }
      ],
      "payable": false,
      "stateMutability": "view",
      "type": "function",
      "signature": "0x8da5cb5b"
    },
    {
      "constant": true,
      "inputs": [],
      "name": "isOwner",
      "outputs": [
        {
          "name": "",
          "type": "bool"
        }
      ],
      "payable": false,
      "stateMutability": "view",
      "type": "function",
      "signature": "0x8f32d59b"
    },
    {
      "constant": true,
      "inputs": [
        {
          "name": "",
          "type": "uint256"
        }
      ],
      "name": "depositsBalance",
      "outputs": [
        {
          "name": "",
          "type": "uint256"
        }
      ],
      "payable": false,
      "stateMutability": "view",
      "type": "function",
      "signature": "0x981b5804"
    },
    {
      "constant": true,
      "inputs": [
        {
          "name": "",
          "type": "uint256"
        }
      ],
      "name": "assets",
      "outputs": [
        {
          "name": "id",
          "type": "uint256"
        },
        {
          "name": "owner",
          "type": "address"
        },
        {
          "name": "candidate",
          "type": "address"
        },
        {
          "name": "name",
          "type": "string"
        },
        {
          "name": "description",
          "type": "string"
        },
        {
          "name": "hashKey",
          "type": "string"
        },
        {
          "name": "price",
          "type": "uint256"
        },
        {
          "name": "available",
          "type": "bool"
        }
      ],
      "payable": false,
      "stateMutability": "view",
      "type": "function",
      "signature": "0xcf35bdd0"
    },
    {
      "constant": false,
      "inputs": [
        {
          "name": "newOwner",
          "type": "address"
        }
      ],
      "name": "transferOwnership",
      "outputs": [],
      "payable": false,
      "stateMutability": "nonpayable",
      "type": "function",
      "signature": "0xf2fde38b"
    },
    {
      "anonymous": false,
      "inputs": [
        {
          "indexed": false,
          "name": "_assetId",
          "type": "uint256"
        },
        {
          "indexed": false,
          "name": "_owner",
          "type": "address"
        },
        {
          "indexed": false,
          "name": "_name",
          "type": "string"
        },
        {
          "indexed": false,
          "name": "_description",
          "type": "string"
        },
        {
          "indexed": false,
          "name": "_hashKey",
          "type": "string"
        },
        {
          "indexed": false,
          "name": "_price",
          "type": "uint256"
        }
      ],
      "name": "NewAsset",
      "type": "event",
      "signature": "0x4efe84f42f5dc8e26465778176a705ad3410cf364c7671cb60cfc8e1f5fe7f3a"
    },
    {
      "anonymous": false,
      "inputs": [
        {
          "indexed": false,
          "name": "_assetId",
          "type": "uint256"
        },
        {
          "indexed": false,
          "name": "_owner",
          "type": "address"
        },
        {
          "indexed": false,
          "name": "_name",
          "type": "string"
        },
        {
          "indexed": false,
          "name": "_description",
          "type": "string"
        },
        {
          "indexed": false,
          "name": "_hashKey",
          "type": "string"
        },
        {
          "indexed": false,
          "name": "_price",
          "type": "uint256"
        }
      ],
      "name": "UpdateAsset",
      "type": "event",
      "signature": "0x5b06687e2faf130980555e1015a965e09459b7d538a348953f70a14109db3a42"
    },
    {
      "anonymous": false,
      "inputs": [
        {
          "indexed": false,
          "name": "_owner",
          "type": "address"
        },
        {
          "indexed": false,
          "name": "_assetId",
          "type": "uint256"
        }
      ],
      "name": "AssetRemoved",
      "type": "event",
      "signature": "0x3406221f53114f44c9a1bb93d08ee55735f39bf235a54741684a52501207bb54"
    },
    {
      "anonymous": false,
      "inputs": [
        {
          "indexed": false,
          "name": "_assetId",
          "type": "uint256"
        },
        {
          "indexed": false,
          "name": "_owner",
          "type": "address"
        },
        {
          "indexed": false,
          "name": "_name",
          "type": "string"
        },
        {
          "indexed": false,
          "name": "_description",
          "type": "string"
        },
        {
          "indexed": false,
          "name": "_price",
          "type": "uint256"
        }
      ],
      "name": "SetMarketplace",
      "type": "event",
      "signature": "0x5d095dcaf5e2fe5894fd51fdc2e637dd6095cb9b9b3c20d178cecc053a7a8c4e"
    },
    {
      "anonymous": false,
      "inputs": [
        {
          "indexed": false,
          "name": "_assetId",
          "type": "uint256"
        },
        {
          "indexed": false,
          "name": "_owner",
          "type": "address"
        },
        {
          "indexed": false,
          "name": "_candidate",
          "type": "address"
        },
        {
          "indexed": false,
          "name": "_name",
          "type": "string"
        },
        {
          "indexed": false,
          "name": "_description",
          "type": "string"
        },
        {
          "indexed": false,
          "name": "_price",
          "type": "uint256"
        }
      ],
      "name": "UnsetMarketplace",
      "type": "event",
      "signature": "0x93759953971d9dce99ec5e86ee853a8b7d7b7fdbc7c34ead5e76872c4d3eaf20"
    },
    {
      "anonymous": false,
      "inputs": [
        {
          "indexed": false,
          "name": "_assetId",
          "type": "uint256"
        },
        {
          "indexed": false,
          "name": "_owner",
          "type": "address"
        },
        {
          "indexed": false,
          "name": "_candidate",
          "type": "address"
        },
        {
          "indexed": false,
          "name": "_price",
          "type": "uint256"
        }
      ],
      "name": "Deposit",
      "type": "event",
      "signature": "0x2c0f148b435140de488c1b34647f1511c646f7077e87007bacf22ef9977a16d8"
    },
    {
      "anonymous": false,
      "inputs": [
        {
          "indexed": false,
          "name": "_assetId",
          "type": "uint256"
        },
        {
          "indexed": false,
          "name": "_formerOwner",
          "type": "address"
        },
        {
          "indexed": false,
          "name": "_newOwner",
          "type": "address"
        },
        {
          "indexed": false,
          "name": "_price",
          "type": "uint256"
        }
      ],
      "name": "Purchase",
      "type": "event",
      "signature": "0xe3cf0e0098f447c6d9bc08ffbbf3f193d35c51b57d7de6bb9ccb79f4995ccf71"
    },
    {
      "anonymous": false,
      "inputs": [
        {
          "indexed": false,
          "name": "_assetId",
          "type": "uint256"
        },
        {
          "indexed": false,
          "name": "_owner",
          "type": "address"
        },
        {
          "indexed": false,
          "name": "_candidate",
          "type": "address"
        },
        {
          "indexed": false,
          "name": "_price",
          "type": "uint256"
        }
      ],
      "name": "Refund",
      "type": "event",
      "signature": "0xae4600bc3786dafd4f3459692821fe209dcde1a5283d33f0675340813bc4ad48"
    },
    {
      "anonymous": false,
      "inputs": [
        {
          "indexed": true,
          "name": "previousOwner",
          "type": "address"
        },
        {
          "indexed": true,
          "name": "newOwner",
          "type": "address"
        }
      ],
      "name": "OwnershipTransferred",
      "type": "event",
      "signature": "0x8be0079c531659141344cd1fd0a4f28419497f9722a3daafe3b4186f6b6457e0"
    },
    {
      "constant": false,
      "inputs": [
        {
          "name": "_name",
          "type": "string"
        },
        {
          "name": "_description",
          "type": "string"
        },
        {
          "name": "_hashKey",
          "type": "string"
        },
        {
          "name": "_price",
          "type": "uint256"
        }
      ],
      "name": "addAsset",
      "outputs": [],
      "payable": false,
      "stateMutability": "nonpayable",
      "type": "function",
      "signature": "0x82e3759d"
    },
    {
      "constant": false,
      "inputs": [
        {
          "name": "_assetId",
          "type": "uint256"
        },
        {
          "name": "_name",
          "type": "string"
        },
        {
          "name": "_description",
          "type": "string"
        },
        {
          "name": "_hashKey",
          "type": "string"
        },
        {
          "name": "_price",
          "type": "uint256"
        }
      ],
      "name": "updateAsset",
      "outputs": [],
      "payable": false,
      "stateMutability": "nonpayable",
      "type": "function",
      "signature": "0xc687857c"
    },
    {
      "constant": false,
      "inputs": [
        {
          "name": "_assetId",
          "type": "uint256"
        }
      ],
      "name": "setMarketplace",
      "outputs": [],
      "payable": false,
      "stateMutability": "nonpayable",
      "type": "function",
      "signature": "0xe70bdacf"
    },
    {
      "constant": false,
      "inputs": [
        {
          "name": "_assetId",
          "type": "uint256"
        }
      ],
      "name": "unsetMarketplace",
      "outputs": [],
      "payable": false,
      "stateMutability": "nonpayable",
      "type": "function",
      "signature": "0x229c11a6"
    },
    {
      "constant": false,
      "inputs": [
        {
          "name": "_assetId",
          "type": "uint256"
        }
      ],
      "name": "deposit",
      "outputs": [],
      "payable": true,
      "stateMutability": "payable",
      "type": "function",
      "signature": "0xb6b55f25"
    },
    {
      "constant": false,
      "inputs": [
        {
          "name": "_assetId",
          "type": "uint256"
        }
      ],
      "name": "purchaseAsset",
      "outputs": [],
      "payable": true,
      "stateMutability": "payable",
      "type": "function",
      "signature": "0xa457e1c0"
    },
    {
      "constant": false,
      "inputs": [
        {
          "name": "_assetId",
          "type": "uint256"
        }
      ],
      "name": "refundPurchase",
      "outputs": [],
      "payable": true,
      "stateMutability": "payable",
      "type": "function",
      "signature": "0x1c77b27a"
    },
    {
      "constant": false,
      "inputs": [
        {
          "name": "_assetId",
          "type": "uint256"
        }
      ],
      "name": "removeAsset",
      "outputs": [],
      "payable": false,
      "stateMutability": "nonpayable",
      "type": "function",
      "signature": "0xf14f58f1"
    },
    {
      "constant": true,
      "inputs": [],
      "name": "getMyAssets",
      "outputs": [
        {
          "name": "",
          "type": "uint256[]"
        }
      ],
      "payable": false,
      "stateMutability": "view",
      "type": "function",
      "signature": "0x47002d1d"
    },
    {
      "constant": true,
      "inputs": [],
      "name": "getMarketplace",
      "outputs": [
        {
          "name": "",
          "type": "uint256[]"
        }
      ],
      "payable": false,
      "stateMutability": "view",
      "type": "function",
      "signature": "0x0d21bcd5"
    },
    {
      "constant": true,
      "inputs": [
        {
          "name": "_assetId",
          "type": "uint256"
        }
      ],
      "name": "getAsset",
      "outputs": [
        {
          "name": "_owner",
          "type": "address"
        },
        {
          "name": "_candidate",
          "type": "address"
        },
        {
          "name": "_name",
          "type": "string"
        },
        {
          "name": "_description",
          "type": "string"
        },
        {
          "name": "_hashKey",
          "type": "string"
        },
        {
          "name": "_price",
          "type": "uint256"
        },
        {
          "name": "_available",
          "type": "bool"
        }
      ],
      "payable": false,
      "stateMutability": "view",
      "type": "function",
      "signature": "0xeac8f5b8"
    },
    {
      "constant": true,
      "inputs": [
        {
          "name": "_assetId",
          "type": "uint256"
        }
      ],
      "name": "getOwner",
      "outputs": [
        {
          "name": "",
          "type": "address"
        }
      ],
      "payable": false,
      "stateMutability": "view",
      "type": "function",
      "signature": "0xc41a360a"
    },
    {
      "constant": true,
      "inputs": [
        {
          "name": "_assetId",
          "type": "uint256"
        }
      ],
      "name": "getCandidate",
      "outputs": [
        {
          "name": "",
          "type": "address"
        }
      ],
      "payable": false,
      "stateMutability": "view",
      "type": "function",
      "signature": "0x35b8e820"
    },
    {
      "constant": true,
      "inputs": [
        {
          "name": "_assetId",
          "type": "uint256"
        }
      ],
      "name": "getName",
      "outputs": [
        {
          "name": "",
          "type": "string"
        }
      ],
      "payable": false,
      "stateMutability": "view",
      "type": "function",
      "signature": "0x6b8ff574"
    },
    {
      "constant": true,
      "inputs": [
        {
          "name": "_assetId",
          "type": "uint256"
        }
      ],
      "name": "getDescription",
      "outputs": [
        {
          "name": "",
          "type": "string"
        }
      ],
      "payable": false,
      "stateMutability": "view",
      "type": "function",
      "signature": "0x4925ec55"
    },
    {
      "constant": true,
      "inputs": [
        {
          "name": "_assetId",
          "type": "uint256"
        }
      ],
      "name": "getHashKey",
      "outputs": [
        {
          "name": "",
          "type": "string"
        }
      ],
      "payable": false,
      "stateMutability": "view",
      "type": "function",
      "signature": "0x6ce9eb64"
    },
    {
      "constant": true,
      "inputs": [
        {
          "name": "_assetId",
          "type": "uint256"
        }
      ],
      "name": "getPrice",
      "outputs": [
        {
          "name": "",
          "type": "uint256"
        }
      ],
      "payable": false,
      "stateMutability": "view",
      "type": "function",
      "signature": "0xe7572230"
    },
    {
      "constant": true,
      "inputs": [
        {
          "name": "_assetId",
          "type": "uint256"
        }
      ],
      "name": "getAvailability",
      "outputs": [
        {
          "name": "",
          "type": "bool"
        }
      ],
      "payable": false,
      "stateMutability": "view",
      "type": "function",
      "signature": "0xcd6a8eca"
    }
  ],
  "bytecode": "0x6080604081905260008054600160a060020a0319163317808255600160a060020a0316917f8be0079c531659141344cd1fd0a4f28419497f9722a3daafe3b4186f6b6457e0908290a36134d1806100576000396000f30060806040526004361061013d5763ffffffff7c01000000000000000000000000000000000000000000000000000000006000350416630d21bcd581146101425780631c77b27a146101a7578063229c11a6146101b457806335b8e820146101cc57806347002d1d146102005780634925ec55146102155780636b8ff574146102a25780636ce9eb64146102ba578063715018a6146102d257806382e3759d146102e75780638da5cb5b146103be5780638f32d59b146103d3578063981b5804146103fc578063a457e1c014610426578063b6b55f2514610431578063c41a360a1461043c578063c687857c14610454578063cd6a8eca14610530578063cf35bdd014610548578063e70bdacf146106ef578063e757223014610707578063eac8f5b81461071f578063f14f58f1146108bf578063f2fde38b146108d7575b600080fd5b34801561014e57600080fd5b506101576108f8565b60408051602080825283518183015283519192839290830191858101910280838360005b8381101561019357818101518382015260200161017b565b505050509050019250505060405180910390f35b6101b2600435610a46565b005b3480156101c057600080fd5b506101b2600435610bd3565b3480156101d857600080fd5b506101e4600435610dc9565b60408051600160a060020a039092168252519081900360200190f35b34801561020c57600080fd5b50610157611015565b34801561022157600080fd5b5061022d60043561115c565b6040805160208082528351818301528351919283929083019185019080838360005b8381101561026757818101518382015260200161024f565b50505050905090810190601f1680156102945780820380516001836020036101000a031916815260200191505b509250505060405180910390f35b3480156102ae57600080fd5b5061022d6004356113b1565b3480156102c657600080fd5b5061022d600435611606565b3480156102de57600080fd5b506101b261185b565b3480156102f357600080fd5b506040805160206004803580820135601f81018490048402850184019095528484526101b294369492936024939284019190819084018382808284375050604080516020601f89358b018035918201839004830284018301909452808352979a99988101979196509182019450925082915084018382808284375050604080516020601f89358b018035918201839004830284018301909452808352979a99988101979196509182019450925082915084018382808284375094975050933594506118b89350505050565b3480156103ca57600080fd5b506101e4611c88565b3480156103df57600080fd5b506103e8611c98565b604080519115158252519081900360200190f35b34801561040857600080fd5b50610414600435611ca9565b60408051918252519081900360200190f35b6101b2600435611cbb565b6101b2600435611e51565b34801561044857600080fd5b506101e460043561209b565b34801561046057600080fd5b5060408051602060046024803582810135601f81018590048502860185019096528585526101b295833595369560449491939091019190819084018382808284375050604080516020601f89358b018035918201839004830284018301909452808352979a99988101979196509182019450925082915084018382808284375050604080516020601f89358b018035918201839004830284018301909452808352979a99988101979196509182019450925082915084018382808284375094975050933594506122e39350505050565b34801561053c57600080fd5b506103e8600435612661565b34801561055457600080fd5b506105606004356128a9565b6040518089815260200188600160a060020a0316600160a060020a0316815260200187600160a060020a0316600160a060020a0316815260200180602001806020018060200186815260200185151515158152602001848103845289818151815260200191508051906020019080838360005b838110156105eb5781810151838201526020016105d3565b50505050905090810190601f1680156106185780820380516001836020036101000a031916815260200191505b5084810383528851815288516020918201918a019080838360005b8381101561064b578181015183820152602001610633565b50505050905090810190601f1680156106785780820380516001836020036101000a031916815260200191505b50848103825287518152875160209182019189019080838360005b838110156106ab578181015183820152602001610693565b50505050905090810190601f1680156106d85780820380516001836020036101000a031916815260200191505b509b50505050505050505050505060405180910390f35b3480156106fb57600080fd5b506101b2600435612a98565b34801561071357600080fd5b50610414600435612c7e565b34801561072b57600080fd5b50610737600435612ec6565b6040518088600160a060020a0316600160a060020a0316815260200187600160a060020a0316600160a060020a0316815260200180602001806020018060200186815260200185151515158152602001848103845289818151815260200191508051906020019080838360005b838110156107bc5781810151838201526020016107a4565b50505050905090810190601f1680156107e95780820380516001836020036101000a031916815260200191505b5084810383528851815288516020918201918a019080838360005b8381101561081c578181015183820152602001610804565b50505050905090810190601f1680156108495780820380516001836020036101000a031916815260200191505b50848103825287518152875160209182019189019080838360005b8381101561087c578181015183820152602001610864565b50505050905090810190601f1680156108a95780820380516001836020036101000a031916815260200191505b509a505050505050505050505060405180910390f35b3480156108cb57600080fd5b506101b2600435613182565b3480156108e357600080fd5b506101b2600160a060020a03600435166132ab565b60608060008060606000600354600014156109275760408051600080825260208201909252905b509550610a3e565b600354604051908082528060200260200182016040528015610953578160200160208202803883390190505b50945060009350600192505b60035483116109c85760008381526001602052604090206007015460ff16156109bd57600083815260016020526040902054855186908690811061099f57fe5b602090810290910101526109ba84600163ffffffff6132ca16565b93505b60019092019161095f565b836040519080825280602002602001820160405280156109f2578160200160208202803883390190505b509150600090505b83811015610a3a578481815181101515610a1057fe5b906020019060200201518282815181101515610a2857fe5b602090810290910101526001016109fa565b8195505b505050505090565b60008181526001602081905260408220908101549091908190600160a060020a03161515610a7357610bcd565b6001830154600160a060020a031633141580610a9b57506002830154600160a060020a031633145b15610b16576040805160e560020a62461bcd02815260206004820152602660248201527f526566756e64206e6f7420617574686f726973656420666f722074686973206160448201527f63636f756e740000000000000000000000000000000000000000000000000000606482015290519081900360840190fd5b505060028082018054600085815260209390935260408084208054600160a060020a0319841690945584905551600160a060020a0390911692839183156108fc0291849190818181858888f19350505050158015610b78573d6000803e3d6000fd5b50600183015460408051868152600160a060020a039092166020830152338282015260608201839052517fae4600bc3786dafd4f3459692821fe209dcde1a5283d33f0675340813bc4ad489181900360800190a15b50505050565b600081815260016020819052604090912090810154600160a060020a03161515610bfc57610dc5565b6001810154600160a060020a03163314610c4e576040805160e560020a62461bcd0281526020600482018190526024820152600080516020613486833981519152604482015290519081900360640190fd5b60078101805460ff191690556002808201546006830154604080518681523360208201819052600160a060020a0390941691810182905260a0810183905260c0606082018181526003880180546000196001821615610100020116979097049183018290527f93759953971d9dce99ec5e86ee853a8b7d7b7fdbc7c34ead5e76872c4d3eaf2096899695909360048a019391929091608083019060e084019087908015610d3c5780601f10610d1157610100808354040283529160200191610d3c565b820191906000526020600020905b815481529060010190602001808311610d1f57829003601f168201915b5050838103825285546002600019610100600184161502019091160480825260209091019086908015610db05780601f10610d8557610100808354040283529160200191610db0565b820191906000526020600020905b815481529060010190602001808311610d9357829003601f168201915b50509850505050505050505060405180910390a15b5050565b6000610dd3613353565b600083815260016020818152604092839020835161010080820186528254825282850154600160a060020a0390811683860152600280850154909116838801526003840180548851978116159093026000190190921604601f8101859004850286018501909652858552909491936060860193909290830182828015610e9a5780601f10610e6f57610100808354040283529160200191610e9a565b820191906000526020600020905b815481529060010190602001808311610e7d57829003601f168201915b505050918352505060048201805460408051602060026001851615610100026000190190941693909304601f8101849004840282018401909252818152938201939291830182828015610f2e5780601f10610f0357610100808354040283529160200191610f2e565b820191906000526020600020905b815481529060010190602001808311610f1157829003601f168201915b505050918352505060058201805460408051602060026001851615610100026000190190941693909304601f8101849004840282018401909252818152938201939291830182828015610fc25780601f10610f9757610100808354040283529160200191610fc2565b820191906000526020600020905b815481529060010190602001808311610fa557829003601f168201915b5050509183525050600682015460208083019190915260079092015460ff161515604090910152810151909150600160a060020a03161515611007576000915061100f565b806040015191505b50919050565b606080600080606060006003546000141561104057604080516000808252602082019092529061091f565b60035460405190808252806020026020018201604052801561106c578160200160208202803883390190505b50945060009350600192505b60035483116110ea5760008381526001602081905260409091200154600160a060020a03163314156110df5760008381526001602052604090205485518690869081106110c157fe5b602090810290910101526110dc84600163ffffffff6132ca16565b93505b600190920191611078565b83604051908082528060200260200182016040528015611114578160200160208202803883390190505b509150600090505b83811015610a3a57848181518110151561113257fe5b90602001906020020151828281518110151561114a57fe5b6020908102909101015260010161111c565b6060611166613353565b600083815260016020818152604092839020835161010080820186528254825282850154600160a060020a0390811683860152600280850154909116838801526003840180548851978116159093026000190190921604601f810185900485028601850190965285855290949193606086019390929083018282801561122d5780601f106112025761010080835404028352916020019161122d565b820191906000526020600020905b81548152906001019060200180831161121057829003601f168201915b505050918352505060048201805460408051602060026001851615610100026000190190941693909304601f81018490048402820184019092528181529382019392918301828280156112c15780601f10611296576101008083540402835291602001916112c1565b820191906000526020600020905b8154815290600101906020018083116112a457829003601f168201915b505050918352505060058201805460408051602060026001851615610100026000190190941693909304601f81018490048402820184019092528181529382019392918301828280156113555780601f1061132a57610100808354040283529160200191611355565b820191906000526020600020905b81548152906001019060200180831161133857829003601f168201915b5050509183525050600682015460208083019190915260079092015460ff161515604090910152810151909150600160a060020a031615156113a757604080516020810190915260008152915061100f565b6080015192915050565b60606113bb613353565b600083815260016020818152604092839020835161010080820186528254825282850154600160a060020a0390811683860152600280850154909116838801526003840180548851978116159093026000190190921604601f81018590048502860185019096528585529094919360608601939092908301828280156114825780601f1061145757610100808354040283529160200191611482565b820191906000526020600020905b81548152906001019060200180831161146557829003601f168201915b505050918352505060048201805460408051602060026001851615610100026000190190941693909304601f81018490048402820184019092528181529382019392918301828280156115165780601f106114eb57610100808354040283529160200191611516565b820191906000526020600020905b8154815290600101906020018083116114f957829003601f168201915b505050918352505060058201805460408051602060026001851615610100026000190190941693909304601f81018490048402820184019092528181529382019392918301828280156115aa5780601f1061157f576101008083540402835291602001916115aa565b820191906000526020600020905b81548152906001019060200180831161158d57829003601f168201915b5050509183525050600682015460208083019190915260079092015460ff161515604090910152810151909150600160a060020a031615156115fc57604080516020810190915260008152915061100f565b6060015192915050565b6060611610613353565b600083815260016020818152604092839020835161010080820186528254825282850154600160a060020a0390811683860152600280850154909116838801526003840180548851978116159093026000190190921604601f81018590048502860185019096528585529094919360608601939092908301828280156116d75780601f106116ac576101008083540402835291602001916116d7565b820191906000526020600020905b8154815290600101906020018083116116ba57829003601f168201915b505050918352505060048201805460408051602060026001851615610100026000190190941693909304601f810184900484028201840190925281815293820193929183018282801561176b5780601f106117405761010080835404028352916020019161176b565b820191906000526020600020905b81548152906001019060200180831161174e57829003601f168201915b505050918352505060058201805460408051602060026001851615610100026000190190941693909304601f81018490048402820184019092528181529382019392918301828280156117ff5780601f106117d4576101008083540402835291602001916117ff565b820191906000526020600020905b8154815290600101906020018083116117e257829003601f168201915b5050509183525050600682015460208083019190915260079092015460ff161515604090910152810151909150600160a060020a0316151561185157604080516020810190915260008152915061100f565b60a0015192915050565b611863611c98565b151561186e57600080fd5b60008054604051600160a060020a03909116907f8be0079c531659141344cd1fd0a4f28419497f9722a3daafe3b4186f6b6457e0908390a360008054600160a060020a0319169055565b835184906060908190600010611918576040805160e560020a62461bcd02815260206004820152601260248201527f41206e616d652069732072657175697265640000000000000000000000000000604482015290519081900360640190fd5b8551869250600010611974576040805160e560020a62461bcd02815260206004820152601960248201527f41206465736372697074696f6e20697320726571756972656400000000000000604482015290519081900360640190fd5b50835184906000106119d0576040805160e560020a62461bcd02815260206004820181905260248201527f412068617368206b65792066726f6d2049504653206973207265717569726564604482015290519081900360640190fd5b6003546119e490600163ffffffff6132ca16565b600381815560408051610100810182528381523360208083019182526000838501818152606085018f8152608086018f905260a086018e905260c086018d905260e086018390529782526001808452959091208451815592519483018054600160a060020a03968716600160a060020a03199182161790915590516002840180549190961691161790935593518051919493611a8693908501929101906133ad565b5060808201518051611aa29160048401916020909101906133ad565b5060a08201518051611abe9160058401916020909101906133ad565b5060c0820151816006015560e08201518160070160006101000a81548160ff0219169083151502179055509050507f4efe84f42f5dc8e26465778176a705ad3410cf364c7671cb60cfc8e1f5fe7f3a60035433898989896040518087815260200186600160a060020a0316600160a060020a03168152602001806020018060200180602001858152602001848103845288818151815260200191508051906020019080838360005b83811015611b7e578181015183820152602001611b66565b50505050905090810190601f168015611bab5780820380516001836020036101000a031916815260200191505b50848103835287518152875160209182019189019080838360005b83811015611bde578181015183820152602001611bc6565b50505050905090810190601f168015611c0b5780820380516001836020036101000a031916815260200191505b50848103825286518152865160209182019188019080838360005b83811015611c3e578181015183820152602001611c26565b50505050905090810190601f168015611c6b5780820380516001836020036101000a031916815260200191505b50995050505050505050505060405180910390a150505050505050565b600054600160a060020a03165b90565b600054600160a060020a0316331490565b60026020526000908152604090205481565b60008181526001602081905260408220908101549091908190600160a060020a03161515611ce857610bcd565b6002830154600160a060020a03163314611d72576040805160e560020a62461bcd02815260206004820152602b60248201527f417373657420616c726561647920726573657276656420746f20616e6f74686560448201527f722063616e646964617465000000000000000000000000000000000000000000606482015290519081900360840190fd5b505060018101805460008481526002602081905260408083208054600160a060020a0319808716331790975592870180549096169095556006860183905560078601805460ff19169055938290559251600160a060020a039092169291839183156108fc02918491818181858888f19350505050158015611df7573d6000803e3d6000fd5b50600183015460408051868152600160a060020a039092166020830152338282015260608201839052517fe3cf0e0098f447c6d9bc08ffbbf3f193d35c51b57d7de6bb9ccb79f4995ccf719181900360800190a150505050565b600081815260016020819052604090912090810154600160a060020a03161515611e7a57610dc5565b6002810154600160a060020a031615611f03576040805160e560020a62461bcd02815260206004820152602b60248201527f417373657420616c726561647920726573657276656420746f20616e6f74686560448201527f722063616e646964617465000000000000000000000000000000000000000000606482015290519081900360840190fd5b6001810154600160a060020a0316331415611f8e576040805160e560020a62461bcd02815260206004820152602e60248201527f4465706f736974206e6f7420616c6c6f77656420666f7220746865206f776e6560448201527f72206f6620746865206173736574000000000000000000000000000000000000606482015290519081900360840190fd5b6006810154341461200f576040805160e560020a62461bcd02815260206004820152602260248201527f507269636520617265206e6f74207468652073616d652061732065787065637460448201527f6564000000000000000000000000000000000000000000000000000000000000606482015290519081900360840190fd5b6000828152600260208181526040928390203490559083018054600160a060020a03191633908117909155600184015460068501548451878152600160a060020a03929092169382019390935280840191909152606081019190915290517f2c0f148b435140de488c1b34647f1511c646f7077e87007bacf22ef9977a16d89181900360800190a15050565b60006120a5613353565b600083815260016020818152604092839020835161010080820186528254825282850154600160a060020a0390811683860152600280850154909116838801526003840180548851978116159093026000190190921604601f810185900485028601850190965285855290949193606086019390929083018282801561216c5780601f106121415761010080835404028352916020019161216c565b820191906000526020600020905b81548152906001019060200180831161214f57829003601f168201915b505050918352505060048201805460408051602060026001851615610100026000190190941693909304601f81018490048402820184019092528181529382019392918301828280156122005780601f106121d557610100808354040283529160200191612200565b820191906000526020600020905b8154815290600101906020018083116121e357829003601f168201915b505050918352505060058201805460408051602060026001851615610100026000190190941693909304601f81018490048402820184019092528181529382019392918301828280156122945780601f1061226957610100808354040283529160200191612294565b820191906000526020600020905b81548152906001019060200180831161227757829003601f168201915b5050509183525050600682015460208083019190915260079092015460ff161515604090910152810151909150600160a060020a031615156122d9576000915061100f565b6020015192915050565b60008581526001602081905260409091209081015460609081908190600160a060020a0316151561231357612656565b6001840154600160a060020a03163314612365576040805160e560020a62461bcd0281526020600482018190526024820152600080516020613486833981519152604482015290519081900360640190fd5b87518893506000106123c1576040805160e560020a62461bcd02815260206004820152601260248201527f41206e616d652069732072657175697265640000000000000000000000000000604482015290519081900360640190fd5b865187925060001061241d576040805160e560020a62461bcd02815260206004820152601960248201527f41206465736372697074696f6e20697320726571756972656400000000000000604482015290519081900360640190fd5b5084518590600010612479576040805160e560020a62461bcd02815260206004820181905260248201527f412068617368206b65792066726f6d2049504653206973207265717569726564604482015290519081900360640190fd5b875161248e90600386019060208b01906133ad565b5086516124a490600486019060208a01906133ad565b5085516124ba90600586019060208901906133ad565b508484600601819055507f5b06687e2faf130980555e1015a965e09459b7d538a348953f70a14109db3a4289338a8a8a8a6040518087815260200186600160a060020a0316600160a060020a03168152602001806020018060200180602001858152602001848103845288818151815260200191508051906020019080838360005b8381101561255457818101518382015260200161253c565b50505050905090810190601f1680156125815780820380516001836020036101000a031916815260200191505b50848103835287518152875160209182019189019080838360005b838110156125b457818101518382015260200161259c565b50505050905090810190601f1680156125e15780820380516001836020036101000a031916815260200191505b50848103825286518152865160209182019188019080838360005b838110156126145781810151838201526020016125fc565b50505050905090810190601f1680156126415780820380516001836020036101000a031916815260200191505b50995050505050505050505060405180910390a15b505050505050505050565b600061266b613353565b600083815260016020818152604092839020835161010080820186528254825282850154600160a060020a0390811683860152600280850154909116838801526003840180548851978116159093026000190190921604601f81018590048502860185019096528585529094919360608601939092908301828280156127325780601f1061270757610100808354040283529160200191612732565b820191906000526020600020905b81548152906001019060200180831161271557829003601f168201915b505050918352505060048201805460408051602060026001851615610100026000190190941693909304601f81018490048402820184019092528181529382019392918301828280156127c65780601f1061279b576101008083540402835291602001916127c6565b820191906000526020600020905b8154815290600101906020018083116127a957829003601f168201915b505050918352505060058201805460408051602060026001851615610100026000190190941693909304601f810184900484028201840190925281815293820193929183018282801561285a5780601f1061282f5761010080835404028352916020019161285a565b820191906000526020600020905b81548152906001019060200180831161283d57829003601f168201915b5050509183525050600682015460208083019190915260079092015460ff161515604090910152810151909150600160a060020a0316151561289f576000915061100f565b60e0015192915050565b60016020818152600092835260409283902080548184015460028084015460038501805489516101009982161599909902600019011692909204601f81018790048702880187019098528787529296600160a060020a039283169692909316949192909183018282801561295e5780601f106129335761010080835404028352916020019161295e565b820191906000526020600020905b81548152906001019060200180831161294157829003601f168201915b5050505060048301805460408051602060026001851615610100026000190190941693909304601f81018490048402820184019092528181529495949350908301828280156129ee5780601f106129c3576101008083540402835291602001916129ee565b820191906000526020600020905b8154815290600101906020018083116129d157829003601f168201915b5050505060058301805460408051602060026001851615610100026000190190941693909304601f8101849004840282018401909252818152949594935090830182828015612a7e5780601f10612a5357610100808354040283529160200191612a7e565b820191906000526020600020905b815481529060010190602001808311612a6157829003601f168201915b50505050600683015460079093015491929160ff16905088565b600081815260016020819052604090912090810154600160a060020a03161515612ac157610dc5565b6001810154600160a060020a03163314612b13576040805160e560020a62461bcd0281526020600482018190526024820152600080516020613486833981519152604482015290519081900360640190fd5b60078101805460ff1916600190811790915560068201546040805185815233602082018190526080820184905260a0928201838152600387018054600260001998821615610100029890980116969096049383018490527f5d095dcaf5e2fe5894fd51fdc2e637dd6095cb9b9b3c20d178cecc053a7a8c4e958895929490936004890193929091606083019060c084019087908015612bf35780601f10612bc857610100808354040283529160200191612bf3565b820191906000526020600020905b815481529060010190602001808311612bd657829003601f168201915b5050838103825285546002600019610100600184161502019091160480825260209091019086908015612c675780601f10612c3c57610100808354040283529160200191612c67565b820191906000526020600020905b815481529060010190602001808311612c4a57829003601f168201915b505097505050505050505060405180910390a15050565b6000612c88613353565b600083815260016020818152604092839020835161010080820186528254825282850154600160a060020a0390811683860152600280850154909116838801526003840180548851978116159093026000190190921604601f8101859004850286018501909652858552909491936060860193909290830182828015612d4f5780601f10612d2457610100808354040283529160200191612d4f565b820191906000526020600020905b815481529060010190602001808311612d3257829003601f168201915b505050918352505060048201805460408051602060026001851615610100026000190190941693909304601f8101849004840282018401909252818152938201939291830182828015612de35780601f10612db857610100808354040283529160200191612de3565b820191906000526020600020905b815481529060010190602001808311612dc657829003601f168201915b505050918352505060058201805460408051602060026001851615610100026000190190941693909304601f8101849004840282018401909252818152938201939291830182828015612e775780601f10612e4c57610100808354040283529160200191612e77565b820191906000526020600020905b815481529060010190602001808311612e5a57829003601f168201915b5050509183525050600682015460208083019190915260079092015460ff161515604090910152810151909150600160a060020a03161515612ebc576000915061100f565b60c0015192915050565b6000806060806060600080612ed9613353565b600089815260016020818152604092839020835161010080820186528254825282850154600160a060020a0390811683860152600280850154909116838801526003840180548851978116159093026000190190921604601f8101859004850286018501909652858552909491936060860193909290830182828015612fa05780601f10612f7557610100808354040283529160200191612fa0565b820191906000526020600020905b815481529060010190602001808311612f8357829003601f168201915b505050918352505060048201805460408051602060026001851615610100026000190190941693909304601f81018490048402820184019092528181529382019392918301828280156130345780601f1061300957610100808354040283529160200191613034565b820191906000526020600020905b81548152906001019060200180831161301757829003601f168201915b505050918352505060058201805460408051602060026001851615610100026000190190941693909304601f81018490048402820184019092528181529382019392918301828280156130c85780601f1061309d576101008083540402835291602001916130c8565b820191906000526020600020905b8154815290600101906020018083116130ab57829003601f168201915b5050509183525050600682015460208083019190915260079092015460ff161515604090910152810151909150600160a060020a0316151561314157604080516020818101835260008083528351808301855281815284519283019094528082529a508a99509097509095509350869250829150613176565b602081015160408201516060830151608084015160a085015160c086015160e0870151959d50939b5091995097509550935091505b50919395979092949650565b600081815260016020819052604090912090810154600160a060020a031615156131ab57610dc5565b6001810154600160a060020a031633146131fd576040805160e560020a62461bcd0281526020600482018190526024820152600080516020613486833981519152604482015290519081900360640190fd5b600082815260016020819052604082208281559081018054600160a060020a031990811690915560028201805490911690559061323d600383018261342b565b61324b60048301600061342b565b61325960058301600061342b565b5060006006820155600701805460ff19169055604080513381526020810184905281517f3406221f53114f44c9a1bb93d08ee55735f39bf235a54741684a52501207bb54929181900390910190a15050565b6132b3611c98565b15156132be57600080fd5b6132c7816132e3565b50565b6000828201838110156132dc57600080fd5b9392505050565b600160a060020a03811615156132f857600080fd5b60008054604051600160a060020a03808516939216917f8be0079c531659141344cd1fd0a4f28419497f9722a3daafe3b4186f6b6457e091a360008054600160a060020a031916600160a060020a0392909216919091179055565b61010060405190810160405280600081526020016000600160a060020a031681526020016000600160a060020a03168152602001606081526020016060815260200160608152602001600081526020016000151581525090565b828054600181600116156101000203166002900490600052602060002090601f016020900481019282601f106133ee57805160ff191683800117855561341b565b8280016001018555821561341b579182015b8281111561341b578251825591602001919060010190613400565b5061342792915061346b565b5090565b50805460018160011615610100020316600290046000825580601f1061345157506132c7565b601f0160209004906000526020600020908101906132c791905b611c9591905b8082111561342757600081556001016134715600416374696f6e20616c6c6f776564206f6e6c7920746f20746865206f776e6572a165627a7a723058209a0c9971d47b349bd6ce657e3fc430694a731d55d5b0e9e5d3c66b841cf2be5e0029",
  "source": "pragma solidity ^0.4.25;\n\nimport 'openzeppelin-solidity/contracts/ownership/Ownable.sol';\nimport 'openzeppelin-solidity/contracts/math/SafeMath.sol';\n\ncontract AssetContract is Ownable {\n\n    //\n    // OpenZeppeling specifics\n    //\n    using SafeMath for uint256;\n\n    //\n    // state variables\n    //\n\n    // description of an asset item\n    struct AssetItem {\n        uint256 id;                // id in the list\n        address owner;          // asset's owner\n        address candidate;      // candidate owner\n        string name;\n        string description;\n        string hashKey;         // hashkey of the asset stored in IPFS\n        uint256 price;          // price in Wei\n        bool available;         // true if the asset can be sold in the marketplace\n    }\n\n    // List of asset\n    mapping(uint256 => AssetItem) public assets;\n\n    // Balance of deposits\n    mapping(uint256 => uint256) public depositsBalance;\n\n    // number of assets\n    uint256 assetCounter;\n\n\n    //\n    // Events\n    //\n    event NewAsset(uint256 _assetId, address _owner, string _name, string _description, string _hashKey, uint256 _price);\n    event UpdateAsset(uint256 _assetId, address _owner, string _name, string _description, string _hashKey, uint256 _price);\n    event AssetRemoved(address _owner, uint _assetId);\n    event SetMarketplace(uint256 _assetId, address _owner, string _name, string _description, uint256 _price);\n    event UnsetMarketplace(uint256 _assetId, address _owner, address _candidate, string _name, string _description, uint256 _price);\n    event Deposit(uint256 _assetId, address _owner, address _candidate, uint256 _price);\n    event Purchase(uint256 _assetId, address _formerOwner, address _newOwner, uint256 _price);\n    event Refund(uint256 _assetId, address _owner, address _candidate, uint256 _price);\n\n    //\n    // Implementation\n    //\n\n    // add a new asset\n    function addAsset(string _name, string _description, string _hashKey, uint256 _price) public {\n        // a name is required\n        bytes memory name = bytes(_name);\n        require(name.length > 0, \"A name is required\");\n\n        // a description is required\n        bytes memory description = bytes(_description);\n        require(description.length > 0, \"A description is required\");\n\n        // an IPFS hash key is required\n        bytes memory hashKey = bytes(_hashKey);\n        require(hashKey.length > 0, \"A hash key from IPFS is required\");\n\n        // new asset\n        assetCounter = assetCounter.add(1);\n\n        // store the new asset\n        assets[assetCounter] = AssetItem(assetCounter, msg.sender, 0x0, _name, _description, _hashKey, _price, false);\n\n        emit NewAsset(assetCounter, msg.sender, _name, _description, _hashKey, _price);\n    }\n\n    // update an existing asset\n    // only possible for the asset's owner\n    function updateAsset(uint256 _assetId, string _name, string _description, string _hashKey, uint256 _price) public {\n        AssetItem storage asset = assets[_assetId];\n\n        // is this asset exists?\n        if (asset.owner == 0x0) {\n            return;\n        }\n\n        // only the asset's owner is allowed to update this asset\n        require(msg.sender == asset.owner, \"Action allowed only to the owner\");\n\n        // a name is required\n        bytes memory name = bytes(_name);\n        require(name.length > 0, \"A name is required\");\n\n        // a description is required\n        bytes memory description = bytes(_description);\n        require(description.length > 0, \"A description is required\");\n\n        // an IPFS hash key is required\n        bytes memory hashKey = bytes(_hashKey);\n        require(hashKey.length > 0, \"A hash key from IPFS is required\");\n\n        // update the asset\n        asset.name = _name;\n        asset.description = _description;\n        asset.hashKey = _hashKey;\n        asset.price = _price;\n\n        emit UpdateAsset(_assetId, msg.sender, _name, _description, _hashKey, _price);\n    }\n\n    // make the asset available in the marketplace\n    // only possible for the asset's owner\n    function setMarketplace(uint256 _assetId) public {\n        AssetItem storage asset = assets[_assetId];\n\n        // is this asset exists?\n        if (asset.owner == 0x0) {\n            return;\n        }\n\n        // only the asset's owner is allowed to update this asset\n        require(msg.sender == asset.owner, \"Action allowed only to the owner\");\n\n        // update the availability of the asset in the marketplace\n        asset.available = true;\n\n        emit SetMarketplace(_assetId, msg.sender, asset.name, asset.description, asset.price);\n    }\n\n    // remove the asset from the marketplace and refund the candidate buyer\n    // only possible for the asset's owner\n    function unsetMarketplace(uint256 _assetId) public {\n        AssetItem storage asset = assets[_assetId];\n\n        // is this asset exists?\n        if (asset.owner == 0x0) {\n            return;\n        }\n\n        // only the asset's owner is allowed to update this asset\n        require(msg.sender == asset.owner, \"Action allowed only to the owner\");\n\n        // update the availability of the asset in the marketplace\n        asset.available = false;\n\n        // TODO: refund the candidate buyer\n\n        emit UnsetMarketplace(_assetId, msg.sender, asset.candidate, asset.name, asset.description, asset.price);\n    }\n\n    // a candidate buyer deposit the price for the purchase\n    // the amount is secured in the contract's balance until the amount is released (sale concluded or refunded)\n    function deposit(uint256 _assetId) public payable {\n        AssetItem storage asset = assets[_assetId];\n\n        // is this asset exists?\n        if (asset.owner == 0x0) {\n            return;\n        }\n\n        // ensure that the asset is not already reserved\n        require(asset.candidate == 0x0, \"Asset already reserved to another candidate\");\n\n        // ensure that the asset is not already reserved to another candidate buyer\n        require(msg.sender != asset.owner, \"Deposit not allowed for the owner of the asset\");\n\n        // the value to deposit must be equal to price of the asset\n        require(msg.value == asset.price, \"Price are not the same as expected\");\n\n        // keep track of the deposit\n        depositsBalance[_assetId] = msg.value;\n\n        // store the address of the purchaser\n        asset.candidate = msg.sender;\n\n        emit Deposit(_assetId, asset.owner, msg.sender, asset.price);\n    }\n\n    // let the candidate buyer to become the new owner of the asset by executing the purchase\n    function purchaseAsset(uint256 _assetId) public payable {\n        AssetItem storage asset = assets[_assetId];\n\n        // is this asset exists?\n        if (asset.owner == 0x0) {\n            return;\n        }\n\n        // ensure that the buyer is the identified candidate\n        require(msg.sender == asset.candidate, \"Asset already reserved to another candidate\");\n\n        // keep the former owner and the price paid by the purchase\n        address _owner = asset.owner;\n        uint256 _price = depositsBalance[_assetId];\n\n        // move the asset to the buyer and reset its state\n        asset.owner = msg.sender;\n        asset.candidate = 0x0;\n        asset.price = 0;\n        asset.available = false;\n        delete depositsBalance[_assetId];\n\n        // transfer the amount to the former owner\n        _owner.transfer(_price);\n\n        emit Purchase(_assetId, asset.owner, msg.sender, _price);\n    }\n\n    // let the candidate buyer or the asset owner to cancel the purchase and refunding the candidate\n    function refundPurchase(uint256 _assetId) public payable {\n        AssetItem storage asset = assets[_assetId];\n\n        // is this asset exists?\n        if (asset.owner == 0x0) {\n            return;\n        }\n\n        // the sender must be the owner or the candidate\n        if (!(asset.owner == msg.sender) || (asset.candidate == msg.sender)) {\n            require(false, \"Refund not authorised for this account\");\n        }\n\n        // keep the former owner and the price paid by the purchase\n        address _candidate = asset.candidate;\n        uint256 _price = depositsBalance[_assetId];\n\n        // move the asset to the buyer and reset its state\n        asset.candidate = 0x0;\n        delete depositsBalance[_assetId];\n\n        // transfer the amount to the former owner\n        _candidate.transfer(_price);\n\n        emit Refund(_assetId, asset.owner, msg.sender, _price);\n    }\n\n    // remove an asset\n    function removeAsset(uint _assetId) public {\n        AssetItem storage asset = assets[_assetId];\n\n        // is this asset exists?\n        if (asset.owner == 0x0) {\n            return;\n        }\n\n        // only the asset's owner is allowed to remove this asset\n        require(msg.sender == asset.owner, \"Action allowed only to the owner\");\n\n        // remove the asset\n        delete assets[_assetId];\n\n        emit AssetRemoved(msg.sender, _assetId);\n    }\n\n    // return asset IDs owned by the function's caller\n    function getMyAssets() view public returns (uint[]) {\n        if (assetCounter == 0) {\n            return new uint[](0);\n        }\n\n        // prepare output array\n        uint256[] memory assetIDs = new uint[](assetCounter);\n\n        // iterate over assets\n        uint256 numberOfAssets = 0;\n        for (uint i = 1; i <= assetCounter; i++) {\n            // keep the ID of the asset owned by the sender\n            if (assets[i].owner == msg.sender) {\n                assetIDs[numberOfAssets] = assets[i].id;\n\n                numberOfAssets = numberOfAssets.add(1);\n            }\n        }\n\n        // copy the asset ID array into a smaller array\n        uint256[] memory myAsset = new uint[](numberOfAssets);\n        for (uint j = 0; j < numberOfAssets; j++) {\n            myAsset[j] = assetIDs[j];\n        }\n\n        return myAsset;\n    }\n\n    // return asset IDs published in the marketplace\n    function getMarketplace() view public returns (uint[]) {\n        if (assetCounter == 0) {\n            return new uint[](0);\n        }\n\n        // prepare output array\n        uint256[] memory assetIDs = new uint[](assetCounter);\n\n        // iterate over assets\n        uint256 numberOfAssets = 0;\n        for (uint i = 1; i <= assetCounter; i++) {\n            // keep the ID of the asset published in the marketplace\n            if (assets[i].available) {\n                assetIDs[numberOfAssets] = assets[i].id;\n\n                numberOfAssets = numberOfAssets.add(1);\n            }\n        }\n\n        // copy the asset ID array into a smaller array\n        uint256[] memory myAsset = new uint[](numberOfAssets);\n        for (uint j = 0; j < numberOfAssets; j++) {\n            myAsset[j] = assetIDs[j];\n        }\n\n        return myAsset;\n    }\n\n    // Retrieve an asset based on its ID\n    function getAsset(uint _assetId) view public returns (\n        address _owner,\n        address _candidate,\n        string _name,\n        string _description,\n        string _hashKey,\n        uint256 _price,\n        bool _available) {\n\n        AssetItem memory asset = assets[_assetId];\n\n        // ensure that we have an asset to fetch\n        if (asset.owner == 0x0) {\n            return (0x0, 0x0, \"\", \"\", \"\", 0, false);\n        }\n\n        return (\n            asset.owner,\n            asset.candidate,\n            asset.name,\n            asset.description,\n            asset.hashKey,\n            asset.price,\n            asset.available);\n    }\n\n\n\n    function getOwner(uint _assetId) view public returns (address) {\n        AssetItem memory asset = assets[_assetId];\n\n        // ensure that we have an asset to fetch\n        if (asset.owner == 0x0) {\n            return (0x0);\n        }\n\n\n        return asset.owner;\n    }\n\n    function getCandidate(uint _assetId) view public returns (address) {\n        AssetItem memory asset = assets[_assetId];\n\n        // ensure that we have an asset to fetch\n        if (asset.owner == 0x0) {\n            return (0x0);\n        }\n\n\n        return asset.candidate;\n    }\n\n\n    function getName(uint _assetId) view public returns (string) {\n        AssetItem memory asset = assets[_assetId];\n\n        // ensure that we have an asset to fetch\n        if (asset.owner == 0x0) {\n            return (\"\");\n        }\n\n\n        return asset.name;\n    }\n\n    function getDescription(uint _assetId) view public returns (string) {\n        AssetItem memory asset = assets[_assetId];\n\n        // ensure that we have an asset to fetch\n        if (asset.owner == 0x0) {\n            return (\"\");\n        }\n\n\n        return asset.description;\n    }\n\n    function getHashKey(uint _assetId) view public returns (string) {\n        AssetItem memory asset = assets[_assetId];\n\n        // ensure that we have an asset to fetch\n        if (asset.owner == 0x0) {\n            return (\"\");\n        }\n\n\n        return asset.hashKey;\n    }\n\n    function getPrice(uint _assetId) view public returns (uint256) {\n        AssetItem memory asset = assets[_assetId];\n\n        // ensure that we have an asset to fetch\n        if (asset.owner == 0x0) {\n            return (0);\n        }\n\n\n        return asset.price;\n    }\n\n    function getAvailability(uint _assetId) view public returns (bool) {\n        AssetItem memory asset = assets[_assetId];\n\n        // ensure that we have an asset to fetch\n        if (asset.owner == 0x0) {\n            return (false);\n        }\n\n\n        return asset.available;\n    }\n}",
  "sourcePath": "/Users/eloudsa/ChainSkills/projects/depositum/contracts/AssetContract.sol",
  "compiler": {
    "name": "solc",
    "version": "0.4.25+commit.59dbf8f1.Emscripten.clang"
  },
  "schemaVersion": "3.0.0-beta.1",
  "updatedAt": "2018-11-12T15:10:27.367Z"
}