{
  "contractName": "Renting",
  "abi": [
    {
      "anonymous": false,
      "inputs": [
        {
          "indexed": false,
          "name": "_owner",
          "type": "address"
        },
        {
          "indexed": false,
          "name": "_id",
          "type": "uint256"
        },
        {
          "indexed": false,
          "name": "_title",
          "type": "string"
        },
        {
          "indexed": false,
          "name": "_description",
          "type": "string"
        }
      ],
      "name": "NewRentItemEvent",
      "type": "event",
      "signature": "0xd61a826ed29cdad241ac4b7d4bd7aabf2f8614797b827a23bc266ca5c9003276"
    },
    {
      "anonymous": false,
      "inputs": [
        {
          "indexed": false,
          "name": "_owner",
          "type": "address"
        },
        {
          "indexed": false,
          "name": "_id",
          "type": "uint256"
        }
      ],
      "name": "RemovedRentItemEvent",
      "type": "event",
      "signature": "0xa6675d1a6a967a53781cd316a8e80d2c2c6df2e3cdcb31640e6303bdc84cec05"
    },
    {
      "constant": false,
      "inputs": [
        {
          "name": "title",
          "type": "string"
        },
        {
          "name": "description",
          "type": "string"
        },
        {
          "name": "imageHash",
          "type": "string"
        }
      ],
      "name": "addRentItem",
      "outputs": [],
      "payable": false,
      "stateMutability": "nonpayable",
      "type": "function",
      "signature": "0x5b60dd0d"
    },
    {
      "constant": false,
      "inputs": [
        {
          "name": "rentItemId",
          "type": "uint256"
        }
      ],
      "name": "removeRentItem",
      "outputs": [],
      "payable": false,
      "stateMutability": "nonpayable",
      "type": "function",
      "signature": "0xfc5b0159"
    },
    {
      "constant": true,
      "inputs": [
        {
          "name": "owner",
          "type": "address"
        }
      ],
      "name": "getValidRentItemIDs",
      "outputs": [
        {
          "name": "",
          "type": "uint256[]"
        }
      ],
      "payable": false,
      "stateMutability": "view",
      "type": "function",
      "signature": "0x65ff9b01"
    },
    {
      "constant": true,
      "inputs": [
        {
          "name": "owner",
          "type": "address"
        },
        {
          "name": "rentItemId",
          "type": "uint256"
        }
      ],
      "name": "getTitle",
      "outputs": [
        {
          "name": "",
          "type": "string"
        }
      ],
      "payable": false,
      "stateMutability": "view",
      "type": "function",
      "signature": "0x5c17dabf"
    },
    {
      "constant": true,
      "inputs": [
        {
          "name": "owner",
          "type": "address"
        },
        {
          "name": "rentItemId",
          "type": "uint256"
        }
      ],
      "name": "getDescription",
      "outputs": [
        {
          "name": "",
          "type": "string"
        }
      ],
      "payable": false,
      "stateMutability": "view",
      "type": "function",
      "signature": "0xb6e05b70"
    },
    {
      "constant": true,
      "inputs": [
        {
          "name": "owner",
          "type": "address"
        },
        {
          "name": "rentItemId",
          "type": "uint256"
        }
      ],
      "name": "getImageHash",
      "outputs": [
        {
          "name": "",
          "type": "string"
        }
      ],
      "payable": false,
      "stateMutability": "view",
      "type": "function",
      "signature": "0x4bdf3763"
    }
  ],
  "bytecode": "0x608060405234801561001057600080fd5b50610fdf806100206000396000f3006080604052600436106100775763ffffffff7c01000000000000000000000000000000000000000000000000000000006000350416634bdf3763811461007c5780635b60dd0d146101155780635c17dabf146101ec57806365ff9b0114610210578063b6e05b7014610281578063fc5b0159146102a5575b600080fd5b34801561008857600080fd5b506100a0600160a060020a03600435166024356102bd565b6040805160208082528351818301528351919283929083019185019080838360005b838110156100da5781810151838201526020016100c2565b50505050905090810190601f1680156101075780820380516001836020036101000a031916815260200191505b509250505060405180910390f35b34801561012157600080fd5b506040805160206004803580820135601f81018490048402850184019095528484526101ea94369492936024939284019190819084018382808284375050604080516020601f89358b018035918201839004830284018301909452808352979a99988101979196509182019450925082915084018382808284375050604080516020601f89358b018035918201839004830284018301909452808352979a9998810197919650918201945092508291508401838280828437509497506104bf9650505050505050565b005b3480156101f857600080fd5b506100a0600160a060020a03600435166024356106bf565b34801561021c57600080fd5b50610231600160a060020a03600435166108c1565b60408051602080825283518183015283519192839290830191858101910280838360005b8381101561026d578181015183820152602001610255565b505050509050019250505060405180910390f35b34801561028d57600080fd5b506100a0600160a060020a0360043516602435610c18565b3480156102b157600080fd5b506101ea600435610e1a565b60606102c7610ea8565b600160a060020a038416600090815260208181526040808320868452600190810183529281902081516080810183528154815281850180548451600297821615610100026000190190911696909604601f81018690048602870186019094528386529094919385810193908301828280156103835780601f1061035857610100808354040283529160200191610383565b820191906000526020600020905b81548152906001019060200180831161036657829003601f168201915b5050509183525050600282810180546040805160206001841615610100026000190190931694909404601f810183900483028501830190915280845293810193908301828280156104155780601f106103ea57610100808354040283529160200191610415565b820191906000526020600020905b8154815290600101906020018083116103f857829003601f168201915b505050918352505060038201805460408051602060026001851615610100026000190190941693909304601f81018490048402820184019092528181529382019392918301828280156104a95780601f1061047e576101008083540402835291602001916104a9565b820191906000526020600020905b81548152906001019060200180831161048c57829003601f168201915b5050509190925250505060600151949350505050565b336000908152602081815260408083208054600190810180835583516080810185528181528086018a81528186018a90526060820189905282885293830186529390952083518155915180519394929361052193928501929190910190610ed1565b506040820151805161053d916002840191602090910190610ed1565b5060608201518051610559916003840191602090910190610ed1565b505033600081815260208181526040808320868452600190810183529281902080548251868152938401819052608092840183815282860180546002978116156101000260001901168790049486018590527fd61a826ed29cdad241ac4b7d4bd7aabf2f8614797b827a23bc266ca5c90032769850919591949190920192909190606083019060a0840190869080156106335780601f1061060857610100808354040283529160200191610633565b820191906000526020600020905b81548152906001019060200180831161061657829003601f168201915b50508381038252845460026000196101006001841615020190911604808252602090910190859080156106a75780601f1061067c576101008083540402835291602001916106a7565b820191906000526020600020905b81548152906001019060200180831161068a57829003601f168201915b5050965050505050505060405180910390a150505050565b60606106c9610ea8565b600160a060020a038416600090815260208181526040808320868452600190810183529281902081516080810183528154815281850180548451600297821615610100026000190190911696909604601f81018690048602870186019094528386529094919385810193908301828280156107855780601f1061075a57610100808354040283529160200191610785565b820191906000526020600020905b81548152906001019060200180831161076857829003601f168201915b5050509183525050600282810180546040805160206001841615610100026000190190931694909404601f810183900483028501830190915280845293810193908301828280156108175780601f106107ec57610100808354040283529160200191610817565b820191906000526020600020905b8154815290600101906020018083116107fa57829003601f168201915b505050918352505060038201805460408051602060026001851615610100026000190190941693909304601f81018490048402820184019092528181529382019392918301828280156108ab5780601f10610880576101008083540402835291602001916108ab565b820191906000526020600020905b81548152906001019060200180831161088e57829003601f168201915b5050509190925250505060200151949350505050565b6060806000806108cf610ea8565b600160a060020a038616600090815260208190526040812054606091901515610908576040805160008152602081019091529650610c0d565b600160a060020a03881660009081526020818152604091829020548251818152818302810190920190925290801561094a578160200160208202803883390190505b50955060009450600193505b600160a060020a0388166000908152602081905260409020548411610b9757600160a060020a038816600090815260208181526040808320878452600190810183529281902081516080810183528154815281850180548451600297821615610100026000190190911696909604601f8101869004860287018601909452838652909491938581019390830182828015610a315780601f10610a0657610100808354040283529160200191610a31565b820191906000526020600020905b815481529060010190602001808311610a1457829003601f168201915b5050509183525050600282810180546040805160206001841615610100026000190190931694909404601f81018390048302850183019091528084529381019390830182828015610ac35780601f10610a9857610100808354040283529160200191610ac3565b820191906000526020600020905b815481529060010190602001808311610aa657829003601f168201915b505050918352505060038201805460408051602060026001851615610100026000190190941693909304601f8101849004840282018401909252818152938201939291830182828015610b575780601f10610b2c57610100808354040283529160200191610b57565b820191906000526020600020905b815481529060010190602001808311610b3a57829003601f168201915b50505091909252505081519194505015610b8c5782518651879087908110610b7b57fe5b602090810290910101526001909401935b600190930192610956565b84604051908082528060200260200182016040528015610bc1578160200160208202803883390190505b509150600090505b84811015610c09578581815181101515610bdf57fe5b906020019060200201518282815181101515610bf757fe5b60209081029091010152600101610bc9565b8196505b505050505050919050565b6060610c22610ea8565b600160a060020a038416600090815260208181526040808320868452600190810183529281902081516080810183528154815281850180548451600297821615610100026000190190911696909604601f8101869004860287018601909452838652909491938581019390830182828015610cde5780601f10610cb357610100808354040283529160200191610cde565b820191906000526020600020905b815481529060010190602001808311610cc157829003601f168201915b5050509183525050600282810180546040805160206001841615610100026000190190931694909404601f81018390048302850183019091528084529381019390830182828015610d705780601f10610d4557610100808354040283529160200191610d70565b820191906000526020600020905b815481529060010190602001808311610d5357829003601f168201915b505050918352505060038201805460408051602060026001851615610100026000190190941693909304601f8101849004840282018401909252818152938201939291830182828015610e045780601f10610dd957610100808354040283529160200191610e04565b820191906000526020600020905b815481529060010190602001808311610de757829003601f168201915b5050509190925250505060400151949350505050565b33600090815260208181526040808320848452600180820190935290832083815590929091610e4b90830182610f4f565b610e59600283016000610f4f565b610e67600383016000610f4f565b5050604080513381526020810184905281517fa6675d1a6a967a53781cd316a8e80d2c2c6df2e3cdcb31640e6303bdc84cec05929181900390910190a15050565b608060405190810160405280600081526020016060815260200160608152602001606081525090565b828054600181600116156101000203166002900490600052602060002090601f016020900481019282601f10610f1257805160ff1916838001178555610f3f565b82800160010185558215610f3f579182015b82811115610f3f578251825591602001919060010190610f24565b50610f4b929150610f96565b5090565b50805460018160011615610100020316600290046000825580601f10610f755750610f93565b601f016020900490600052602060002090810190610f939190610f96565b50565b610fb091905b80821115610f4b5760008155600101610f9c565b905600a165627a7a7230582026fe17be568d0a01cd7ac1b16209bf18c50df821e1f8d81f64f764ff3a14e3910029",
  "source": "pragma solidity ^0.4.25;\n\ncontract Renting {\n    //\n    // state variables\n    //\n    struct RentItem {\n        uint id;\n        string title;\n        string description;\n        string imageHash;\n    }\n\n    struct RentItems {\n        uint numberRentItems;\n        mapping(uint => RentItem) rentItems;\n    }\n\n    mapping(address => RentItems) userRentItems;\n\n    //\n    // Events\n    //\n    event NewRentItemEvent(address _owner, uint _id, string _title, string _description);\n    event RemovedRentItemEvent(address _owner, uint _id);\n\n\n    //\n    // Implementation\n    //\n\n    // add a new item to rent\n    function addRentItem(string title, string description, string imageHash) public {\n        userRentItems[msg.sender].numberRentItems += 1;\n        uint numberRentItems = userRentItems[msg.sender].numberRentItems;\n\n        userRentItems[msg.sender].rentItems[numberRentItems] = RentItem(numberRentItems, title, description, imageHash);\n\n        emit NewRentItemEvent(msg.sender,\n            userRentItems[msg.sender].rentItems[numberRentItems].id,\n            userRentItems[msg.sender].rentItems[numberRentItems].title,\n            userRentItems[msg.sender].rentItems[numberRentItems].description);\n    }\n\n    // remove an item to rent\n    function removeRentItem(uint rentItemId) public {\n        RentItems storage items = userRentItems[msg.sender];\n        delete items.rentItems[rentItemId];\n        emit RemovedRentItemEvent(msg.sender, rentItemId);\n    }\n\n    // get the list of valid rent items IDs\n    function getValidRentItemIDs(address owner) view public returns (uint[]) {\n        // we check whether there is at least one item to rent\n        if (userRentItems[owner].numberRentItems == 0) {\n            return new uint[](0);\n        }\n\n        // prepare output arrays\n        uint[] memory itemsIDs = new uint[](userRentItems[owner].numberRentItems);\n\n        // iterate over items to rent\n        uint nbValidItems = 0;\n        for (uint i = 1; i <= userRentItems[owner].numberRentItems; i++) {\n            RentItem memory rentItem = userRentItems[owner].rentItems[i];\n\n            // keep only the ID for the rent item not already removed\n            if (rentItem.id != 0x0) {\n                itemsIDs[nbValidItems] = rentItem.id;\n                nbValidItems++;\n            }\n        }\n\n        // copy the rent items IDs array into the smaller validItemIds array\n        uint[] memory validItemIds = new uint[](nbValidItems);\n        for (uint j = 0; j < nbValidItems; j++) {\n            validItemIds[j] = itemsIDs[j];\n        }\n\n        return validItemIds;\n    }\n\n\n    function getTitle(address owner, uint rentItemId) view public returns (string) {\n        RentItem memory rentItem = userRentItems[owner].rentItems[rentItemId];\n        return rentItem.title;\n    }\n\n\n    function getDescription(address owner, uint rentItemId) view public returns (string) {\n        RentItem memory rentItem = userRentItems[owner].rentItems[rentItemId];\n        return rentItem.description;\n    }\n\n    function getImageHash(address owner, uint rentItemId) view public returns (string) {\n        RentItem memory rentItem = userRentItems[owner].rentItems[rentItemId];\n        return rentItem.imageHash;\n    }\n}",
  "sourcePath": "/Users/eloudsa/ChainSkills/projects/chainbnb/contracts/Renting.sol",
  "compiler": {
    "name": "solc",
    "version": "0.4.25+commit.59dbf8f1.Emscripten.clang"
  },
  "schemaVersion": "3.0.0-beta.1",
  "updatedAt": "2018-11-09T00:41:09.343Z"
}